:020000040800F2
:1000000000500020AD6000083D6000083F6000081F
:1000100000000000000000000000000000000000E0
:100020000000000000000000000000004160000827
:100030000000000000000000436000084560000868
:10004000FD600008FD600008FD600008FD6000081C
:10005000FD600008FD600008FD600008FD6000080C
:10006000FD600008FD600008FD600008FD600008FC
:10007000FD600008FD600008FD600008FD600008EC
:10008000FD600008FD600008FD6000080000000041
:10009000FD600008FD600008FD600008FD600008CC
:1000A000FD600008FD600008FD600008FD600008BC
:1000B000FD600008FD60000800000000FD60000811
:1000C00010B5064C2378002B07D1054B002B02D02E
:1000D000044800E000BF0123237010BDE0010020B0
:1000E00000000000C06A0008044B10B5002B03D0CC
:1000F0000349044800E000BF10BDC04600000000F6
:10010000E4010020C06A00080023C25C0133002A19
:10011000FBD1581E7047000002B4714649084900DF
:10012000095C49008E4402BC7047C0460022430867
:100130008B4274D303098B425FD3030A8B4244D3AF
:10014000030B8B4228D3030C8B420DD3FF220902F1
:1001500012BA030C8B4202D31212090265D0030BB0
:100160008B4219D300E0090AC30B8B4201D3CB03A6
:10017000C01A5241830B8B4201D38B03C01A5241E8
:10018000430B8B4201D34B03C01A5241030B8B42EA
:1001900001D30B03C01A5241C30A8B4201D3CB02D5
:1001A000C01A5241830A8B4201D38B02C01A5241BA
:1001B000430A8B4201D34B02C01A5241030A8B42BD
:1001C00001D30B02C01A5241CDD2C3098B4201D3D5
:1001D000CB01C01A524183098B4201D38B01C01A53
:1001E000524143098B4201D34B01C01A52410309CA
:1001F0008B4201D30B01C01A5241C3088B4201D379
:10020000CB00C01A524183088B4201D38B00C01A25
:10021000524143088B4201D34B00C01A5241411A4C
:1002200000D20146524110467047FFE701B5002059
:1002300000F0F0F802BDC0460029F7D076E770471D
:1002400003460B437FD4002243088B4274D3030937
:100250008B425FD3030A8B4244D3030B8B4228D3D8
:10026000030C8B420DD3FF22090212BA030C8B42FE
:1002700002D31212090265D0030B8B4219D300E09E
:10028000090AC30B8B4201D3CB03C01A5241830B23
:100290008B4201D38B03C01A5241430B8B4201D3D3
:1002A0004B03C01A5241030B8B4201D30B03C01AFC
:1002B0005241C30A8B4201D3CB02C01A5241830A76
:1002C0008B4201D38B02C01A5241430A8B4201D3A5
:1002D0004B02C01A5241030A8B4201D30B02C01ACF
:1002E0005241CDD2C3098B4201D3CB01C01A524136
:1002F00083098B4201D38B01C01A524143098B42BF
:1003000001D34B01C01A524103098B4201D30B01A7
:10031000C01A5241C3088B4201D3CB00C01A5241CC
:1003200083088B4201D38B00C01A524143088B4291
:1003300001D34B00C01A5241411A00D2014652412A
:10034000104670475DE0CA0F00D04942031000D349
:100350004042534000229C4603098B422DD3030A9E
:100360008B4212D3FC22890112BA030A8B420CD3AE
:10037000890192118B4208D3890192118B4204D3D7
:1003800089013AD0921100E08909C3098B4201D357
:10039000CB01C01A524183098B4201D38B01C01A91
:1003A000524143098B4201D34B01C01A5241030908
:1003B0008B4201D30B01C01A5241C3088B4201D3B7
:1003C000CB00C01A524183088B4201D38B00C01A64
:1003D0005241D9D243088B4201D34B00C01A52413B
:1003E000411A00D20146634652415B10104601D3C8
:1003F0004042002B00D54942704763465B1000D352
:10040000404201B5002000F005F802BD0029F8D0F7
:1004100016E770477047C0468446101C62468C46FB
:10042000191C634600E0C0461FB501F0F5F800282E
:1004300001D40021C8421FBD10B501F04DF8404263
:10044000013010BD10B501F0E7F8002801DB0020F5
:1004500010BD012010BDC04610B501F0DDF8002828
:1004600001DD002010BD012010BDC04610B501F017
:100470006FF8002801DC002010BD012010BDC0462F
:1004800010B501F065F8002801DA002010BD012048
:1004900010BDC046F8B54746CE464400C20F80B5F1
:1004A00047024802400A8446664648007F0A240EF6
:1004B000F60025009046FB00000EC90FB146FF284C
:1004C00000D185E001267140261A914257D0002EB6
:1004D00043DD002800D07FE04946002900D1AAE092
:1004E000013E002E00D0F7E05B1A5A0100D48BE0E9
:1004F0009B019C09200002F045F8053884408542A4
:1005000000DDD3E0451B230020200135EB40451BD7
:10051000AC40621E94412343072400251C40012265
:1005200041460A40002C04D00F211940042900D074
:100530000433590100D480E00135ECB2FF2D00D026
:10054000A3E0FF2400235B02E405580AD2072043FE
:1005500010430CBC90469946F8BD002E74D1601C27
:10056000C0B2012800DCA7E04A469C1A620100D50F
:10057000B6E0002CBED1002200240023E3E7002EC9
:1005800000DC85E0002846D0FF2C49D08022484678
:10059000D2041043814601221B2E09DC20204C4648
:1005A000801B84404A462000F240441EA041024382
:1005B0009B185A0128D50135FF2D00D1A8E0012252
:1005C000072494491A405B080B4013431C40A6E7DC
:1005D000002E00D078E775E7FF2C54D080224946E2
:1005E000D2041143894601221B2E09DC20214846F2
:1005F000891B88404A460100F240481E81410A4357
:100600009B1A5A0100D573E7012241460A40590757
:1006100000D089E711E04846002858D1FF2C0CD1C2
:10062000DB08002B00D18CE78020C00303435B0272
:100630005B0AFF2487E7FF2C25D0DB08FF2DF0D0D5
:100640005B025B0AECB27EE7002C4DD0FF2818D08D
:100650008024E404724223431B2A00DDC4E01C0012
:100660002025D440AA1A93405A1E934123434A4658
:100670000500D31A884638E7721CF8D0F243FF28E9
:10068000EAD10A004B46FF25D7E79B015B0A5AE7F0
:10069000002E41D1651CE9B2012945DDFF2D00D1B5
:1006A0004FE707244B445B081C4038E707225A4BAE
:1006B0002D1A2340144032E7002C1DD1002B7AD193
:1006C0004B46002B00D191E00A000025B5E7013E22
:1006D000002E19D14B446CE7FF2C84D1FF25ACE7E9
:1006E0004A468846D41A05E7002BC5D10A00FF28E0
:1006F000C8D005004B46A0E7002B49D14B46002B44
:1007000077D00A00FF2598E7FF2C00D043E787E762
:100710000A00FF24002316E7002C15D1002B57D127
:10072000FF28E6D14B467BE7002C20D1002B57D089
:100730004946002953D04B445A0168D50724364A0C
:100740001C4001251340EAE6FF28EBD08022D204AA
:10075000764213431B2E53DC2025AD1B1A00AB4001
:10076000F2405C1EA34113434B44050021E7002BDC
:10077000D8D04946002900D152E78021C9030F4251
:1007800000D14DE76046084200D049E74B4647E7B5
:100790004846FF25002800D14FE78022D2031742A8
:1007A00004D06046104201D14B46884601224146A2
:1007B000FF250A4041E7484600281FD01A1A500179
:1007C00020D54A460724D31A1C4088460025A6E6B1
:1007D000741CC9D0F643FF28BCD14B4620E799468C
:1007E0004B460025DB082BE7012340E700220023CE
:1007F000A9E680230022DB03FF24A4E600251CE7F2
:100800000123B1E7002AF1D013000025FCE6002502
:10081000FAE6C046FFFFFF7DFFFFFFFB70B5041E39
:1008200034D001F0AFFE9E22121A962A07DCD2B213
:1008300008282EDD083884406002400A21E0992A09
:1008400009DD030021001B3399404B1E994105230C
:100850001B1ADC400C43052801DD431F9C4023008C
:100860000D490B40650709D00F252C40042C05D0FD
:1008700004335C0102D59F220B40121A9B01580AD7
:10088000D2B24002D205400A104370BD00220020BF
:10089000F7E76002400AF4E7FFFFFFFBF0B54F46C1
:1008A0004646D6460C000903C0B5490A470F5E000C
:1008B00039431F03DB0F9C4665007B0A570F1F431C
:1008C0006D0DE40F760DA146C000B846D200AB1BFB
:1008D00064457BD0002B5FDD002E00D0A4E03E00FD
:1008E000164300D112E15E1E002E00D09EE1871A51
:1008F0004346B84280410125C91A4042091A0B02F9
:1009000000D431E149024E0A002E00D16EE13000E0
:1009100001F038FE0300083B1F2B00DD61E12022BF
:100920003900D21A9E40D1409F400E439D4200DDC7
:1009300051E15D1B6B1C1F2B00DD7CE12021C91ADE
:100940003D0030008F408840DD40791E8F413100EE
:1009500007222843D940002507433A40002A09D0FE
:100960000F233B40042B05D03B1DBB42BF417F42C0
:10097000C9191F000B0200D426E26A1CC64B55059C
:100980006D0D9A4200D106E1C44AFF080A405307A0
:1009900052023B43120B8EE0002B00D0B8E06B1CE0
:1009A0005B055B0D012B00DC30E1871A4346B84242
:1009B000B641CB1A76429E1B330200D54CE13B0078
:1009C0003343A1D100220024002570E0002B00DC7D
:1009D000E5E0002E00D183E0AF4EB54260D0802626
:1009E00036043743B846382B00DC3EE14346134318
:1009F0001F007A1E97413F188742804140420918E4
:100A00000B0200D4B0E0A44B01359D4200D1C3E0FD
:100A1000A24A7B080A4001210F401F435108D30717
:100A200007221F433A4099E79B4EB54238D08026B3
:100A300036043743B846382B00DDDCE01F2B00DCE2
:100A400030E11E004746203EF740BC46202B04D034
:100A50004026F31A46469E403243170063467A1EEC
:100A600097411F43CCE0002B00D104E243461343DF
:100A700000D159E14B07C00818438023C9081B0364
:100A8000194208D04546ED081D4204D14346D0081E
:100A9000590708432900420FC9007F4D1143C00088
:100AA0004B07CA087C49C00803438D4268D0120333
:100AB0006D05120B6D0D002112031800130B0A0DAA
:100AC00012051A43764B2D0513402B435B00E407B8
:100AD0005B08234319001CBC90469946A246F0BD12
:100AE0003E00164312D05E1E002E00D000E1871893
:100AF0008742804141444042091801250B0233D509
:100B0000022585E764463300414610001D00C7E713
:100B1000002D00D0DAE00C000443F3D05C1C00D1BF
:100B20009FE15D4CA64200D12FE1DB43382B00DD75
:100B300066E11F2B00DD83E120240500E41A0F008D
:100B4000DD40D940A0404346A7405B1A441EA04167
:100B500098462F433843171ABA42924143465242AD
:100B6000991A64463500CAE607223A40002A00D0A6
:100B7000F6E64B07CA084849FF083B438D4296D129
:100B80001900114300D19EE1802109030A43120399
:100B9000120B414D8FE71500002200238BE7002B3D
:100BA00000D0C7E06B1C5F057F0D012F00DCF1E07A
:100BB000394DAB4200D1B9E085180A008542894120
:100BC0004244494251180722CF076D082F43490874
:100BD0003A401D00C2E607223049ED1A31403A4042
:100BE000BCE63E002838864000279FE6380001F02A
:100BF000C9FC20308EE6434613431F007A1E9741FE
:100C0000C71BB84280414042091A78E60E003B00FB
:100C100006431343002D61D1002E00D0F4E0002BD9
:100C200000D11BE164463900100039E71A4FBB427E
:100C30007AD03300FFE630001F3DE840202B03D080
:100C40004021CB1A9E4037437B1E9F41072207431A
:100C50003A400021002589E7171A4346BA42B641B7
:100C6000591A76428E1B64464EE61F2B00DDADE01E
:100C700020264746F61AB740B9461700B246DF406D
:100C80004E463E4337005646B240561EB2411743C9
:100C90004246DA408918AEE6FF070000FFFF7FFFFB
:100CA000FFFF0F8020264746F61AB740B9461700C7
:100CB000B246DF404E463E4337005646B240561ECF
:100CC000B24117434246DA40891A99E77F4CA6425F
:100CD0005BD0802424045B42214327E7002E0CD103
:100CE000002B00D1CBE0644639001000774DD7E6E9
:100CF000764FBB4218D0330075E6002B14D04B075B
:100D0000C00818438023C9081B03194207D0FC08F8
:100D10001C4204D17907D0080843E14621004C4623
:100D2000420FC9001143C000684DB9E61D00002202
:100D30000023C0E6002D5BD10D00054300D1E2E6A3
:100D40005D1C00D1B0E0614DAE421FD0DB43382BBB
:100D500071DC1F2B00DD96E020250F00ED1AAF405F
:100D6000B9460700AA46DF404D463D432F00554691
:100D7000A840D940451EA84188440743BF18974260
:100D800092415142414435003AE6644635004146BD
:100D9000100085E60B000343002D00D063E6002B16
:100DA000F5D04346134300D17AE687188742804145
:100DB00007224144404209183A400B0200D4D5E6CC
:100DC000434B01351940C9E5380069E61E00474626
:100DD000203EF740BC46202B04D04026F31A46465E
:100DE0009E403243170063467A1E97411F4302E636
:100DF000364DAE42CAD080252D045B422943A6E77A
:100E00000843411E8841A6E6002B00D148E6871A18
:100E10004346B842B641CB1A76429E1B33024BD5AD
:100E2000171A4346BA429241591A5242891A072266
:100E300064463A4092E501430F00791E8F419DE7D9
:100E40001C000F00203CE740202B03D04024E31A75
:100E500099400843411E884138437CE60022002423
:100E600025E6171A4346BA429241591A5242891A44
:100E70006446350043E541461000144D10E68022DB
:100E80000024120380E61D000F00203DEF40BC4609
:100E9000202B03D04025EB1A9940084307006346F6
:100EA000781E87411F4369E7871897429B41414459
:100EB0005B42C9183500A3E53B003343CED007227F
:100EC00031003A4052E600231A00F4E5FF07000023
:100ED000FFFF7FFFF0B55746DE464E464546E0B57C
:100EE000834607000E03480085B092461C00360B6F
:100EF000400DCD0F002800D19DE0954B984239D090
:100F00008023F6001B041E43924A7B0F334399460D
:100F1000944603006344009300230026FF000293DD
:100F200023031B0B98466300E40F52465B0D0194AC
:100F300000D1B3E086498B4200D19EE04246D10009
:100F4000802212040A435146490F11438B468149BE
:100F500052468C4600996344CB1A0021D20000937C
:100F60002B0063409A460F2E00D905E17A4BB6005C
:100F70009B599F465B463343994600D0B8E0022315
:100F80000826002700900293CAE7CB463A00029950
:100F90000195019B9A46022927D0032900D180E2BE
:100FA000012944D06D49009B8C4663441C00002CF1
:100FB00038DD530700D013E2D2085B46DB0109D5C8
:100FC0005946674B19408B468021C9008C46009BCF
:100FD00063441C00634B9C4207DC5B4664055F076F
:100FE0005B0217431B0B620D02E000230027584AE7
:100FF00000211B031C0B0B0D1B05234314055A4A30
:10100000380013401C4353466400DB0764081C434C
:10101000210005B03CBC90469946A246AB46F0BDC7
:101020000122524201231B1B382B00DCADE10022C0
:1010300000230027DCE75B46334399465ED0002E51
:1010400000D18AE1300001F09DFA03000B3B1C2B1C
:1010500000DD7BE11D22D31A5A460100DA4008392F
:101060008E4013005F46334399468F403F4B002626
:101070001B1A00930023029352E7414653460B4349
:101080003B499B468C46009B634400935B46002B88
:101090003BD1022300221E43022161E74346134352
:1010A0009B4637D04346002B00D162E1404601F019
:1010B00069FA03000B3B1C2B00DD53E102004146A3
:1010C000083A914088461D21CB1A5146D9400B0061
:1010D00041460B439B46534693401A00009B2549CB
:1010E0009C46604403008C4663440093002137E72C
:1010F0000323B14600900C26029311E700230093CE
:1011000001330426002702930AE70323C3461E4344
:10111000032125E701331E430022012120E700239C
:101120009A46802300271B03094A61E7802349462A
:101130001B03194200D1E2E05946194200D0DEE01B
:101140000B431B0317001B0BA246014A50E7C04686
:10115000FF07000001FCFFFFFC6A0008FF0300001E
:10116000FFFFFFFEFE070000FFFF0F800DFCFFFFEB
:1011700001F8FFFFF3030000D94500D9CBE000D10F
:10118000C6E03C0048460027009B013B00935B46BD
:10119000160E1B021E431302984633041B0C99467D
:1011A000310C0191FFF748F84A4642430B04210CE9
:1011B000050019438A4207D98919013D8E4203D897
:1011C0008A4201D9851E8919881A0199FFF734F8D6
:1011D00009048C464A46210464464243090C030034
:1011E00021438A4204D98919013B8E4200D8F1E09B
:1011F0002D041D43AB464346891A4246280C12046F
:101200001D0C5B46140C22001B041B0C5A43039458
:101210006B434443029568431B19150CEB189C4221
:1012200003D980246402A44660441C0C15041B04EA
:101230002D0C20185D19814277D373D00C1AA24A65
:101240007D1BAF42BF419446009B7F426344E01B3D
:101250001C00864200D1DBE00199FEF7EDFF4A4613
:1012600042430B04290C070019438A4207D9891904
:10127000013F8E4203D88A4201D9871E8919881AF4
:101280000199FEF7D9FF09044A46894629044D46CB
:101290004243090C030029438A4207D98919013BBB
:1012A0008E4203D88A4201D9831E89193F04891AC4
:1012B0003A00039F1A43380013041B0C584381461D
:1012C0000298150C6F43434345434846000C84463F
:1012D000DB1963449F4203D9802040028446654461
:1012E00048461F0C00041B04000C7D191818A94265
:1012F00000D284E000D17FE001231A4357E6802327
:101300004A461B0313431B031B0BAA466F4A6FE697
:10131000BA4200D935E74B46DC0758087B081C4326
:10132000FF0734E70024AF4289D247444745A44130
:101330005B466442A4196418013BA6421ED2A04237
:101340006DD800D1B6E0241A9B4678E703005A46D0
:10135000283B9A400027914688E6584601F012F94A
:10136000203072E603005246283B9A409346002202
:10137000B4E6504601F006F920309AE6A642E2D1E2
:10138000B845DCD9341A9B4659E71F2B65DC504C15
:101390000099A4465C46614408008C4011008240DC
:1013A000D940501E82410C4314435A46DA40130080
:1013B000620709D00F222240042A05D02200141D02
:1013C0009442894149425B181A0262D501220023E6
:1013D00000270DE68A4200D80AE7831E891907E72D
:1013E0000F231340042B00D1E6E5171D97429241CD
:1013F00053429B44FA08E0E5002800D1D7E5711874
:10140000531EB14227D3A94215D358D01A0073E70F
:10141000002B00DC04E6012300229B44CDE50223DF
:101420004744474589415B429C46494289190C190A
:10143000E344241A03E743465F0047459B41B8460F
:101440005B429E19023A8919A94200D054E74045EF
:1014500000D051E7ABE51A00F6E71F215F4649428D
:101460000C1BE740202B07D01A49009B8C46634495
:1014700018005B4683401A43501E82413A430727B7
:101480000023174009D00F21002311401400042924
:1014900095D122005F075B021B0BD2081743002285
:1014A000A6E5802359461B030B431B0317001B0BA8
:1014B000064A9DE5BD42B2D89B460024BFE6804562
:1014C000B9D31A00C3E7C046FF030000FF070000BE
:1014D0001E0400003E040000F0B54F464646D646C6
:1014E0008446C0B58046194E18030F034D00000B0B
:1014F0005C0082463F0B6D0DC90F9146640DDB0FFA
:101500000120B5420AD0B44203D0A54201D15745CB
:101510000CD01CBC90469946A246F0BD66463E43A0
:10152000F7D1AC42F5D154461443F2D10120C8455D
:10153000EFD1994207D0002DEBD163461F4338000D
:10154000471EB841E5E70020E3E7C046FF0700007B
:10155000F0B54F464646D6464D00C0B50E03C90FFE
:101560008A462C491F035C008046360B6D0D914660
:101570003F0B640DDB0F8D421ED08C4216D0002D28
:101580001ED130438446002C01D13A4323D0624619
:10159000002A1AD09A4529D0514602200139084024
:1015A00001381CBC90469946A246F0BD3900114353
:1015B000E5D002204042F4E73043FAD1AC420FD0EC
:1015C000002C0FD13A43E7D00CE00122013B9343BA
:1015D00018000130E5E763460020002BE1D0DBE78F
:1015E0003A43E6D19A45D7D1A542D5DCA54205DBE1
:1015F000BE42D1D808D00020BE42D2D250460123EC
:10160000013898430130CCE7C845C5D80020C8450B
:10161000F4D3C6E7FF070000F0B54F464646D6466E
:101620004D00C0B50E03C90F8A462E491F035C004A
:101630008046360B6D0D91463F0B640DDB0F8D42DE
:1016400018D08C4211D0002D18D130438446002C84
:101650001ED13A431CD163460020002B30D05146A6
:1016600002200139084001382AE039001143EAD04C
:10167000022025E03043FBD1AC4226D0002C26D1FD
:101680003A4324D15146022001390840013817E07D
:101690006246002A0FD09A45E1D1A54205DBBE4241
:1016A000DDD819D00020BE420AD2504601230138AD
:1016B0009843013004E00122013B934318000130BC
:1016C0001CBC90469946A246F0BD3A43D0D19A45FB
:1016D000C5D1A542C3DCE0E7C845C0D80020C84555
:1016E000E3D3EDE7FF070000F0B55746DE464E4670
:1016F0004546E0B5834606000F03480087B0924692
:101700001D003F0B400DCC0F002800D16FE0DE4BD9
:10171000984238D08023FF001B041F43730F3B43C4
:101720000193DA4B0027994600239B46F60081443B
:101730002B0369001B0B52469846490DED0F0029FB
:1017400000D185E0D04B994200D173E04346DA00E6
:1017500080231B0413435246CC48520F8446134344
:10176000524600206144D200894421006940009122
:101770008C46012149448A460F2F00D990E0C44984
:10178000BF00CF59BF465B463B43019300D06AE19F
:1017900002230827002681469B46C9E732005846A7
:1017A000019B61460091022800D175E0032800D119
:1017B000FEE1012800D02CE10023002700260025AF
:1017C0003F032A0D3F0BB34812053A4302401B0565
:1017D0001343009A5B00D1075B080B4330001900EC
:1017E00007B03CBC90469946A246AB46F0BD5B466E
:1017F0003B43019300D12FE1002F00D1A5E1380038
:1018000000F0C0FE03000B3B1C2B00DD96E11D2207
:10181000D31A5A460100DA405E4608398F40130059
:101820008E403B4301939C4B00271B1A9946002393
:101830009B467DE7414653460B4393498C46E14422
:10184000002B00D01AE102220220174300228CE76D
:10185000134300D10DE14346002B00D181E1404606
:1018600000F090FE02000B3A1C2A00DD72E101003C
:10187000434608398B4098461D239A1A5346D34055
:101880001A004346134352468A404946081A824981
:1018900089468144002068E77B4B002700268EE7BD
:1018A000140C1204120C1100370C3604350C794359
:1018B00028008C462E006043604483465643210036
:1018C000300C80465846794340440291844506D9FD
:1018D0008846802149028C46E04441460291360404
:1018E000010C360C00048B4681191E0C1B041B0CCA
:1018F0000391190079438C46280075436544A84636
:101900005843050C45447743A94203D98021490235
:101910008C466744290C8C4639000004000C2D04C9
:101920002D186144AB4405915946049101990F0467
:101930003F0C080C390051434243904602008C464C
:10194000090C8B4662437C4344445C44A04503D964
:101950008021490288464244210C88466146090498
:10196000090C8C4639005943434370437E430F0CA6
:10197000F6182404BE19644442448C46B34203D989
:1019800080235B0298464044029B61469846049B34
:10199000370443449B46AB45AD416B420D0405996A
:1019A0002D0C8C467F196744FD18A8465D462D19FD
:1019B000A542A44193466442A446C344DC448F42FA
:1019C000BF4198459B4193459241A445A4415B4248
:1019D0007F421F43360C52426442BF192243BF1854
:1019E000624638184302D20D039913436A020A4330
:1019F000501E82416146ED0D2A434E023243D90109
:101A000000D4B3E00126500832400243DE073243DF
:101A10005B08224C5444002C62DD510709D00F2092
:101A20001040042805D0101D9042924152429B184C
:101A30000200D90104D580241948E400034054442D
:101A40001848844200DD27E75E075B02D2081F0BBF
:101A5000630516435B0DB2E6002399460133042764
:101A600000269B4664E60323019781460C279B468C
:101A70005EE6012201201743002276E603230320BD
:101A80001F43434671E6C046FF07000001FCFFFF0D
:101A90003C6B0008FFFF0F800DFCFFFFFF03000001
:101AA000FFFFFFFEFE0700000023802700933F0397
:101AB0000026434B83E6019B3200A446584670E65D
:101AC000AC466EE6802701993F0339422DD03B4258
:101AD0002BD11F433F033F0B00951600384B6EE69A
:101AE00001252D1B382D00DD66E61F2D40DC354815
:101AF0001C005044160082408440EE40501E82413B
:101B000034431443EB40620709D00F222240042AD9
:101B100005D02200141D9442804140421B181A0235
:101B20003ED501230027002649E68027019B3F037D
:101B30001F433F033F0B0094214B40E603005A46EE
:101B4000283B9A40002601926DE6584600F01AFDA7
:101B5000203057E603005246283B9A4013000022EB
:101B600093E6504600F00EFD20307BE6CA4650E773
:101B70001F201E004042041BE640202D03D0124CC3
:101B80005444A3401A43501E824132430726002783
:101B9000164009D00F200023104014000428B9D1AA
:101BA00022005E075B021F0BD2081643002306E6E5
:101BB00080273F031F433F033F0B1600004BFEE50A
:101BC000FF0700001E0400003E040000F8B5574661
:101BD0004E464546DE460C000903E0B5490A460F6D
:101BE0005F0031431E03DB0F760A9B46530F3343DE
:101BF000C84E6500C000E40FD2006D0DA2468146BC
:101C00007F0D9C469046B74200D1B9E05B46012665
:101C100073409B46EE1BA34500D183E0002E63DD9D
:101C2000002F00D0B1E06346134300D123E1731EBF
:101C3000002B00D0BAE1861A6346B04280410125EC
:101C4000C91A4042091A0B0200D447E149024B0A63
:101C500098464346002B00D189E1404600F092FCB3
:101C60000300083B1F2B00DD7CE120223000D21A4C
:101C70004146D040994002009E400A439D4200DD0B
:101C80006AE15D1B6B1C1F2B00DD94E1202110001D
:101C90003500C91A8E40DA408840DD40711E8E4101
:101CA000110007222843002506433240002A09D0AC
:101CB0000F233340042B05D0331DB342B641764287
:101CC00089191E000B0200D43DE26A1C914B550598
:101CD0006D0D9A4200D119E18F4AF6080A40570764
:101CE00052023743120B9BE0002E00D0C5E06E1C61
:101CF0007605760D012E00DC48E16746861ACB1B7F
:101D0000B042BF417F42B8461F004346FF1A3B0026
:101D1000B8461B0200D55FE137439AD10022002468
:101D2000002579E0002E00DCFAE0002F00D18DE0E4
:101D3000784B9D4267D0802367461B041F43BC46F7
:101D4000382E00DC52E1634613435A1E93411E189D
:101D500086428041404209180B0200D4BEE06D4B20
:101D600001359D4200D1D2E06B4A73080A4001213F
:101D70000E401E435108D30707221E43324095E709
:101D80001E00164300D045E740E7624B9D423AD023
:101D9000802367461B041F43BC46382E00DDEBE062
:101DA0001F2E00DC3AE133006746203BDF403B005A
:101DB000202E05D04027BF1B6646BE4032439046CA
:101DC0004646721E96413343DAE0002B00D114E2FE
:101DD0006346134300D168E180234E07C008C90859
:101DE0001B030643194208D06046C008184204D1BC
:101DF00063460100D2085E071643F3009946C90006
:101E0000720F444D11434B46DE08424B4F07374398
:101E1000CA089D4200D16EE012036D05120B6D0DD4
:101E200000211203130B0A0D12051A433B4B2D051B
:101E300013402B435B00E4075B0823433800190081
:101E40003CBC90469946A246AB46F8BD6346134358
:101E500011D0731E002B00D007E186188642804106
:101E600061444042091801250B0237D502257BE762
:101E70003E00614691463500C5E75C46002D00D026
:101E8000E1E00B000343F3D0731C00D1ACE1214B24
:101E90009F4200D13AE1F343382B00DD6FE11F2B65
:101EA00000DD8CE120250E00ED1AAE40B0460600A4
:101EB000AA46DE40454635432E005546D940A84047
:101EC0006346451EA8415B1A9C463043161AB2422F
:101ED000924163465242991A3D00B4E607223240CD
:101EE000002A00D0E4E60B4BF6084F073743CA0838
:101EF0009D4200D090E73B00134300D1A6E1802330
:101F00001B031A431203120B024D89E7150000222E
:101F1000002785E7FF070000FFFF7FFFFFFF0F801F
:101F2000002E00D0C7E06B1C5E05760D012E00DC94
:101F3000F0E0C84DAB4200D1B9E085180A008542F7
:101F400089416244494251180722CE076D082E4349
:101F5000490832401D00A9E6BF49ED1A1140072289
:101F60003240A3E6320028388240002686E6300060
:101F700000F008FB203073E6634613435A1E93417A
:101F8000C61AB04280414042091A5CE60E0067461C
:101F900006431743002D5ED1002E00D0F3E0002F42
:101FA00000D11EE15C46614691462CE7A94FBE4236
:101FB0007BD01E00F1E610001F3DE840202B03D02F
:101FC0004021CB1A9A401643731E9E4107220643B6
:101FD00032400021002583E7161A6346B242804151
:101FE000591A40420B1A98465C4632E61F2E00DD15
:101FF000ABE02027BB1B9A4663465746BB40994639
:1020000013004F46F3401F433B005746BA40571E4C
:10201000BA4113436246F240891898E62027BB1B59
:102020009A4663465746BB40994613004F46F340D5
:102030001F433B005746BA40571EBA4113436246FE
:10204000F240891A9CE7834B9F425FD080252D0484
:102050007342294320E7002E0CD1002F00D1D0E09D
:102060005C46614691467B4DCDE67A4FBE421CD020
:102070001E0065E6002F18D0C0084E0706438020DA
:10208000C9080003014208D06346DC08044204D1B9
:102090002100DA46D2085E071643F3009946012470
:1020A0005346C900720F11431C406A4DABE61D0038
:1020B00000220027B4E6002D59D10B00034300D1C4
:1020C000D6E6731C00D1B2E0624B9F421ED0F343B0
:1020D000382B6FDC1F2B00DD97E020250E00ED1A5A
:1020E000AE40B0460600AA46DE40454635432E00C7
:1020F0005546A840D940451EA8418C440643B61811
:1021000096429241514261443D0025E63D006146C0
:10211000914678E60B000343002D00D055E6002BD6
:10212000F5D06346134300D16DE6861886428041A0
:1021300061444042091800220B0200D4D0E6464B0D
:1021400001351940B2E5B1465DE633006746203BF4
:10215000DF403B00202E05D04027BF1B6646BE4017
:10216000324390464646721E96413343EFE5394B63
:102170009F42CBD080252D0473422943A8E7084312
:10218000411E8841A2E6002F00D13CE66346861A34
:10219000CF1AB0429B415B42FB1A98461B024ED5B8
:1021A000161A6346B2429241591A5242891A5C4643
:1021B00000227BE501430E00711E8E419FE71D004A
:1021C0000E00203DEE40B046202B04D04025EB1AF7
:1021D00099400843814648464346411E884118437A
:1021E00074E60022002417E6161A6346B2429241B2
:1021F000591A5242891A3D0025E561469146154D0E
:1022000001E680220024120379E61D000E00203D25
:10221000EE40B046202B04D04025EB1A99400843ED
:1022200081464E464346711E8E411E4367E786181F
:1022300096429B4161445B42C9183D008CE547468C
:102240003743CED007224146324049E600273A00C4
:10225000E6E5C046FF070000FFFF7FFF70B50C4EAC
:102260000D031C0349005B002D0B490D240B5B0D76
:10227000B14208D0064900208B4203D1144320000C
:10228000441EA04170BD05430120002DFAD1F1E7A5
:10229000FF07000030B5144D0A034B00120B5B0D15
:1022A000C90F0024AB4211DD104CA34210DC802486
:1022B000640322430E4CE41A1F2C0CDD0D48C31A94
:1022C000DA4013005C42002900D11C00200030BD20
:1022D000094BCC18FAE7094DE040AC4663449A40FC
:1022E00013000343EEE7C046FE0300001D04000098
:1022F0003304000013040000FFFFFF7FEDFBFFFF2E
:1023000070B500282DD0C317C5185D40C40F280034
:1023100000F038F9154B1B1A5B055B0D0A2815DD1B
:102320000B38854000222D032D0B002110002D03BA
:102330000A0D2D0B12052A430D4D1B052A40134390
:102340005B00E4075B082343190070BD020029000D
:10235000153291400A000B21081AC5402D032D0BA0
:10236000E3E70024002300250022DEE71E0400002E
:10237000FFFF0F8010B5041E25D000F003F9144BA9
:102380001B1A5B055B0D0A2812DD0B388440002206
:102390002403240B0021100024030A0D240B120532
:1023A00022430C4C1B05224013435B00590810BD0F
:1023B00002002100153291400A000B21081AC44086
:1023C0002403240BE6E7002300240022E2E7C046B2
:1023D0001E040000FFFF0F804100090E4B1C70B56A
:1023E000DBB24602750AC40F012B14DDE0239B000B
:1023F0006D07360BCB1800210A0D280012051C4D65
:1024000032435B052A405B0813435B00E4075B082B
:102410002343190070BD002914D1002D1ED02800BF
:1024200000F0B0F80A281CDC0B232A001B1ADA4043
:10243000030015339D400F4B12031B1A5B05160B4F
:102440005B0DD8E7002D06D0320B802636036D07D2
:102450001643094BCFE7084B0026CCE700230026A4
:10246000C9E703002A000B3B9A400025E3E7C0467A
:10247000FFFF0F8089030000FF070000F0B54C004C
:10248000640D0B03621C5B0A460F5205C90F1E4305
:10249000C500520D012A29DD374BE718FE2F1CDC41
:1024A000002F3BDD8001431E98410722F3006D0F92
:1024B00003432B431A40002A04D00F221A40042A57
:1024C00000D004338022D2041A4024D00137FAB25B
:1024D000FF2F02D09B01580A01E0FF22002040029A
:1024E000D205400AC90710430843F0BD3543002C0C
:1024F00004D1002D0AD100220020F0E7002DECD0FD
:102500008020C0033043FF22E9E7002400235B0260
:10251000580AE2B2E3E7DB083C00F8E73B00173378
:10252000F3DB80231B0433431E26F61B1F2E14DD12
:1025300002225242D71B1A00FA401700202E04D064
:102540000E4A94466444A3401D432B005D1EAB41DC
:1025500007223B431A400027ADE7094A2800A2188A
:10256000954093406C1EA541F04007222B43034346
:102570001A4000279FE7C04680FCFFFFA2FCFFFF38
:1025800082FCFFFF1C2101231B04984201D3000C95
:1025900010391B0A984201D3000A08391B099842D6
:1025A00001D30009043902A2105C40187047C046EC
:1025B000040302020101010100000000000000000C
:1025C00070B500260C4D0D4C641BA410A64209D119
:1025D000002604F075FA0A4D0A4C641BA410A642AA
:1025E00005D170BDB300EB5898470136EEE7B30054
:1025F000EB5898470136F2E79C6E00089C6E000885
:102600009C6E0008A06E000803001218934200D1CF
:10261000704719700133F9E7F0B58BB014001D1E37
:10262000129953DA802424061B191D0014002D234F
:102630000B702023149E03229E43462E07D03300A6
:10264000453B59424B411099013ACB18109309ABC5
:10265000049308AB0393139B00920293109B2200F8
:1026600001932B0000F0BCFC0700472E02D1119B08
:10267000DB0724D5109BFB180793462E14D13B781B
:10268000302B0CD10022002320002900FDF7D4FEBE
:10269000002804D10123109A9B1A139A1360139BEC
:1026A000079A1B68D31807930022002320002900F3
:1026B000FDF7C2FE302200280DD0079B0993380099
:1026C000099B159ADB1B13600BB0F0BD0023AFE72D
:1026D000591C09911A70099B07998B42F8D3EEE7B0
:1026E000F0B5831C85B0019306000C0002702B230B
:1026F000002901DA2D234C427370092C22DD02AB34
:10270000DD1D20000A21FDF781FE6F1E303139707A
:1027100020000A21FDF794FD040009280BDC023D8E
:102720003034019B2C7002AA07321800AA4204D848
:10273000801B05B0F0BD3D00E3E72A7801351A7033
:102740000133F0E73023E418B370301DF470EFE785
:10275000F0B595B00C000A920B931A9D099001F008
:102760001FFA036818000C93FDF7CEFC00231293A8
:1027700023680E900D930D99277E2B680722C905BB
:1027800045D59B1893431A0008322A601A685B6883
:10279000A264E3640122E56CA66C6B005B080F93F6
:1027A0005242AC4B30000F99FFF758FD002830D152
:1027B0000122A84B524230000F99FDF74DFE002830
:1027C00027D10022002330002900FDF73BFE00281E
:1027D00003D023002D2243331A709F4D472F00D87A
:1027E0009E4D032300260D9A236101339A432260F4
:1027F0000B9B13AA009321000A9B099800F0F4F99F
:10280000431C00D093E00120404215B0F0BD0733D7
:10281000B8E732002B0030002900FFF71FFD002829
:1028200004D08F4D472FDCD88E4DDAE780230D99E9
:102830006268DB000B43511C43D10732626012AA6D
:102840000021059211AA039223222360069101938D
:1028500008A9636852180292009332002B00049773
:102860000998FFF7D9FE20233A0005009A43472A2A
:1028700007D1119BDA1C02DB6268934245DD023FFF
:10288000FFB21199652F25D8200001393A00503048
:102890001191FFF725FF129A060013182361012AF0
:1028A00002DC2268D20701D501332361232308AA61
:1028B0009B181B78002B9BD023002D2243331A70CA
:1028C00096E7672F00D176E1472FB8D1002AB6D11D
:1028D0000122B3E7662F19D1636800290CDD21615D
:1028E000002B02D12268D20702D501335B18236185
:1028F000119B0026A365D9E7002B03D10122216893
:10290000114200D09A1C2261F2E76727119B129AAC
:10291000934205DB22682361D207E9D50133E6E75C
:102920000121002B01DC4918C91A5218EBE7226873
:10293000530508D423692A000A9909980B9DA847D2
:10294000431C29D15FE7652F00D8E0E0A06CE16C63
:1029500000220023FDF770FD002834D00123424AF5
:102960000A9909980B9DA847431C00D14BE7119B7E
:10297000129A934202DB2368DB070DD50B9D0E9B59
:102980000C9A0A990998A8470025431C00D13AE7F8
:10299000129B013BAB420ADC23689B0700D508E190
:1029A000139BE068984200DB2FE718002DE7220018
:1029B00001231A320A9909980B9EB047431C00D193
:1029C00021E70135E4E7119B002B2DDC0123264A8A
:1029D0000A9909980B9EB047431C00D113E7119B3D
:1029E000002B05D1129B002B02D12368DB07D3D526
:1029F0000B9E0E9B0C9A0A990998B0470026431C1F
:102A000000D100E7119B5B42B34201DC129B92E7CD
:102A1000220001231A320A9909980B9FB847431CD8
:102A200000D1F0E60136EDE7A36D129F9F4200DD75
:102A30001F00002F08DD3B002A000A9909980B9E11
:102A4000B047431C00D1DEE600230D93FB43DB17A8
:102A50000F9318E0FFFFEF7F846B0008806B000886
:102A60008C6B0008886B0008906B00082200012323
:102A70001A320A9909980B9EB047431C00D1C2E64E
:102A80000D9B01330D930F9BA66D0D9A3B40F31ADE
:102A90009342EBDC119B129AAD19934210DB236831
:102AA000DB070DD4129F119BBE1BFF1AB74200DD3E
:102AB0003700002F0DDCFE43F31700250C931CE0BC
:102AC0000E9B0C9A0A9909980B9FB847431CE9D1B1
:102AD00099E63B002A000A9909980B9DA847431CD8
:102AE000E9D190E6220001231A320A9909980B9E37
:102AF000B047431C00D186E60135119A129B0C9910
:102B00009B1A3A000A409B1AAB42EBDC44E7129B4B
:102B1000012B02DC01231A4232D001232A000A9938
:102B200009980B9FB847431C00D16CE60E9B0C9A8A
:102B30000A9909980B9F0135B847431C00D162E6FA
:102B4000A06CE16C129B00225F1E0023FDF774FC59
:102B50003B00002814D000250AE0220001231A328D
:102B60000A9909980B9FB847431C00D14BE60135E1
:102B7000129B013BAB42F0DC220033005032DBE61B
:102B80002A000A9909980B9DA847431CF4D13AE6FC
:102B90002200012319320A9909980B9EB047431C61
:102BA00000D130E60135E368139A9B1AAB42EFDCA3
:102BB000F6E60025F7E7002A00D189E60021069114
:102BC00012A9059111A90391232108A809182360CE
:102BD000019300922B000497029132000998FFF7AD
:102BE0001BFD050045E6C046F7B5150001938A6850
:102BF0000B6900900C00934200DA130022002B6056
:102C000043321278002A01D001332B6023689B06DF
:102C100002D52B6802332B60062723681F4027D07C
:102C2000230043331B785A1E93412268920630D406
:102C30002200019943320098089EB047431C25D0DA
:102C4000062320682A68E16803400025042B03D18D
:102C50008D1AEB43DB171D40A3682269934201DD07
:102C60009B1AED180027BD4220D1002010E001374B
:102C7000E3682A689B1ABB42D2DD22000123193285
:102C800001990098089EB047431CF0D101204042B2
:102C9000FEBD3020E1184331087021005A1C453137
:102CA0000978A218433202331170C1E722000123D0
:102CB0001A3201990098089EB047431CE6D00137AC
:102CC000D1E70000F0B589B004920A0043320593C1
:102CD000039002920A7E0C000E9B6E2A00D186E0C1
:102CE0001FD8632A33D008D8002A00D18CE0582A94
:102CF0004DD0250042352A7030E0642A01D0692A7F
:102D0000F7D1196825680A1D280629D508681A60B0
:102D1000002803DA2D23029A404213706B4E0A27D3
:102D20004FE0732A74D008D86F2A1FD0702AE0D1E0
:102D3000202209680A43226003E0752A16D0782A07
:102D4000D7D12200782145321170614E22E0250052
:102D50001A684235111D196013682B70012365E054
:102D600008681A606906D3D500B2D1E719682568EA
:102D7000081D186008682E0605D5544E08276F2ACE
:102D80001BD00A2719E06D06F7D580B2F5E745316B
:102D90004E4E0A7018682268011D006819601506F9
:102DA00021D5D30702D520231A43226010270028FB
:102DB00003D1202322689A43226023000022433358
:102DC0001A706368A360002B58DB042221689143CA
:102DD0002160002854D1029D002B5AD02500337861
:102DE00042352B7055E05506DBD580B2D9E71A681D
:102DF0000D68101D4969186013682E0601D5196009
:102E000002E06D06FBD519800023029D23614FE08F
:102E10001A68111D1960156800216268280000F009
:102E2000D5FE002801D0401B606063682361002349
:102E3000029A13703CE023692A0004990398059DC7
:102E4000A847431C3ED023689B0715D4079BE06826
:102E5000984239DA180037E0220001231932049928
:102E60000398059EB047431C2CD00135E368079AB0
:102E70009B1AAB42F0DCE9E70025F7E70028ADD06C
:102E8000029D3900FDF7D8F9735C013D2B700028D5
:102E9000F7D1082F09D12368DB0706D563682269BB
:102EA000934202DC3023013D2B70029B5B1B2361AC
:102EB000059B07AA00932100049B0398FFF794FE4B
:102EC000431CB8D10120404209B0F0BD926B00080C
:102ED000A36B0008F0B503690C6989B00700059180
:102EE0000026A34265DB0B00013C1433A5000393CD
:102EF0005B1904930300143302935D19049B286843
:102F00001B68591C0193FDF711F90190B04229D0BB
:102F1000039B02989C460696624608CA9446019A0C
:102F200099B251431B0C534389190A0C9B18079300
:102F30001E0C036889B29AB2069BD2180368521A13
:102F4000190C6B469B8BCB1A11145B18191492B297
:102F50001B041A43049B069104C06345DCD22B6812
:102F6000002B2DD00599380001F058F800281FDB00
:102F70000025019B0298013303990193026808C957
:102F800092B255199AB2AA1A05681B0C2D0CEB1AAD
:102F900015145B191D1492B21B04134308C0049B43
:102FA0008B42EBD2029AA300D3181A68002A11D0E0
:102FB000019E300009B0F0BD2B68002B04D1013C0C
:102FC000029B043DAB42F7D33C61CBE71A68002A71
:102FD00004D1013C029A043B9A42F7D33C61E7E7F3
:102FE000F0B516001F00446A9BB00290239D069620
:102FF0000797002C08D1102000F0DEFD029B5862DC
:10300000446084600460C460029B5B6A19680029A4
:103010000BD05A68012393404A608B60029800F0FD
:1030200021FE0022029B5B6A1A60002F20DA012336
:103030002B607B005B080793079CB24B2200179321
:103040001A409A4217D1B04B229A1360069B002B6C
:1030500003D1240301D100F087FDAC4B249A0893DF
:10306000002A02D0AA4B249A136008981BB0F0BD26
:1030700000232B60E0E7069E079F0022002330001C
:103080003900FDF7D9F9051E0BD00123229A1360F0
:10309000A04B249A0893002AE7D09F4A24990A60FB
:1030A000E3E718AB019319AB009332003B000298A1
:1030B00001F032F8630003905B0D74D03A03974C33
:1030C000120B14432100964A300016959E180022D8
:1030D000944BFEF77BFD944A944BFEF705FB944A14
:1030E000944BFDF7DBFB040030000D00FFF708F9FF
:1030F000914A924BFEF7F8FA02000B0020002900DB
:10310000FDF7CCFB04000D00FFF7C4F80022070018
:10311000002320002900FDF795F9002809D0380088
:10312000FFF7EEF82B002200FDF786F943425841E5
:103130003F1A01231493162F0DD88149FB00C9189B
:1031400008684968069A079BFDF790F9002846D061
:103150000023013F1493189B9E1B00230A93330006
:10316000013B0B9304D501239B1B0A9300230B9374
:10317000002F36DB0B9B1197DB190B930023049375
:10318000209B0124092B00D984E0052B02DD0024BB
:10319000043B2093209B981E032800D984E0FCF771
:1031A000BBFF7577286A189B199A9E18654BF21811
:1031B000202A0FDD40239B1A9C40634B0698F3188E
:1031C000D8402043FFF7D6F80123604C013E09198F
:1031D00016937CE7202306989B1A9840F2E71490F8
:1031E000B9E70A9BDB1B0A937B42049300231193EC
:1031F000C6E701230D93219B002B59DD0C93099306
:10320000029A556A00226A6004321000143069681C
:10321000984252D9029800F0EDFC029B28605B6A4C
:103220001B680893099B0E2B00D90AE1002C00D1E2
:1032300007E1069B079C12931394002F00DC89E0A2
:103240000F213A003E4B0A40D2009B181D685E6871
:1032500002233C110E93E3060BD53D4B0C401A6A3A
:103260005B6A12981399FDF735FE032306900791C8
:103270000E9300233AE001230D93219BFB180C933E
:1032800001330993002BBBDC0123B9E70023B1E72D
:103290000023F1E700230D942093013B00220C93BF
:1032A000099313332192ABE701230D93023BF5E71A
:1032B00001230C9309931A00F4E70131696052006D
:1032C000A3E701231C420ED00E9B214A01330E932B
:1032D000109B2800DB009B1831001A685B68FEF722
:1032E00003FA05000E00109B641001331093002CAC
:1032F000E7D1069807992A003300FDF7EBFD069009
:10330000079142E00000F07F0F270000BD6B00082E
:10331000C06B0008906B0008916B00080000F03F44
:1033200001FCFFFF0000F83F61436F63A787D23FB6
:10333000B3C8608B288AC63FFB799F501344D33FA4
:10334000F06B00083204000012040000000010FEC0
:10335000C86B000802230E93002F16D01298139901
:103360007C420D332340CE4ADB00D3181A685B68D9
:10337000FEF7BAF9002301261D00069007912411DB
:10338000002C00D08CE0002BB9D1149B002B00D175
:1033900096E0069C079D0022C24B20002900FDF705
:1033A00051F8002800D18BE0099B002B00D187E069
:1033B0000C9B002B41DDBC4B002220002900FEF7B6
:1033C00093F90E9B0690079101330E930C9B7E1E82
:1033D0000E981093FEF794FF069A079BFEF784F968
:1033E0000022B24BFDF75AFAB14A0E900F910E9C93
:1033F0000F9D94460F9B634415931D00109B002B5B
:1034000061D1069807990022AA4BFEF7DFFB220044
:10341000159B06900791FDF729F8002800D0A8E237
:10342000A5480F99844661440B000698079922002D
:10343000FDF708F8002800D095E2129B139C069334
:103440000794199B002B00DA5CE10E2F00DD59E197
:10345000934BFA009B185C681B6804930594219BAE
:10346000002B00DBD8E0099B002B00DDD4E000D06E
:103470007DE20498059900228E4BFEF735F9069AF5
:10348000079BFCF7FDFF099B04931E00002800D05A
:103490004FE2089B089A5D1C3123013713704BE201
:1034A00034420AD00E9B854A01330E93EB009B18E1
:1034B0001A685B68FEF718F93300641001355FE79E
:1034C0003E00099B84E7109B0D995A1E744BD20055
:1034D0009B181A685B68002949D000207849FDF7DD
:1034E000F9FC2B002200FEF771FB089B0E900F9158
:1034F000159306980799FEF7CDFE0400FEF700FF2E
:1035000002000B0006980799FEF760FB159B30340C
:103510005D1C1C700E9A0F9B06900791FCF792FFA2
:1035200000286CD1069A079B00205E49FEF74EFBEF
:103530000E9A0F9BFCF786FF002800D0C3E0089B83
:10354000109AEB1A9A4200DC77E70E980F99002246
:10355000554BFEF7C9F800220E900F910698079977
:10356000514BFEF7C1F8159506900791C1E7200071
:103570002900FEF7B9F8089C109A230094460E9093
:103580000F916344159306980799FEF783FE050093
:10359000FEF7B6FE0B00020006980799FEF716FB31
:1035A0003035159B2570013406900791A3422AD12E
:1035B0000E980F99089A109B9446634400221D00B0
:1035C0003F4BFDF76BF902000B0006980799FCF7DB
:1035D0004DFF002800D076E00E9A0F9B002038495E
:1035E000FEF7F4FA02000B0006980799FCF72AFF91
:1035F000002800D121E76B1E1A78302A01D037004D
:103600003FE01D00F7E7069807990022264BFEF7DA
:103610006BF806900791B6E7089E049A059B0698FA
:103620000799FDF757FCFEF735FE0400FEF768FE2C
:10363000049A059BFEF758F802000B0006980799BC
:10364000FEF7C4FA230030333370099A089B751CC7
:10365000EB1A9A4248D102000B00FDF71FF9049AB9
:10366000059B06900791FCF701FF00282AD1049AD8
:10367000059B06980799FCF7DFFE002801D0E307B9
:1036800020D40399029800F0EDFA00232B70229BBE
:1036900001371F60249B002B00D1E6E41D60E4E4A9
:1036A000F06B00080000F03F0000244000001C40C8
:1036B0000000C0FC000014400000C07CC86B000883
:1036C0000000E03F3E006B1E1A78392A06D1089AA6
:1036D0009A4207D130231370130001361A78013251
:1036E0001A708CE71D00EEE70022A44BFDF7FCFFEB
:1036F00000220023069007912E00FCF79DFE002873
:103700008BD0BEE70D9A002A00D1DAE0209A012A78
:1037100000DDBDE0169A002A00D1B5E0984A9B185A
:10372000049D0A9C0A9A0121D2180A920B9A0298C7
:10373000D3180B9300F036FB0600002C0EDD0B9B1C
:10374000002B0BDD0B9A2300944200DD13000A9A34
:10375000E41AD21A0A920B9AD31A0B93049B002BE9
:103760001FD00D9B002B00D1AFE0002D11D03100F8
:103770002A00029800F0AEFB039A010006000298AE
:1037800000F019FB03991090029800F06BFA109B5F
:103790000393049B5A1B04D00399029800F09AFBF0
:1037A00003900121029800F0FDFA119B0490002B78
:1037B00000D1E3E11A000100029800F08BFB209B8E
:1037C0000490012B00DD82E00025069BAB420ED168
:1037D000079B1B03AB420AD1179B079A134206D0E3
:1037E0000A9B013501330A930B9B01330B93119B09
:1037F0000120002B6CD10B9B18181F2318407ED082
:1038000001331B1A042B70DD1C23181A0A9B241881
:103810001B180A930B9B1B180B930A9B002B05DDAF
:103820001A000399029800F0A7FB03900B9B002B52
:1038300005DD1A000499029800F09EFB0490149B89
:10384000002B5ED00499039800F0E8FB002858DABA
:1038500000230A220399029800F01DFA0D9B013FF4
:103860000390002B00D190E1002331000A2202983E
:1038700000F011FA0C9B0600002B00DD88E0209B75
:10388000022B00DC84E044E03623189A9B1A47E7B9
:10389000099B5D1E049BAB4208DB5D1B099B002B53
:1038A0000CDA0A9B099A9C1A00233BE7049B0495B7
:1038B000EA1A119B00259B181193EFE70A9C099BBC
:1038C00030E7049D0A9C0D9E37E7049A64E70025C3
:1038D000049B049A1B69109303339B00D318586808
:1038E00000F017FA2023181A85E7042B95D00A9ABE
:1038F0001C33D2180A920B9AE418D3188CE70300F1
:10390000F5E7099B002B3DDC209B022B3ADD099B50
:103910000C930C9B002B0CD104990522029800F00B
:10392000BAF904900100039800F078FB002800DD4C
:10393000AFE5219B089DDF4300230993049902987A
:1039400000F090F9002E00D19BE6099B002B05D0DA
:10395000B34203D01900029800F084F931000298B4
:1039600000F080F98DE6109B04931E00E1E7002330
:10397000FAE7109B370004931E008AE500002440FC
:10398000330400000D9B002B00D1B2E0099B0C9387
:10399000002C05DD31002200029800F0EDFA06004F
:1039A0003000002D11D07168029800F023F9310029
:1039B000040033690C319A1C92000C3000F011F9AC
:1039C00001222100029800F0D7FA09960600089B10
:1039D0000A9304990398FFF77DFA09990D90040062
:1039E000039800F01BFB320010900499029800F03D
:1039F0002FFB01230B93C36830340500002B04D147
:103A00000100039800F00AFB0B902900029800F0D7
:103A100029F90B9B209A13430ED1069A01331342C6
:103A20000AD1392C26D0109B002B01DD0D9C31349E
:103A30000A9B5D1C1C7081E7109B002B07DB1D009F
:103A4000209B1D4322D10123069A13421ED10B9BBA
:103A5000002BEDDD03990122029800F08DFA049904
:103A6000039000F0DBFA002802DCE1D1E307DFD5A8
:103A7000392CDBD10A9B0A9A5D1C392313706B1E0B
:103A80001A78392A67D001321A7057E70A9B5D1CF1
:103A90000B9B002B04DD392CECD001340A9BC9E7C9
:103AA0000A9B0C9A1C70089BEB1A93423ED0002391
:103AB0000A220399029800F0EEF8099B0390B342A2
:103AC00009D100230A220999029800F0E4F809902C
:103AD00006000A957DE7099900230A22029800F062
:103AE000DAF8002309900A223100029800F0D3F896
:103AF000EEE7099B0C93089B069304990398FFF744
:103B0000E9F9069B30305D1C18700C9A089B040084
:103B1000EB1A9A4208DD00230A220399029800F06A
:103B2000BAF806950390E8E7002309930399012268
:103B3000029800F021FA0499039000F06FFA00282F
:103B40009DDC01D1E3079AD46B1E1A78302A00D08D
:103B5000F4E61D00F8E7089A9A4203D131230137B1
:103B60001370EBE61D008AE70B4B249A08930B4B6E
:103B7000002A01D0FFF777FAFFF777FA209B012B95
:103B800000DC21E6119D012035E60C9B002BB2DC08
:103B9000209B022BAFDDBCE6B46B0008BC6B0008B9
:103BA000034B1B68186A002800D10248F0307047A8
:103BB000040000206800002010B5034B01001868C5
:103BC00000F056FB10BDC04604000020C9B28218A8
:103BD000904201D10020704703788B42FBD0013026
:103BE000F6E7002310B59A4200D110BDCC5CC45456
:103BF0000133F8E770B5466A04000D00002E07D1C6
:103C00001020FFF7D9FF6062466086600660C660DC
:103C1000666AF368002B13D0636AAA00DB689B18FE
:103C20001868002818D101210E00AE40721D9200C4
:103C3000200000F0C5FA00280CD0456086600DE039
:103C400021220421200000F0BBFA636AF060DB68E7
:103C5000002BE1D1002070BD02681A6000230361CF
:103C6000C360F8E770B5446A06000D00002C07D168
:103C70001020FFF7A1FF7062446084600460C4609C
:103C8000002D07D0736A6A68DB6892009B181A6877
:103C90002A601D6070BDF7B51E0014239C46070006
:103CA0000C0000200D698C4463461B68013099B2FA
:103CB00063461B6851431B0C534389190E0C9B1917
:103CC00089B21E0C1B045B18614608C18C468542F4
:103CD000EADC002E1BD0A368AB4212DC636838001C
:103CE000591CFFF787FF2100236901909A1C92005D
:103CF0000C310C30FFF775FF21003800FFF7B2FFE1
:103D0000019C2B1D9B00E31801355E60256120009E
:103D1000FEBD0300020C0020824201D11B041030C2
:103D20001A0E01D108301B021A0F01D104301B01F9
:103D30009A0F01D102309B00002B03DB01305B00A6
:103D400000D4202070470722036810B501001A40F4
:103D50000DD001240020234205D10230034203D0BC
:103D6000E34020000B6010BD9B080B60FBE79CB29A
:103D70001000002C01D110201B0CDAB2002A01D156
:103D800008301B0A1A0701D104301B099A0701D118
:103D900002309B08DA07E8D45B0801D00130E4E781
:103DA0002020E0E710B50C000121FFF723FF0123DD
:103DB0004461036110BDF0B50B691400126989B04C
:103DC0000D00934201DA25000C002F69266969680D
:103DD000BB190293AB68BA19934200DA0131FFF7BD
:103DE00009FF0200BB1914329B00D3189C46002126
:103DF0001300049063451DD31435BF00EB19143430
:103E0000B6000593A319039501940793079B0199A5
:103E1000994211D3029B002B06DD04235B429C4494
:103E200063461B68002B51D0049B029A18001A614C
:103E300009B0F0BD02C3DDE7019B1B6898B2002802
:103E40001CD015000026039F02CF2C688BB2434381
:103E5000090C4143A4B21B199B190E002968069551
:103E6000090C71181E0C89190E0C9BB209040B4326
:103E700008C5059BBB42E7D8069B5E60019B1B689B
:103E80001D0C1ED0100000271368039E31680468C3
:103E900089B26943240C0919C9190F049BB23B4329
:103EA000036080CE43683F0C6F439BB2FB18090C44
:103EB0005B18059906901F0C0430B142E6D80699AC
:103EC0004B60019B0432043301939FE7029B013B4B
:103ED00002939FE70323F7B5134005000E0014007B
:103EE000002B08D02249013B9A0052580023310090
:103EF000FFF7D1FE0600A310019336D06C6A002CA8
:103F000007D11020FFF758FE6862446084600460A7
:103F1000C4606F6ABC68002C07D116492800FFF7FF
:103F200041FF00230400B86003600122019B13429B
:103F30000AD0310022002800FFF73DFF07003100C2
:103F40002800FFF78FFE3E00019B5B1001930CD011
:103F50002068002807D1220021002800FFF72BFF4E
:103F60000023206003600400DFE73000FEBDC04690
:103F7000B86C000871020000F0B50D0017002B6945
:103F8000541185B0E3180193013300934968AB687D
:103F90000290009A934235DB0298FFF72BFE002334
:103FA0000200060019001432A3422EDBE343DB17A4
:103FB0001C402B00A40014192A69143392009A188B
:103FC00094461F22174024D00132D21B03920022B4
:103FD00019682000B9400A4304C404CB0399CA40BD
:103FE0009C45F5D84260002A02D0019B0233009321
:103FF000009B0298013B33612900FFF733FE30003C
:1040000005B0F0BD01315B00C3E7980011500133EA
:10401000CAE704CB04C49C45FBD8E9E70A690369F5
:1040200030B59B1A0DD192001430143184188918C0
:10403000043C043925680A68954204D0012395425E
:1040400004D3180030BDA042F2D3FAE75B42F8E790
:10405000F0B50D0085B00700110028001400FFF72F
:10406000DDFF061E08D101003800FFF7C3FD012364
:104070004661036105B0F0BD01230193002804DB14
:1040800023002C001D000023019361683800FFF716
:10409000B1FD2F000022019B2669C3601434B300D8
:1040A000E31802932B6914379B00FB18039303005A
:1040B0009446143320CC04CF0192AAB294446A46A9
:1040C000614692882D0C8A1A0199090C691A1514F7
:1040D00049190D1492B209040A431A60039AAC46B6
:1040E0000433BA42E6D802991A008C4205D3043A46
:1040F0001368002B0ED00661BCE704CC91B261447A
:104100000D14120C5219151489B212040A43AC464C
:1041100004C3E8E7013EEAE7F7B51D0001211400FA
:10412000089FFFF767FD2B036D0006001B0B6D0D4D
:1041300024D10193002C27D068460094FFF703FE9A
:10414000009C00281ED0019B20211A00091A8A40D9
:10415000C340224372610193019CB461631E9C4180
:1041600001343461002D18D0124BED1835232D1871
:104170003D60181A099B18603000FEBD8022520372
:104180001343D6E77461E7E701A8FFF7DCFD0124DC
:10419000019B346173612030E4E7074BC018074B83
:1041A0003860E3189B00F3185869FFF7B2FD64010B
:1041B000201ADFE7CDFBFFFFCEFBFFFFFFFFFF3F36
:1041C0004A4370B51100140000F052F8051E03D0E8
:1041D00022000021FEF718FA280070BD70B5050016
:1041E000002910D00C1F2368002B00DAE4182800E7
:1041F00000F0C0F81D4A1368002B05D163601460FD
:10420000280000F0B8F870BDA34209D921686018F1
:104210008342F3D118685B6841182160EEE7130010
:104220005A68002A01D0A242F9D919685818A04248
:104230000BD120680918581819608242E0D1106823
:104240005268411819605A60DAE7A04202D90C237B
:104250002B60D5E721686018824203D1106852684C
:104260004118216062605C60CAE7C0460C02002011
:10427000032370B5CD1C9D43083506000C2D1ED2BE
:104280000C25A9421DD8300000F074F8254A1468A6
:104290002100002919D1244C2368002B03D13000C0
:1042A00000F044F820602900300000F03FF8431C83
:1042B0002BD10C233000336000F05DF803E0002DBB
:1042C000DFDA0C233360002070BD0B685B1B19D450
:1042D0000B2B03D90B60CC18256003E04B688C4294
:1042E0000DD11360300000F046F8200007220B309B
:1042F000231D9043C31AE7D05A42E250E4E76360BB
:104300000C00EFE70C004968C3E70323C41C9C437F
:10431000A042E1D0211A300000F008F8431CDBD1A4
:10432000C7E7C0460C02002010020020002370B531
:10433000064C05000800236000F02CF9431C03D153
:104340002368002B00D02B6070BDC046C402002043
:1043500082B0002900D101A9101E06D0002B06D082
:1043600013780B601078431E984102B0704702200A
:104370004042FAE7704770470B1E04D0FF2A04D969
:104380008A2303608B3B180070470A700123FAE709
:104390000A4B10B504001868002804D08369002B6C
:1043A00001D101F0F5FE0020132C05D8044BE400E8
:1043B000E258013200D0E01810BDC04604000020D1
:1043C00024020020F8B50500431C09D101F098FE35
:1043D000132406000027201C391CABBE041C3460CB
:1043E0002800F8BDF8B5050001F08AFE1324060088
:1043F0000027201C391CABBE041C28003460F8BD0B
:1044000030B585B001AD0190029103920624201CC5
:10441000291CABBE041C2000FFF7D4FF05B030BD43
:1044200070B50E001500FFF7B3FF041E06D101F0B2
:1044300067FE092303600120404270BD2A0031005D
:104440000068FFF7DDFF431CF7D06368281A1B18CC
:104450006360F2E7F7B50C001600FFF799FF051E41
:1044600007D101F04DFE09230360012464422000BE
:10447000FEBD022E03D901F043FE1623F4E7012E00
:1044800012D14368E418F6D46F462B680A260093CD
:104490007C60301C391CABBE061C3000FFF792FF5D
:1044A0000028E2DB6C60E2E7022EEDD103686F4684
:1044B00000930A36301C391CABBE061C3000FFF7D7
:1044C00081FF2418431CDFD1CFE710B5FFF7C2FFEF
:1044D00010BD30B585B001AD019002910392052465
:1044E000201C291CABBE041C2000FFF76BFF05B08D
:1044F00030BD70B50E001500FFF74AFF041E06D14F
:1045000001F0FEFD09230360012040420FE02A0074
:1045100031000068FFF7DDFF031EF5DB6268281A33
:10452000121862609D4202D10020FFF75BFF70BD50
:1045300037B50224019001AD201C291CABBE041C20
:104540002000FFF73FFF3EBD70B50500FFF720FFDD
:10455000041E06D101F0D4FD09230360012040426E
:1045600070BD013D012D09D8094B9A681B699A421B
:1045700004D101235B4203600020F1E72068FFF7CC
:10458000D7FF0028ECD101235B422360E8E7C04657
:10459000240200200E4A10B511680300002901D141
:1045A0000C49116069461068C3188B4206D80A4945
:1045B0000A4C0968A14208D08B4206D901F0A0FD3F
:1045C0000C2303600120404210BD1360FCE7C0468D
:1045D0001402002018030020D4010020ADDEFECA22
:1045E00070B50C00FFF7D4FE061E06D101F088FD61
:1045F000092303600120404270BD802362689B0153
:10460000134363608023DB0063640C25281C311C8A
:10461000ABBE051C2800FFF7D5FE431CECD0206183
:104620000020E9E770B50C000500582200212000A9
:10463000FDF7EAFF28002100FFF7D2FF70BD70B53B
:104640000D000400582200212800FDF7DDFF2000A6
:10465000002100F013F80400431C0CD081236A6889
:104660001B0213436B602900FFF7BAFF050020000F
:10467000FFF76AFF2C00200070BD0000F0B50D00B0
:10468000002799B00090FB000193294BFA009C5839
:10469000631C38D00137142FF5D101F031FD01240E
:1046A0001823644203603FE00223EC03E40F1D4241
:1046B00000D01C431F4B1D4201D004231C43082380
:1046C0001D4202D0042294431C43009B1800029315
:1046D000FBF71AFD7460B0600124201C311CABBED6
:1046E000061C002E0ADB124BFA009E501300104AE3
:1046F0003C009446002263445A6015E03000FFF706
:1047000071FE040010E0A0232A001B011A4002AE33
:104710009A42C9D131000098FFF791FF431CC3D0E2
:1047200001F0EEFC11230360200019B0F0BDC0467B
:104730002402002001060000F0B585B00090019130
:10474000274800211500FFF799FF04002A000021E7
:104750000098FDF759FF631C15D02000FFF718FEE5
:104760000C260700301C391CABBE061C3000FFF7BE
:1047700029FE032802DD0338A84207DC20000124BB
:10478000FFF7E2FE6442200005B0F0BD03AE042254
:1047900031002000FFF744FE0328EFDD3378532B70
:1047A000ECD17378482BE9D1B378462BE6D1F37876
:1047B000422BE3D1012201992000FFF74BFE002894
:1047C000DCDB2A0000992000FFF72AFE050020000C
:1047D000FFF7BAFE2800FFF7F5FD0400D3E7C04657
:1047E000CF6D0008F7B501240021094E094D01AF36
:1047F0002200380031602C60FFF79EFF002805DDA5
:1048000002223B781C40134034602B60F7BDC04649
:10481000D8010020DC01002010B5044C2368002BD7
:1048200001DAFFF7DFFF206810BDC046DC01002081
:10483000F0B5274B85B001930025032301ACA3609D
:1048400001276560381C211CABBE071C0121214BD0
:1048500049421F602B00204DDA000133A950142B70
:10486000FAD1FFF7D9FF002818D0194B012701937F
:104870000323A36001336360381C211CABBE061CFC
:10488000164B134A1E6003230192A3600533636035
:10489000381C211CABBE041C114B1C60104F3B6824
:1048A000013302D10D4B1B683B600024094B6C6047
:1048B0001B682B60FFF7B0FFA04206D0074BEC60EF
:1048C0001B686C61AB603B682B6105B0F0BDC046F6
:1048D000E56D00081C0200202402002020020020B8
:1048E0001802002070B5FFF753FD0925041E04D1FE
:1048F00001F006FC0560200070BD281C211CABBE29
:10490000041C2000012CF7D001F0FAFB0024060063
:104910001325281C211CABBE051C3560EBE70000ED
:1049200010B50400074B1868FA218900FBF7FEFB5D
:1049300000F066F8012000222100404200F030F82B
:10494000002010BD0000002010B5064A1368402169
:104950000B4313600020FFF7E3FF01F02BFB002067
:1049600010BDC04600200240024A136801331360A4
:104970007047C046C8020020014B18687047C04607
:10498000C802002010B582B00190FFF7F5FF0400C7
:10499000FFF7F2FF001B019B9842F9D302B010BD54
:1049A00070B5002811DB8408134DC034A40062598F
:1049B00003231840C000FC331E008640B243890127
:1049C0000B4083401343635170BDC0B20F220240BD
:1049D000083A920806329200084BD3185D68032407
:1049E0002040C000FF2214008440A54389010A40F2
:1049F00082402A435A60E7E700E100E000ED00E072
:104A000001380A4B98420FD8094A50600948036A96
:104A10001B021B0AC02109060B430362002393609B
:104A200007331360002070470120FCE7FFFFFF0001
:104A300010E000E000ED00E0042805D0054A13680E
:104A400004218B4313607047024A136804210B430F
:104A50001360F8E710E000E0704710B5FFF7FCFFC7
:104A600010BD0000F0B5C64600B5002338E00526AD
:104A700000E00026AE4035003D430234A400584E0D
:104A8000A551584C25684246D4432E0026404A681A
:104A9000D20302D5424615432E00524D2E606D685A
:104AA0002E0026404A68920302D5424615432E0046
:104AB0004C4D6E60AD682E0026404A68D20202D589
:104AC000424615432E00474DAE60ED682C404A68C3
:104AD000920202D542462A431400424AD46001336E
:104AE0000A681400DC4077D001249C4022409046A4
:104AF000F5D04D68022D01D0122D0ED1DD080835FC
:104B0000AD002F5807261E40B6000F22B240974333
:104B10000A69B24016003E432E504D686E1E012EAB
:104B200003D9112D01D0122D12D185685F00032603
:104B3000BE40B5432E00CD68BD4035438560456815
:104B4000A5434A681609012434409C402C43446024
:104B500007685E0003242500B540ED432F404A68F6
:104B60001440B4403C430460C46825408C68B440A1
:104B70002C43C4604A68D200B1D51B4D6C6B012632
:104B800034436C639C08A51CAD00154EAF59032639
:104B90001E40B5000F26AE40B743A026F605B04232
:104BA00000D166E7114EB0420ED0114EB0420DD08A
:104BB000104EB0420CD0104EB0420BD00F4EB0424F
:104BC00000D154E7062655E7012653E7022651E7B0
:104BD00003264FE704264DE704BC9046F0BDC046CF
:104BE0000000014000040140001002400004005099
:104BF00000080050000C005000100050001C005035
:104C0000002A01D1816270478161FCE74369594004
:104C10004161704703689A69920701D500229A6240
:104C200003689A69D20703D49A6901210A439A61F9
:104C300070470000F0B5059C05686868660D802720
:104C4000FF003740054E3E43B0438905890D1204ED
:104C500011430B43234303436B60F0BDFF63FF032A
:104C600070B504000E00150003689B69DB0616D5BD
:104C700023689A69920614D4731CF9D0002E04D0CC
:104C8000FFF77AFE401BB042F2D941232022E254C2
:104C900000232232A354023AA354032018E0002038
:104CA00016E01022DA6123682025DD612000FFF77D
:104CB000B1FF2268536807490B40536004236364C3
:104CC0003D33E55400234222A354023AA354012069
:104CD00070BDC04600E800FE70B504000D0016006F
:104CE00023689B699B071CD4320029002000FFF732
:104CF000B7FF002817D16B1CF2D0002D04D0FFF7AE
:104D00003BFE801BA842EBD9636C202213436364F3
:104D10004123E25400232232A354023AA354032035
:104D200000E0002070BD0120FCE7F8B506000C0093
:104D300017001D0033689B6923401B1B5A425341D7
:104D4000BB4213D16B1CF5D0002D05D0FFF714FE2C
:104D5000069BC01AA842EDD941232022F254002319
:104D60002232B354023AB354032000E00020F8BDCD
:104D700070B505000C0016002B689B699B061AD4C1
:104D8000320021002800FFF76BFF002815D1002C0E
:104D900004D0FFF7F1FD801BA042EDD96B6C2022FF
:104DA00013436B644123EA5400232232AB54023A8A
:104DB000AB54032070BD0020FCE70120FAE700009F
:104DC00070B504000D00160023689B695B072DD4A5
:104DD000320029002000FFF743FF002828D1236874
:104DE0009A69920611D4002D04D0FFF7C5FD801BEF
:104DF000A842E9D9636C2022134363644123E2543F
:104E0000013B0022E254032070BD2022DA612168B8
:104E10004B68084803404B6000236364412162549F
:104E20002232A354023AA3540120EDE70020EBE71D
:104E30000120E9E700E800FE10B5041E59D0412327
:104E4000C35C002B43D041232422E2542268136820
:104E500001218B4313602268274B61680B4013616B
:104E60002268936825490B409360E368012B34D096
:104E7000226884231B02A1680B439360E368022B22
:104E800032D0226851681E4B0B4353602268D368AE
:104E90001A490B40D360236962691343A269120265
:104EA00021681343CB602268E369216A0B431360D6
:104EB0002268136801210B431360002363644122BD
:104EC0001F31A15423630132A354002010BD40338D
:104ED0000022C25401F08EF8B5E7226880231B023D
:104EE000A1680B439360C9E72368802212015A60CE
:104EF000C7E70120EAE7C046FFFFFFF0FF7FFFFFA3
:104F000000800002F0B585B00500039117001E0077
:104F10004123C35C202B00D0A3E02033C35C012BD2
:104F200000D1A1E040230122C254FFF725FD040077
:104F3000802100901923012209022800FFF7F5FEC5
:104F4000002800D092E041232122EA540133113A93
:104F5000EA5400236B646F626E856B636B8D9BB24A
:104F6000FF2B0BD9FF232B857F3B444A00925B0428
:104F7000FF2203992800FFF75DFE1EE06A8D92B2C2
:104F80002A858023D2B23D4900919B0403992800D1
:104F9000FFF750FE11E06B6C042B00D068E001209D
:104FA00060E06A8D92B22A858023D2B200210091FE
:104FB0009B0403992800FFF73DFE6B8D9BB2002BED
:104FC00033D022000A992800FFF786FE0028E2D19C
:104FD0006B6A5A1C6A622A681B7893626B8D013B6C
:104FE0009BB26B852B8D013B9BB22B85002BE4D1B3
:104FF0006B8D9BB2002BE0D000940A9B0022802195
:105000002800FFF792FE002834D16B8D9BB2FF2B56
:10501000C7D9FF232B857F3B002200925B04FF3220
:1050200003992800FFF706FEC7E722000A99280027
:10503000FFF79EFE002804D06B6C042B1CD10120CE
:1050400010E02B682022DA6129684B680C4C234061
:105050004B604123EA5400232232AB54023AAB5452
:1050600000E0022005B0F0BD0220FBE70320F9E7D5
:105070000320F7E70320F5E70320F3E70020008093
:1050800000E800FEF0B585B00500039117001E0092
:105090004123C35C202B00D0A3E02033C35C012B51
:1050A00000D1A1E040230122C254FFF765FC0400B7
:1050B000802100901923012209022800FFF735FE04
:1050C000002800D092E041232222EA540133123A10
:1050D000EA5400236B646F626E856B636B8D9BB2C9
:1050E000FF2B0BD9FF232B857F3B444A00925B04A7
:1050F000FF2203992800FFF79DFD1EE06A8D92B202
:105100002A858023D2B23D4900919B04039928004F
:10511000FFF790FD11E06B6C042B00D068E00120DC
:1051200060E06A8D92B22A858023D2B2002100917C
:105130009B0403992800FFF77DFD6B8D9BB2002B2C
:1051400033D022000A992800FFF73AFE0028E2D166
:105150002B685A6A6B6A591C69621A702B8D013B65
:105160009BB22B856A8D013A92B26A85002BE4D1FD
:105170006B8D9BB2002BE0D000940A9B0022802113
:105180002800FFF7D2FD002834D16B8D9BB2FF2B96
:10519000C7D9FF232B857F3B002200925B04FF329F
:1051A00003992800FFF746FDC7E722000A99280067
:1051B000FFF7DEFD002804D06B6C042B1CD101200E
:1051C00010E02B682022DA6129684B680C4C2340E0
:1051D0004B604123EA5400232232AB54023AAB54D1
:1051E00000E0022005B0F0BD0220FBE70320F9E754
:1051F0000320F7E70320F5E70320F3E7002400800E
:1052000000E800FEF0B54123C35C202B20D1203301
:10521000C35C012B1ED040240122025541252423CA
:1052200043550668336893433360066833680A4F12
:105230003B403360066833681943316001680B688E
:1052400013430B602023435500230355002000E047
:105250000220F0BD0220FCE7FFEFFFFFF0B5412385
:10526000C35C202B1ED12033C35C012B1CD04024F7
:105270000122025541252423435506683368934390
:10528000336006683368094F3B40090219433160B7
:1052900001680B6813430B6020234355002303551B
:1052A000002000E00220F0BD0220FCE7FFF0FFFF3D
:1052B00030B51B4BDB68F022134022D1184A926BA9
:1052C000D2000ED5174A1268C02149010A40C021F8
:1052D00049018A4216D1C0221202904212D1012302
:1052E00010E00F498C6B8022520522438A630D4ADD
:1052F0001268C024640122408C6B0B4D2C408C63DF
:10530000E5E700230948026801218A431A43026045
:1053100002681140994201D0012030BD0020FCE715
:105320000010024000700040FFFFFFEF002002402D
:1053300070B582B004000368DB0740D5CC4BDA6857
:105340000C231340082B32D0C94BDA680C231340CE
:105350000C2B28D0636880225202934257D0A0229F
:10536000D20293425AD0C24B1A68C2490A401A600C
:105370001A68802149020A400192019A1A68BE49BE
:105380000A401A606368002B54D0FFF7F5FA050055
:10539000B74B1B689B0312D4FFF7EEFA401B64283F
:1053A000F6D903206BE2B24BDB68DB03D2D5B04BFE
:1053B0001B689B0303D56368002B00D158E2236868
:1053C0009B075AD5AA4BDA680C231340042B43D011
:1053D000A74BDA680C2313400C2B39D0E368002B61
:1053E00000D1ADE0A2490A680920824313430B6053
:1053F000FFF7C2FA05009E4B1B685B0700D596E0DD
:10540000FFF7BAFA401B0228F5D9032037E2984A81
:10541000116880235B020B431360B3E7944B196858
:105420008022D2020A431A601968802252020A437B
:105430001A60A7E7FFF7A0FA05008D4B1B689B03D6
:10544000BDD5FFF799FA401B6428F6D9032016E270
:10545000874BDB68DB03C1D4854B1B685B0704D536
:10546000E368012B01D0012009E281494B68834A9E
:1054700013402269120213434B602368DB063BD5BD
:105480007B4BDB680C221A4200D080E0784B1B6813
:105490009B0503D5E369002B00D1EBE1606A744BF7
:1054A0005B68E0221202134098425CD9FFF700FFCC
:1054B000002800D0E0E16E4A536871490B40616AF0
:1054C0000B43536053681B021B0A216A09060B43F6
:1054D0005360636A5A0B013280231B029340644A73
:1054E000D16809090F220A4066498A5CD340664A9E
:1054F00013600020FFF714FA23681B0700D492E022
:105500006369002B7CD05A4A136D01210B4313654C
:10551000FFF732FA0500564B1B6D9B0700D582E062
:10552000FFF72AFA401B0228F5D90320A7E15049CA
:105530004B68524A13402269120213434B609CE7A6
:105540004B4A136801218B431360FFF715FA0500DE
:10555000474B1B685B0790D5FFF70EFA401B0228EC
:10556000F6D903208BE1424A536845490B40184362
:10557000506053681B021B0A216A09060B435360E3
:10558000606AFFF795FE0028A3D0012077E1E36968
:10559000002B22D0364A116880235B000B43136036
:1055A000FFF7EAF90500324B1B689B0506D4FFF7AD
:1055B000E3F9401B0228F6D9032060E12C4A536826
:1055C0002F490B40616A0B43536053681B021B0A4F
:1055D000216A09060B4353608EE7254A13682B495D
:1055E0000B401360FFF7C8F90500214B1B689B05B2
:1055F00082D5FFF7C1F9401B0228F6D903203EE10E
:105600001B4A136D01218B431365FFF7B5F90500A4
:10561000174B1B6D9B0706D5FFF7AEF9401B022801
:10562000F6D903202BE123685B0700D48DE0104BF3
:105630009B6BDB0030D40E4A916B80235B050B43E0
:1056400093630125124B1B68DB0527D5A3688022D5
:105650005200934236D0002B4CD1054B1A6D0B49AA
:105660000A401A651A6D0B490A401A6530E0C046B7
:1056700000100240FFFFFEFFFFFFFBFFFFE0FFFF08
:10568000FF1FFFFFE46A000800000020FFFEFFFF8D
:1056900000700040FFFBFFFF0025D3E77A4A116846
:1056A00080235B000B431360FFF766F90600764B1F
:1056B0001B68DB05CAD4FFF75FF9801B6428F6D9A5
:1056C0000320DCE0714A116D80235B000B431365FE
:1056D000A368002B28D0FFF74FF906006B4B1B6D1A
:1056E0009B0530D4FFF748F9801B694B9842F5D9E8
:1056F0000320C4E0A022D200934209D0634B1A6D6C
:1057000064490A401A651A6D63490A401A65DFE761
:105710005E4B196D013AFF3A0A431A65196D8022F2
:1057200052000A431A65D3E7FFF726F90600574BE4
:105730001B6D9B0507D5FFF71FF9801B544B984243
:10574000F5D903209BE0012D21D023689B063CD591
:10575000A369002B21D04D4B99680120014399602A
:105760005A6B02435A634D4A116A80239B010B43D3
:105770001362FFF701F90500444B9B689B0724D493
:10578000FFF7FAF8401B0228F6D9032077E03F4ADA
:10579000936B43490B409363D7E73C4A93680121DD
:1057A0008B4393603D4A136A3E490B401362FFF7F7
:1057B000E3F80500354B9B689B0706D5FFF7DCF83F
:1057C000401B0228F6D9032059E0A36A002B55D0CC
:1057D0002E4AD1680C220A400C2A52D0022B12D039
:1057E0002A4A136830490B401360FFF7C5F80400DC
:1057F000264B1B689B0139D5FFF7BEF8001B02281A
:10580000F6D903203BE0214A136827490B40136077
:10581000FFF7B2F805001D4B1B689B0106D5FFF78B
:10582000ABF8401B0228F6D9032028E01749CB68C3
:105830001E4A1340E26A206B0243606B024313432B
:10584000CB600A6880235B0413430B60FFF794F876
:1058500004000E4B1B689B0106D4FFF78DF8001B5C
:105860000228F6D903200AE0002008E0002006E024
:10587000012004E0012002E0012000E0002002B04D
:1058800070BD0120FBE7C0460070004000100240E0
:1058900088130000FFFEFFFFFFFBFFFF0000014039
:1058A000FFFFFFEFFFDFFFFFFFFFFFFEFFFF02FF36
:1058B00010B5264BD9680C230B40082B42D00C2B7B
:1058C00011D0042B09D0214B5A68520B07231340E7
:1058D000013380200002984010BD1C4B1B68DB0682
:1058E00032D51B48F8E78A0C0F231340194AD05CC5
:1058F000890D032211400131144BDB68DB030DD409
:10590000124B1B68DB0613D54201121A93019B1A36
:10591000DB001B181802FAF709FCDDE74201121A36
:1059200093019B1ADB001B185802FAF7FFFBD3E721
:105930004201121A93019B1ADB001B189802FAF716
:10594000F5FBC9E70448C7E70448C5E70010024073
:1059500000093D00D86A000800127A000024F40013
:1059600070B504000D005F4B1A68012313408B4291
:105970000BD25C490B68012293432B430B600B68ED
:105980001A40AA4201D0012070BD23689B0706D5AA
:10599000554AD368F0218B43A1680B43D360236839
:1059A000DB0764D56368022B09D0032B29D0012BB8
:1059B0002DD04D4A1268920506D40120E4E74A4AE8
:1059C0001268920300D48AE04749CA6803208243E0
:1059D0001343CB60FEF7D0FF06006368022B1CD098
:1059E000032B28D0012B34D03F4BDB680C221A420A
:1059F0003DD0FEF7C1FF801B3C4B9842F4D90320F9
:105A0000C2E7394A12689201DED40120BCE7364A67
:105A100012685207D8D40120B6E7334BDA680C235A
:105A20001340082B23D0FEF7A7FF801B2F4B984273
:105A3000F3D90320A8E72C4BDA680C2313400C2B76
:105A400015D0FEF799FF801B284B9842F3D903200D
:105A50009AE7254BDA680C231340042B07D0FEF796
:105A60008BFF801B214B9842F3D903208CE71D4B01
:105A70001A6801231340AB420BD91A490B68012263
:105A800093432B430B600B681A40AA4201D00120BC
:105A90007AE723685B0706D5134AD36814490B409D
:105AA000E1680B43D36023681B0707D50E49CB6819
:105AB000104A13402269D2001343CB60FFF7F8FE6F
:105AC000094BDA6812090F2313400B4AD35CD84004
:105AD0000A4B18600020FEF723FF002054E7012046
