:020000040800F2
:1000000000500020F93D0008593D00085B3D000804
:1000100000000000000000000000000000000000E0
:100020000000000000000000000000005D3D00082E
:1000300000000000000000005F3D0008613D000876
:10004000493E0008493E0008493E0008493E000874
:10005000493E0008493E0008493E0008493E000864
:10006000493E0008493E0008493E0008493E000854
:10007000493E0008493E0008493E0008493E000844
:10008000493E0008493E0008493E000800000000C3
:10009000493E0008493E0008493E0008493E000824
:1000A000493E0008493E0008493E0008493E000814
:1000B000493E0008493E0008493E0008493E000804
:1000C00010B5064C2378002B07D1054B002B02D02E
:1000D000044800E000BF0123237010BDD8010020B8
:1000E00000000000E45F0008044B10B5002B03D0B3
:1000F0000349044800E000BF10BDC04600000000F6
:10010000DC010020E45F00080023C25C0133002A08
:10011000FBD1581E7047000002B4714649084900DF
:10012000095C49008E4402BC7047C04603B4714666
:10013000490840004900095E49008E4403BC7047ED
:10014000002243088B4274D303098B425FD3030A16
:100150008B4244D3030B8B4228D3030C8B420DD329
:10016000FF22090212BA030C8B4202D312120902B7
:1001700065D0030B8B4219D300E0090AC30B8B42F5
:1001800001D3CB03C01A5241830B8B4201D38B03A3
:10019000C01A5241430B8B4201D34B03C01A524148
:1001A000030B8B4201D30B03C01A5241C30A8B428B
:1001B00001D3CB02C01A5241830A8B4201D38B0276
:1001C000C01A5241430A8B4201D34B02C01A52411A
:1001D000030A8B4201D30B02C01A5241CDD2C3098C
:1001E0008B4201D3CB01C01A524183098B4201D308
:1001F0008B01C01A524143098B4201D34B01C01AF3
:10020000524103098B4201D30B01C01A5241C3086A
:100210008B4201D3CB00C01A524183088B4201D3D9
:100220008B00C01A524143088B4201D34B00C01AC5
:100230005241411A00D20146524110467047FFE731
:1002400001B5002000F0F0F802BDC0460029F7D04B
:1002500076E7704703460B437FD4002243088B4266
:1002600074D303098B425FD3030A8B4244D3030B3D
:100270008B4228D3030C8B420DD3FF22090212BA02
:10028000030C8B4202D31212090265D0030B8B427E
:1002900019D300E0090AC30B8B4201D3CB03C01A68
:1002A0005241830B8B4201D38B03C01A5241430B43
:1002B0008B4201D34B03C01A5241030B8B4201D333
:1002C0000B03C01A5241C30A8B4201D3CB02C01A9E
:1002D0005241830A8B4201D38B02C01A5241430A16
:1002E0008B4201D34B02C01A5241030A8B4201D305
:1002F0000B02C01A5241CDD2C3098B4201D3CB01AC
:10030000C01A524183098B4201D38B01C01A52415A
:1003100043098B4201D34B01C01A524103098B425E
:1003200001D30B01C01A5241C3088B4201D3CB0049
:10033000C01A524183088B4201D38B00C01A52412C
:1003400043088B4201D34B00C01A5241411A00D2DC
:1003500001465241104670475DE0CA0F00D0494245
:10036000031000D34042534000229C4603098B42B5
:100370002DD3030A8B4212D3FC22890112BA030A3D
:100380008B420CD3890192118B4208D389019211BF
:100390008B4204D389013AD0921100E08909C30944
:1003A0008B4201D3CB01C01A524183098B4201D346
:1003B0008B01C01A524143098B4201D34B01C01A31
:1003C000524103098B4201D30B01C01A5241C308A9
:1003D0008B4201D3CB00C01A524183088B4201D318
:1003E0008B00C01A5241D9D243088B4201D34B0033
:1003F000C01A5241411A00D20146634652415B1075
:10040000104601D34042002B00D549427047634655
:100410005B1000D3404201B5002000F005F802BD9A
:100420000029F8D016E770477047C0468446101C74
:1004300062468C46191C634600E0C0461FB501F0B9
:100440005BF9002801D40021C8421FBD10B501F09E
:10045000B5F84042013010BD10B501F04DF900284B
:1004600001DB002010BD012010BDC04610B501F019
:1004700043F9002801DD002010BD012010BDC04659
:1004800010B501F0D5F8002801DC002010BD0120D6
:1004900010BDC04610B501F0CBF8002801DA0020ED
:1004A00010BD012010BDC046002B11D1002A0FD174
:1004B000002900D1002802D00021C943081C07B43C
:1004C000024802A14018029003BDC0465DFFFFFF35
:1004D00003B4684601B5029800F006F8019B9E46F9
:1004E00002B00CBC7047C046F0B557464E46454674
:1004F000DE46E0B5040083B00D00924699468B427B
:100500002FD82CD04946504602F02CF8290006007E
:10051000200002F027F8331A9846203B9B4600D56E
:1005200074E053465A4693401F0053464246934058
:100530001E00AF4229D826D05B46A41BBD41002B2C
:1005400000DA79E0002200230092019301235A4649
:1005500093400193012342469340009319E0824265
:10056000D0D900220023009201930C9B002B01D0D4
:100570001C605D600098019903B03CBC90469946B0
:10058000A246AB46F0BDA342D6D90022002300927A
:1005900001934346002BE8D0FB0772081A434646F6
:1005A0007B080EE0AB4201D1A2420CD8A41A9D41B7
:1005B000012024196D410021013E24184D41002ED7
:1005C00006D0AB42EED9013E24196D41002EF8D180
:1005D0005B460098019900196941002B22DB2B0032
:1005E0005A46D3402A004446E2401C005B461500B0
:1005F000002B2CDB26009E40330026004746BE40E1
:100600003200801A994100900191AEE742462023C2
:100610009B1A5246DA40414613004A468A40170068
:100620001F4382E7424620239B1A2A0046469A40EF
:100630002300F3401343D5E74246202300219B1AB1
:100640000022009101920122DA40019282E74246A3
:10065000202326009B1ADE402F00B44697406646B2
:100660003B003343C9E7C046F8B557464E464546BA
:10067000DE46E0B54702460088467F0A360EC40FC4
:10068000002E47D0FF2E24D0FB008027FF041F43FD
:10069000002399469A467F3E43465D025800DB0F91
:1006A0006D0A000E984643D0FF283BD0EB00802512
:1006B0000022ED041D437F383618731C41469B46CB
:1006C0004B46614013430F2B64D875489B00C358B9
:1006D0009F46002F42D108239946063BFF269A46A3
:1006E000DAE74146022A28D0032A00D1CEE0012AC7
:1006F00000D0ACE0114000200022CCB24002D20574
:10070000400AE407104320433CBC90469946A24669
:10071000AB46F8BD002F15D104239946033B0026B4
:100720009A46B9E7FF200222002DC5D00322C3E775
:10073000002D19D100200122BEE70124FF220C4028
:100740000020DBE7380001F0EFFE7626431F9F40D4
:1007500000237642361A99469A469DE70C2399461D
:10076000093BFF269A4697E7280001F0DDFE431F6C
:100770009D4076235B42181A00229DE780200024CA
:10078000C003FF22BAE73D005246ABE73D0021001F
:100790005246A7E73B0C9C462A04120C2B0C140073
:1007A000604665463F043F0C7C4342435D437B43C8
:1007B000270C9B18FF18BA4203D980235B029C4682
:1007C000654424043A04240C121993015C1EA341CD
:1007D0003F0C920E7D191A43AD0115432B0104D530
:1007E00001235E466A081D40154332007F32002A0D
:1007F00025DD6B0704D00F232B40042B00D00435DC
:100800002B0103D53200274B80321D40FE2A94DC99
:100810000124A801400AD2B20C406FE78020C00337
:10082000074207D0054205D128434002400A44460A
:10083000FF2263E738434002400AFF225EE70124BB
:10084000A31A1B2B05DD0C400022002056E75E4654
:10085000CBE72A002020DA40C31A9D402B005D1E02
:10086000AB4113435A0704D00F221A40042A00D088
:1008700004335A0104D5012401220C4000203DE735
:1008800001249B01580A0C40002237E780200124F4
:10089000C00328434002400A0C40FF222EE7C04616
:1008A00000600008FFFFFFF710B5041E27D001F01D
:1008B0003BFE9E231B1A962B0ADC9622D21A9440EA
:1008C0006402640ADBB26402DB05600A184310BDEF
:1008D000992B17DC9922D21A002A27DD9440220096
:1008E000134C1440510704D00F210A40042A00D0B1
:1008F0000434620112D4A401640ADBB2E3E70023EA
:100900000024E0E7B9222100D21A91400A00511ECA
:100910008A410521091ACC401443DBE7044B1C40F3
:100920009F23A4011B1A640ADBB2CCE72200D7E79D
:10093000FFFFFFFBF8B54546DE4657464E460C0323
:10094000E0B54E00C90F88460D00610A440F0C4304
:10095000C70019035800DB0F9B464B0A510F0B438E
:10096000760D400D1900D200D84500D1AEE0351A01
:10097000002D00DCF6E000280FD1134300D1DBE0AE
:100980006B1E002B00D037E1BA1A9742BF41641AA0
:100990007F42E41B0126170024E0C64B9E424DD047
:1009A00080231B041943382D00DD07E11F2D00DDD6
:1009B00038E12020431B9A460B005046834099465D
:1009C00013004846EB401843030050468240501E37
:1009D0008241E9401A43BA1A611A9742A4411700AA
:1009E00064420C1B230262D56402650A002D00D10B
:1009F000DFE0280001F098FD0300083B1F2B00DD1D
:100A0000D2E020223C00D21A9D40D4409F40254392
:100A10009E4200DDC4E09E1B731C1F2B00DDF1E035
:100A2000202238002900D21AD840914097402C004B
:100A30000143781E8741DC4000260F437B0709D025
:100A40000F233B40042B05D03B1DBB42BF417F42DF
:100A5000E4191F0023022CD5964B01369E4200D18B
:100A60009AE04546944BFF081C40600776056402F7
:100A70000743240B760D00212403230B0C0D8F4A12
:100A800024051C431440330523435B00ED075B083A
:100A90002B43380019003CBC90469946A246AB4611
:100AA000F8BD6446044300D111E2040067467B07A9
:100AB000C6D145466007FF080743E4087D4B9E42C8
:100AC00030D024037605240B760DD4E7331A9A46EA
:100AD000002B78DD002831D076488642AED08020C9
:100AE000000401435346382B00DCE9E00A43511E61
:100AF0008A410021D219BA42BF4109197C4217002C
:100B00000C192302D3D56B4B01369E4200D13AE13A
:100B10000120694B1C407B0807401F43E007074347
:100B200064088BE723003B4300D1CBE18022120312
:100B300014432403240B9EE72E007FE70800104394
:100B400000D1B4E0581E002800D0DEE0BA18BA4246
:100B50009B4164185B42E418170001262302A6D5C6
:100B60000226D5E7002D6ED1701C4005400D0128EE
:100B700000DCF9E0B81A844687428041E51A404219
:100B80002D1A280200D489E0D71BBA4292411C1BBF
:100B90005242A51AD84629E74546002400276AE7AD
:100BA000454CF61A2C4049E73D002838854000277F
:100BB0002EE7380001F0B8FC20301DE70A43511E33
:100BC0008A41002107E7002B00D0F3E0701C4305A9
:100BD0005B0D012B00DCADE0364B984200D1D1E03B
:100BE000BA18BA42BF4164187F42E419E7075208B5
:100BF00017436408060021E72E48854200D193E0A0
:100C00001D00D0E629001F3EF140202B00D18DE0D1
:100C10004022D31A9D402F437D1EAF4100240F4335
:100C2000002644E72B000800203BD8400300202D7D
:100C300000D17DE04020451BA9400A43511E8A4156
:100C400000211A43C7E6002E50D01A4EB04257D0AA
:100C500080266B429946360434434B46382B00DDE0
:100C6000D6E01F2B00DD35E12026F51A2600AE4028
:100C7000B2463E00DE40AC46350056462E43654641
:100C8000AF407D1EAF41DC403743D71BBA42924193
:100C90000C1B5242A41A0600D846A3E664466746D7
:100CA0002C4300D0A2E600250026002706E71E0000
:100CB000C4E6C046FF070000FFFF7FFFFFFF0F8075
:100CC0001F2B63DC2020C31A080098409C468346F3
:100CD00053461000D84003005846184363469A40D4
:100CE000531E9A4153460243D94003E726003E4330
:100CF00006D0EB439946002BC7D0944EB042ACD1FE
:100D00000C0017000600D84698E6904B9A450BD089
:100D10008246E7E6002800D09EE01800104300D18C
:100D2000E9E01C001700D846884E87E6002572E7E8
:100D3000002182E723003B43002E00D0ABE0002BD4
:100D400000D1E7E00B00134300D177E6BA18BA42AE
:100D5000BF4164187F42E419230200D4F2E07C4BC7
:100D600017001C40060069E620003843002ED1D150
:100D700000285BD11C00144300D1A8E01C00170020
:100D8000D8465BE606000024002797E650460B0095
:100D90002038C34099465346202B00D195E040238C
:100DA00050461B1A99400A43511E8A414B46002166
:100DB0001A439FE6002E30D126003E4367D0DB4326
:100DC0009A46002B1CD0614EB04260D05346382B5F
:100DD00000DD96E01F2B00DD9FE02026F31A2600A1
:100DE0009E409C46B34653463E00DE4033005E467E
:100DF0001E4363469F407B1E9F415346DC40374362
:100E0000BF189742924164185242A418060078E62F
:100E100027437C1EA741002437E74C4EB04236D012
:100E200080265B4236049A463443CFE718001043CD
:100E300000D103E6B81A84466745AD41E01A6D4219
:100E4000401B050200D42CE6D71BBA4292411C1B62
:100E50005242A41AD846F1E51800104300D163E7C6
:100E6000F808670707438020E4080003044208D01D
:100E7000DD08054205D1D208590711430F002C00A7
:100E8000D8467B0FE4001C43FF00304ED6E50C0033
:100E900017000600D2E5002B38D00B00134300D119
:100EA00042E7F808670707438020E408000304428C
:100EB000E7D0CB080342E4D1D208490711430F0021
:100EC0001C00DEE700270024D5E500216BE70025A4
:100ED0000027F3E54E462500203EF5404B462E0008
:100EE000202B2DD04025ED1AAC4027437C1EA74176
:100EF00000243743C9E6802400252403134E00272D
:100F0000DCE527437C1EA741002479E70C0017008D
:100F10000E4E93E50C00170090E556462300203E48
:100F2000F34099465346202B0ED0402356469B1B38
:100F30009C4027437C1EA7414B4600241F435FE78C
:100F40000024D2E71700B2E50024F2E7FF07000013
:100F5000FFFF7FFFF0B557464546DE464E46E0B5FB
:100F60004C000E0387B0834692461D008046360B28
:100F7000640DCF0F002C4FD06F4B9C4235D0802397
:100F8000420F1B04F600134333439946C3009846AF
:100F90006A4B00269C460023644403932B031B0BDF
:100FA0009B466B00ED0F50465B0D01955ED0624A8B
:100FB000934253D05A46D1008022400F120402437C
:100FC0000A4393465246D1005C4A94460022634449
:100FD0003800684084460290E41A16430F2E00D968
:100FE000B4E0574BB6009B599F46030033439946E4
:100FF0006CD100239846023308260393CEE7CB46F4
:101000004146039A0197022A65D1019B4A4C9C46AE
:101010000023002298466BE00300334399464ED0EC
:10102000002E00D1BCE1300001F07EFA03000B3B42
:101030001C2B00DDACE11D22D31A5A460100DA4018
:1010400008398E401300334399465B468B409846DF
:1010500000233C4C0026241A03939FE751465A462E
:10106000114329D1002293460232B1E75946014388
:101070001ED05B46002B00D19EE1584601F054FA89
:1010800003000B3B1C2B00DD8FE102005946083AA0
:1010900091408B461D21CB1A5146D9400B00594631
:1010A0000B4351469B469140264B00221B1A8FE76B
:1010B000002301229B468BE75146032288E7002349
:1010C0009846013304260024039367E70323B146BF
:1010D00003930C2662E7032A00D15CE2019B012AFC
:1010E00000D0E4E113409C460023002400229846EF
:1010F00000211203130B0A0D12051A432305124C8B
:1011000040462240134362465B00D2075B0813430C
:10111000190007B03CBC90469946A246AB46F0BDCC
:10112000002380229C4612039846034CE0E70023EC
:10113000014C00229846DBE7FF07000001FCFFFF9F
:10114000406000080DFCFFFFFFFF0F80D94500D96C
:1011500039E100D134E1002346464D469A46013C30
:101160005B460A0E1B021A430B02170C039313046F
:101170001B0C3900280090460193FEF7E1FF0200A6
:10118000019B83465A43280039009146FFF75EF8D9
:10119000350C09040D43A9450DD95B464544013B77
:1011A000A84500D93AE1A94500D837E102235B42BE
:1011B0009C464544E3444B46EB1A3900180004931F
:1011C000FEF7BEFF019B0500434339000498994692
:1011D000FFF73CF8330409041B0C0B43994509D96C
:1011E00043446A1E984500D91AE1994500D817E191
:1011F000023D43444A469B1A5A4612042A43039925
:101200009346100C0A0C914609045A46090C4E46A6
:101210000D001204120C4543059151437243704373
:1012200052190E0CB218954203D980256D02AC46B6
:101230006044150C09041204090C28185218834242
:1012400000D2CEE000D1C8E01D1A53469E1AB24526
:1012500092415242AB1A9A46984500D117E13900A3
:101260001800FEF76DFF019B05004343390050460F
:101270000493FEF7EBFF04980B04310C19438842EA
:1012800009D941446B1E884500D907E1884200D83E
:1012900004E1023D4144049BCB1A18003900049339
:1012A000FEF74EFF019B82464343390004980193A9
:1012B000FEF7CCFF01980B043104090C1943884256
:1012C0000DD953464144013B884500D9E8E08842A6
:1012D00000D8E5E002235B429C464144E244019B86
:1012E0002D04CE1A51462943059D4F462A000B0472
:1012F000080C1B0C5A4345437B4378435B19170C7E
:10130000FB189D4203D980256D02AC4660441D0C3C
:1013100012041B04120C28189B18864200D293E07A
:1013200000D18EE001231943A04BE318002B00DC11
:1013300099E04A0700D09EE05A46D20106D55A46A7
:101340009B4B1A4080239346DB00E318994A934253
:1013500068DD0123029A984C1A400023944698466F
:101360000022C5E680224B46120313420AD05B4698
:10137000134206D11A431203120BAC4688468E4C18
:10138000B6E64B461A431203120BBC468A4CAFE634
:1013900003005A46283B9A4000239146984657E658
:1013A000584601F0C1F8203040E603005246283B81
:1013B0009A400021934677E601F0B6F820305FE6C8
:1013C000884500D2C7E64B46DE075D0843465B080A
:1013D0001E434346DB079A46C2E60025924500D3EA
:1013E00033E7039E5946B446E244B245AD416D42EF
:1013F0004544EB180139984507D2984200D97FE05F
:1014000000D1BCE01D1A8B461FE79845FAD1039D19
:101410005545F2D943468B461D1A16E79B46CAE648
:101420001500E7E65A46C90852070A435B0590468D
:101430005C0D5A460123029952021940120B8C4648
:1014400056E6002B00D16FE746444A1EB04529D925
:101450001100864200D065E7039A934200D061E70D
:1014600062E7012149420120C21A382A21DD029B8C
:1014700003409C4638E60F220A40042A00D15BE76D
:101480000A00111D914292415242934454E7474B46
:10149000E318002BE5DD01225242F2E71D00FAE6D7
:1014A0009A461CE7B04239D86ED011003AE7029351
:1014B0003AE71F2A3CDC20239B1A0C00584699402F
:1014C00098404B1E99415B46D440D340204308438B
:1014D0001A00430709D00F230340042B05D0010055
:1014E000081D88429B415B42D21813023AD5012362
:1014F000029A01241A400023944698460022F7E5F8
:10150000022149428C46039DE344AC46E244AA458D
:10151000AD416D424544ED182D1A96E68A1E039999
:101520004D008D42894149424144761803958FE729
:101530001F204042C31A5846D8400300202A28D012
:1015400040205D46821A954029434A1E9141194325
:10155000072300220B4009D00F2300220B40080074
:10156000042BBDD1010053075202120BC9081943C5
:10157000012388460299002419408C46B8E552455B
:10158000BED88B46002560E6039D9D42C6D3110060
:1015900062E70025D8E780225B4612031A43019BCD
:1015A0001203120B9C468846034CA1E5FF03000082
:1015B000FFFFFFFEFE070000FF070000F0B54F46EB
:1015C0004646D6465C00C0B51F03DB0F9A46174B54
:1015D0000E034D0084468046360B6D0DC90F9146B3
:1015E0003F0B640D01209D4208D09C4201D0A542D2
:1015F0000BD01CBC90469946A246F0BD63463343CF
:10160000F7D1AC42F5D13A43F3D10120BE42F0D13B
:10161000C845EED1514507D0002DEAD163461E439F
:101620003000461EB041E4E70020E2E7FF0700007B
:10163000F0B54546DE4657464E46E0B51F033D0B26
:101640002C4F0E034C00AB465D008446360B640DF8
:10165000C90F90466D0DDB0FBC422AD0254FBD420D
:101660002DD0002C0FD130430700814678427841BD
:10167000C0B2002D17D15F463A4314D14B4600202B
:10168000002B0AD006E0002D02D15846024301D0BB
:10169000994218D04842012108433CBC90469946E3
:1016A000A246AB46F0BD0028F2D00120013B184312
:1016B000F3E737000743D1D002204042EDE75F4611
:1016C0001743CED0F8E7AC42E4DC03DA481E012130
:1016D0000843E2E75E45DDD806D000205E45DCD257
:1016E0000123481E1843D8E7C445D3D80020C44579
:1016F000F6D3D2E7FF070000F0B54E464546DE467A
:1017000057465C00E0B51F03DB0F99462A4B0E03DA
:101710004D00C90F8446360B6D0D8B4690463F0B2E
:10172000640D9D4220D0244B9C4222D0002D12D12A
:10173000304343424341DBB2002C1FD0002B0CD07E
:101740004B460120013B034318003CBC90469946A0
:10175000A246AB46F0BD002C16D0CB4517D05B4659
:10176000594201230B43EFE7310002230143EBD140
:10177000D9E7390002231143E6D1D7E73A43DDD157
:1017800000230028E0D0EAE73A43E6D1E7E7A542A4
:10179000E5DC05DBBE42E2D807D00023BE42D3D24F
:1017A0005946012301390B43CEE7C445D7D800235E
:1017B000C445F5D3C8E7C046FF070000F0B557465B
:1017C0004546DE464E46E0B50C0398464E00230BD8
:1017D00087B0070092469B46760DCD0F002E6BD04A
:1017E0006D4B9E4235D080245B46420F2404DB00C3
:1017F00014431C43C3009946684BA3469C460023F0
:1018000000276644029343461C035A00DB0F5046F0
:10181000240B520D984600D176E05F4B9A426DD072
:101820008023410F1B040B435C49E4008C461C439E
:10183000C300002062444146B6186940721C019101
:10184000944607430F2F00D9B0E0554ABF00D25944
:1018500097465B460343994600D087E000239B46AA
:10186000023308270293CEE742460192022867D04E
:10187000032800D10EE2012800D062E100230024F9
:101880000022994601990140CDB2002112030B0DAF
:10189000120B1B051343434A240513401C436400E9
:1018A000ED0764082C434846210007B03CBC904635
:1018B0009946A246AB46F0BD034399464FD05B46DE
:1018C000002B00D189E1584600F02EFE03000B3BAF
:1018D0001C2B00DD7AE11D22D31A3A0001005C4680
:1018E000DA4008398C4013008F4023439B46B946A9
:1018F00000232D4E0027361A029384E753462343D4
:101900002AD10024022096E75346234320D0002CFE
:1019100000D157E1200000F007FE03000B3B1C2B19
:1019200000DD49E11D21CB1A51460200D940534642
:10193000083A944093400C431B4A121A00207AE75D
:101940000125019B144C1D400023002299469CE771
:101950000024002201206EE7534603206BE700239A
:101960009B4601330427002602934CE7032381465C
:101970000C27029347E78022002300251203994693
:10198000054C82E75C464B4602986FE75C464B4647
:10199000019502986AE7C046FF07000001FCFFFFBF
:1019A00080600008FFFF0F800DFCFFFF4A4649469C
:1019B000170C1A0C1B041B0C08041900000C4143E3
:1019C0001500884619007D4379430395894629000F
:1019D000150045434D44029545462D0CAA46029DEF
:1019E0005544A94506D98A46802149028946CA44F8
:1019F00051460391290C0491414609042D04090C18
:101A000088462900250C24044144240C059121001A
:101A100041438846210079438A4668434146504401
:101A20008146080C48446F43824503D9802149020E
:101A300089464F44010C8946390049440291414688
:101A40000F0404993F0C88460004C01980444146A5
:101A5000049159460F0C0904090C884659438A46DB
:101A600039005143894641464A435146090C8B4649
:101A70007B43D2185A44934203D980235B029B468E
:101A8000D94451460904090C8A46414661437C43C6
:101A9000130C12044B445244A1468A463C00414672
:101AA0006C434D4351464D440F0C7D19A94503D954
:101AB0008021490288464444049F0399B846414422
:101AC0008B468345804141428846514608042F0495
:101AD000000C3F18584602991018894690429241CE
:101AE0004F44BA46524299469346C244D144CB44ED
:101AF0008F42BF41C245894199459B4193459241DF
:101B00007F4249422D0C52420F435B4213437F19DF
:101B1000FF185B463C19DB0D059A64021C43430227
:101B200013435D1EAB415A46C00D0343520213439B
:101B3000E20156D501205A0803401343E20713433C
:101B400064085A48604400284DDD5A0709D00F2226
:101B50001A40042A05D01A1D9A429B415B42E418A0
:101B60001300E20104D58020514AC00014406044B3
:101B7000504A904200DDE3E60125DB0862071A4384
:101B80006402019B9146220B4405640D1D407CE6D6
:101B9000802259461203114208D0144206D1224332
:101BA0001203120B45469946434C6EE65B461A43B8
:101BB0001203120B404C68E603005446283B9C403D
:101BC0000023B9E600F0B0FC2030A6E60300283B75
:101BD0009F400023BB4699468AE600F0A5FC2030D2
:101BE00074E6B446ADE701252A1A382A06DD019BC2
:101BF00000241D4000230022994646E61F2A21DCCE
:101C000020252000AD1A1E00AB40A840D6405D1E26
:101C1000AB4130431843D440430709D00F2303405E
:101C2000042B05D00300181D98429B415B42E41829
:101C3000230221D50125019B01241D400023002200
:101C4000994622E61F2521006D42281AC14008004E
:101C5000202A1DD05F35AA1A944023435C1EA3415D
:101C6000072503431D400022002D09D00F22002428
:101C70001A401800042AD6D1030065076402220B1B
:101C8000DB082B4301259946019B00241D40FCE500
:101C90000024E2E780220125120322430199120366
:101CA000120B0D409946044CEFE5C046FF030000BF
:101CB000FFFFFFFEFE070000FF070000F0B54646ED
:101CC000D6464F460C03C0B5CD0F4E00610A440FF7
:101CD0000C43C1005800400D84468A460F0019038A
:101CE000500F490A0143C648760DA846DB0FD200C3
:101CF000844500D1D8E001204340AB4200D1A6E0AA
:101D00006046351A002D00DC05E1002810D10B00DB
:101D1000134300D1D7E06B1E002B00D04BE153469C
:101D20009F1ABA458041641A4042241A01261EE0D7
:101D3000B34B9E4248D080231B041943382D00DD4D
:101D400019E11F2D00DD4CE120230F005B1B10006B
:101D50009A409F40E840531E9A41E9400743174389
:101D60005346DF1B611ABA45A44164420C1B23028F
:101D700000D4C5E06402650A002D00D1F6E0280019
:101D800000F0D2FB0300083B1F2B00DDE9E020221E
:101D90003C00D21A9D40D4409F4025439E4200DD26
:101DA000DBE09E1B731C1F2B00DD0AE120223800A4
:101DB000D21A290097402C009140D8407A1E9741B2
:101DC000DC40002601430F437B0709D00F233B4033
:101DD000042B05D03B1DBB42BF417F42E4191F00CD
:101DE000230225D5864B01369E4200D1AFE0854BBC
:101DF00001251C4043466207FF086402760517432D
:101E0000240B760D1D4000212403230B0C0D7E4A6C
:101E100024051C431440330523435B00ED075B0896
:101E20002B43380019001CBC90469946A246F0BDD1
:101E3000012543466207FF081743E4081D40704B25
:101E40009E4236D024037605240B760DDBE76346ED
:101E5000F31A002B00DC94E06046002835D0684877
:101E60008642B1D080273F043943382B00DCFDE0A7
:101E70000A43170000217A1E974157445745804175
:101E8000091944420C1923023AD55D4B01369E4292
:101E900000D14BE101225B4B1C407B0817401F43E4
:101EA000E207174364088FE70800104300D024E7D7
:101EB00021E723003B4300D1B9E180221203144300
:101EC0002403240B9FE72E007EE70800104300D177
:101ED000CAE0581E8446002800D0E7E0524452452C
:101EE000804164184042241817000126230207D5B8
:101EF0000226CFE764462C4300D1B3E12C006746AD
:101F00007B0700D062E76307FF081F4301254346B4
:101F1000E4081D4093E7002D78D1751C6D056D0D0B
:101F2000012D00DCF2E05046801A8245BF41651A5F
:101F30007F42ED1B8446280200D48CE05046171ADD
:101F4000BA4292410C1B5542651B984614E7012585
:101F5000434600241D40002755E72A4CF61A2C4022
:101F600032E73D0028388540002717E7380000F0A9
:101F7000DBFA203006E70A43170000217A1E97415A
:101F8000EEE6002B00D0E5E0731C9C465B055B0D84
:101F9000012B00DC9FE01A4B9C4500D1C5E0524468
:101FA00052458041641840422418E70752081743FD
:101FB0006408664608E71248854200D185E01D00A6
:101FC000BCE629001F3EF140202B00D17FE04022DB
:101FD000D31A9D402F437D1EAF4100240F4300269E
:101FE0008EE72B000F00203BDF40202D71D04023D7
:101FF0005D1BA9400A43511E8A4100211743AFE6E9
:10200000FF070000FFFF7FFFFFFF0F80002E3ED085
:10201000B34EB44545D0802636046D423443382D46
:1020200000DDA8E01F2D00DD1FE12026270050461F
:10203000761BB740E84007435046B040461EB041CB
:10204000EC403843171ABA4292410C1B5242A41A70
:10205000664698468BE6644667462C4300D08BE67E
:10206000002500260027EAE61E00ADE61F2B60DCF7
:102070002027F81A0F00844687401000D8400743F5
:1020800060468240501E8241D9401743F5E6260043
:102090005046064305D0ED43002DD3D0904EB445B5
:1020A000BDD10C001700664698468DE68C488342E9
:1020B0000BD06346D9E6002D00D096E0080010430F
:1020C00000D1E2E00C0017009846854E7CE6002522
:1020D00080E700218EE7230050460343002E00D006
:1020E000A8E0002B00D1DEE00B00134300D16BE62B
:1020F000524452458041641840422418170023027C
:1021000000D4FDE6774B66461C405DE62500504650
:102110000543002ECFD1002D4FD10C00144300D128
:10212000A0E00C00170098464EE666460024002703
:1021300085E61F000800203FF8400700202B00D153
:102140008EE04020C31A99400A43511E8A41002163
:10215000174392E6002E14D126005046064362D063
:10216000DB43002B5CD1871897429241641852429E
:10217000A418664687E650462043441EA04100242A
:1021800060E7574EB4454ED0802636045B42344358
:10219000382B00DD7FE01F2B00DD8BE020262700A1
:1021A0005046F61AB740D84007435046B040461E46
:1021B000B0410743DC40BF18D6E70D00154300D1FE
:1021C00002E65046801A8245BF41651A7F42ED1BE8
:1021D0008446280200D48DE65046171ABA4292412E
:1021E0000C1B5242A41A9846EEE50D00154300D18F
:1021F0006BE750466707C00807438020E4080003E8
:10220000044207D0CD08054204D12C009846D708D7
:1022100049070F437B0FE4001C43FF00304ED3E51A
:102220002F4EB445B4D10C0017006646CCE500270C
:102230000024E8E5002B39D00B00134300D144E71C
:10224000C008670707438020E40800030442E1D088
:10225000CB080342DED1D70849070F431C00D9E75A
:10226000002171E700250027E9E52E002700203E28
:10227000F740202D2FD04026751BAC405046204300
:10228000441EA04100243843DCE6802400252403BA
:10229000134E0027D3E5504620430700781E8741A0
:1022A0000024BF1860E70C0017008DE50C00170034
:1022B0000B4E89E51E002700203EF740202B0CD056
:1022C0004026F31A9C4050462043441EA041074339
:1022D0000024BF1848E70024D0E70024F3E7C046F5
:1022E000FF070000FFFF7FFF70B50E4E0D031C03BC
:1022F00049005B002D0B490D240B5B0DB14204D04E
:10230000084900208B4208D070BD05430120002DF4
:10231000FAD1044900208B42F6D114432000441E18
:10232000A041F1E7FF07000030B5134D0A034B0051
:10233000120B5B0DC90F0024AB4210DD0F4CA34202
:102340000FDC80240E4D64032243ED1A1F2D0BDD9C
:102350000C48C31ADA405442002900D1140020006E
:1023600030BD094BCC18FAE7084CE840A44663445A
:102370009A400243EFE7C046FE0300001D04000040
:102380003304000013040000FFFFFF7FEDFBFFFF9D
:1023900070B5002830D0C317C4185C40C50F2000AA
:1023A00000F0C2F8174B184A1B1AD21A1F2A18DD60
:1023B000164AD21A9440002224035B05240B5B0DBD
:1023C0000021100024030A0D240B12052243104C97
:1023D0001B05224013435B00ED075B082B431900EC
:1023E00070BD210091400A000B21081AC4405B0512
:1023F0002403240B5B0DE3E70025002300240022C7
:10240000DEE7C0461E040000330400001304000091
:10241000FFFF0F8010B5041E28D000F085F8154B83
:10242000154A1B1AD21A1F2A15DD144AD21A9440D3
:10243000002224035B05240B5B0D00211000240304
:102440000A0D240B120522430D4C1B052240134399
:102450005B00590810BD210091400A000B21081AA9
:10246000C4405B052403240B5B0DE6E70023002436
:102470000022E2E71E040000330400001304000001
:10248000FFFF0F804100090E4B1C70B5DBB2460206
:10249000750AC40F012B14DDE0239B006D07360B7A
:1024A000CB1800210A0D280012051C4D32435B0594
:1024B0002A405B0813435B00E4075B0823431900D1
:1024C00070BD002914D1002D1ED0280000F02CF87A
:1024D0000A281CDC0B232A001B1ADA4003001533E0
:1024E0009D400F4B12031B1A5B05160B5B0DD8E7C3
:1024F000002D06D0320B802636036D071643094B9C
:10250000CFE7084B0026CCE700230026C9E70300ED
:102510002A000B3B9A400025E3E7C046FFFF0F80EF
:1025200089030000FF0700001C2101231B049842BF
:1025300001D3000C10391B0A984201D3000A083954
:102540001B09984201D30009043902A2105C40180B
:102550007047C046040302020101010100000000AF
:102560000000000010B5002903D1FFF7DDFF203087
:1025700002E0081CFFF7D8FF10BDC046FA210A4B45
:1025800070B5890005001868FDF7DAFD00F070F8F5
:1025900004000120002C05D102382200290000F09F
:1025A00037F8200070BDC046040000204023084AD0
:1025B00010B5116800200B431360FFF7DFFF041E06
:1025C00003D101F07FFB200010BD0124FBE7C046D2
:1025D00000200240024A1368013313607047C0466E
:1025E00000020020014B18687047C046000200201E
:1025F00070B50400FFF7F6FF631C5A1E93410500F7
:10260000E418FFF7EFFF401B8442FAD870BD0000CA
:1026100070B58901002814DA0F23C0B20340083BCB
:10262000114A9B089B009B18032210409040FC32EB
:102630001500114085408140DC69AC432143D961DC
:1026400070BD032583082840A840FC352E00074AAA
:102650009B009B18C02286402940814092009C58D4
:10266000B44321439950EBE700ED00E000E100E0C6
:10267000094A431E012093420DD8C021074A084849
:102680005360036A09061B021B0A0B430362002006
:102690000723906013607047FFFFFF0010E000E029
:1026A00000ED00E0F0B5554A0B688218541EA241B7
:1026B00085B00193002305320392019ADA4001D1DB
:1026C00005B0F0BD01259D40019A2A40009200D13D
:1026D00091E04A6894461022644694432200013CEB
:1026E000022A1FD107240F271C40A400A740DA08A4
:1026F00092008218166ABE430F69A7403E431662D5
:1027000003245E00B4408268A243CC68B4402243F4
:1027100082606246D206D20F9A404468AC4322439C
:10272000426001E0012CEBD9032634005D00AC408F
:102730006246E4433240AA40076827403A430260B9
:10274000C26814408A68AA4014436246C460D2003A
:1027500051D501252A4C0F27626B2A431D003540B5
:10276000AD00AF406263274A9C08A400A418A26889
:10277000BA43A0270292FF050022B84210D0224F90
:102780000132B8420CD0214F0132B84208D0204F5C
:102790003200B84204D01F4E0132B04200D0039A3A
:1027A000AA406746029D2A43A2601B4A009C166805
:1027B000009DE4433543FF0301D4350025406746BF
:1027C00015605668009D3543BF0301D43500254090
:1027D000674655609668009D3543FF0201D4350079
:1027E000254067469560D568009E2E43BF0201D400
:1027F00025402E00D66001335FE7C04600E4FFAFFE
:102800000010024000000140000400500008005089
:10281000000C005000100050000401400069084006
:10282000411E8841C0B27047002A01D081617047C3
:102830008162FCE78023034A5B0011680B4313604D
:102840007047C046007000400C22184B10B5D96884
:102850000A40082A26D00C2A06D0042A1AD11B685E
:10286000DB0621D4124810BD8A021248120F825C86
:102870000902D868890F0131C00304D50E485043BE
:10288000FDF75EFCEFE71B68DB0601D50B48F6E7BA
:102890000748F4E780205B6800021B045B0F0133EC
:1028A0009840E0E70448DEE70448DCE70010024017
:1028B0000024F400EE60000800127A0000093D00D8
:1028C000F0B5050087B0002802D1012007B0F0BDA7
:1028D0000C23C24CE668E2681E4080235B021A406B
:1028E00001920268D20741D42B689B0700D587E08C
:1028F0002B68DB0628D5002E00D0E1E023689B057D
:1029000002D5EB69002BE0D06268B5496B6A0A40DA
:102910001A43626061682A6A0902090A12060A43B8
:10292000626080225B0B013312029A401300E1685F
:1029300000200A06AB49120F8A5CD340AA4A1360F2
:10294000FFF71CFE0028C1D12B681B0700D5EEE065
:102950002B685B0700D510E12B689B0600D595E13D
:10296000AB6A002B00D0C4E10020AFE7082E04D0F2
:102970000C2E09D1019A002A06D023689B03B3D5F7
:102980006B68002BB0D1A0E76A689A4211D1226827
:1029900013432360FFF726FE07008022236892027C
:1029A0001342A1D1FFF71EFEC01B6428F5D90320F6
:1029B0008CE7A021C9028A4205D180222168D20277
:1029C0000A432260E3E721688848014021602168CA
:1029D0000B400593059B864923680B402360002A22
:1029E000D8D1FFF7FFFD070080222368920213422F
:1029F00000D179E7FFF7F6FDC01B6428F4D9D6E7CC
:102A00002022EB68134203D02168934311432160D5
:102A1000042E04D00C2E25D1019A002A22D122683E
:102A2000520702D5002B00D14FE761682A6971482F
:102A3000120201400A430921626022688A4313435B
:102A40002360FFF701FFE368664A1B061B0FD35C98
:102A5000D840654B18600020FFF790FD002800D19A
:102A600046E733E7002B19D0092122688A43134334
:102A70002360FFF7B7FD070004222368134207D045
:102A800062682B695B491B020A40134363602FE7AE
:102A9000FFF7A8FDC01B0228EED988E701222368B2
:102AA00093432360FFF79EFD07000422236813422F
:102AB00000D11DE7FFF796FDC01B0228F5D976E788
:102AC000EB69002B20D0802322685B001343236036
:102AD000FFF788FD070080222368920013420DD083
:102AE00063683F4A13406A6A1343636062682B6AF3
:102AF00012021B06120A1343636025E7FFF772FDFB
:102B0000C01B0228E7D952E723683B4A13402360E1
:102B1000FFF768FD0700802223689200134200D16E
:102B200012E7FFF75FFDC01B0228F4D93FE76A698F
:102B30000123002A10D0226D13432365FFF752FDB5
:102B400007000222236D134200D001E7FFF74AFD80
:102B5000C01B0228F5D92AE7226D9A432265FFF7A8
:102B600041FD07000222236D134200D1F0E6FFF77A
:102B700039FDC01B0228F5D919E780230021A26B7B
:102B80005B0501911A4204D1A26B1343A363012395
:102B900001938022194F52003B68134208D08022D3
:102BA000AB68520093422BD1226D134323654CE056
:102BB00080223B68520013433B60FFF713FD8023E4
:102BC0005B00029003933B68039A1342E7D1FFF73F
:102BD00009FD029BC01A6428F5D9E8E600100240FE
:102BE000FF1FFFFFD660000804000020FFFFFEFF6C
:102BF000FFFFFBFFFFE0FFFFFFFEFFFF0070004055
:102C0000002B16D1236D6C4A13402365236D6B4A4C
:102C100013402365FFF7E6FC07008022236D920036
:102C200013422AD0FFF7DEFC654BC01B9842F4D953
:102C3000BDE6A021C9008B420BD18023216DDB00B2
:102C40000B432365236D1A432265FFF7CBFC070076
:102C50000EE0236D584A13402365236D574A1340F5
:102C6000A4E7FFF7BFFC564BC01B984200D99EE675
:102C70008022236D92001342F3D0019B012B00D0E0
:102C80006AE6A36B4F4A1340A36365E6A969012373
:102C90004D4A002918D0A1681943A160616B0B430C
:102CA00063638023116A9B010B431362FFF79AFC55
:102CB00007000222A368134200D051E6FFF792FCFE
:102CC000C01B0228F5D972E6A1689943A160136A76
:102CD0003E490B401362FFF785FC07000222A36800
:102CE000134200D13CE6FFF77DFCC01B0228F5D95A
:102CF0005DE60C2E43D0364A022B2ED12368802667
:102D000013402360FFF76EFC0700B60423683342CC
:102D10001DD1296BEB6AE2680B432E490A4013432D
:102D20006A6B80251343E360802322685B041343AE
:102D30002360FFF757FC0600AD0423682B4200D048
:102D400012E6FFF74FFC801B0228F6D92FE6FFF7AB
:102D500049FCC01B0228D9D929E6236880251340E5
:102D60002360FFF73FFC0600AD0423682B4200D12F
:102D7000FAE5FFF737FC801B0228F6D917E61800A2
:102D8000012B00D1A2E58022E368E96A52021A40D1
:102D900001208A4200D099E5F022296B92031A4063
:102DA0008A4200D092E5C02000040340686B181AE4
:102DB000431E9841C0B289E5FFFEFFFFFFFBFFFF06
:102DC00088130000FFFFFFEF00000140FFDFFFFF5F
:102DD000FFFFFFFEFFFF02FFF7B5061E019101D1C5
:102DE0000120FEBD0122514C0199236813408B4202
:102DF00027D3326893072FD4D30735D40123226811
:102E000001991A40914200D281E03268484C530740
:102E100000D584E0130706D5E26833694549DB0035
:102E20000A401343E360FFF70FFDE368424A1B06C5
:102E30001B0FD35CD840414B18600020FFF79EFB6E
:102E4000CFE72368019993430B4323602368134022
:102E5000019A9A42C4D1CCE7F0203549CB6883432C
:102E6000B0680343CB60C7E7314D72682B68022A14
:102E700019D19B03B4D50321EB688B431343EB605B
:102E8000FFF7B0FB73680700022B19D10C22EB6827
:102E90001340082BB2D0FFF7A5FB294BC01B98426B
:102EA000F4D903209DE7032A02D19B01E3D497E7DD
:102EB000012A02D15B07DED492E79B05DBD48FE7C2
:102EC000032B0BD10C22EB681340934296D0FFF7F3
:102ED00089FB1B4BC01B9842F4D9E2E7012B10D0B1
:102EE0000C22EB68134289D0FFF77CFB144BC01B0C
:102EF0009842F5D9D5E7FFF775FB114BC01B9842F7
:102F0000CFD80C22EB681340042BF4D176E722686B
:102F10009A43226022681A4200D061E775E7E368AD
:102F200008490B40F1680B43E36073E7002002405F
:102F300000100240FFC7FFFFD66000080400002019
:102F400088130000FFF8FFFF044B054ADB685B05B0
:102F50005B0FD35C034A1068D840704700100240F2
:102F6000E660000804000020044B054ADB689B046F
:102F70005B0FD35C034A1068D840704700100240D2
:102F8000E6600008040000208223F7B502681B01F8
:102F900005001A4248D080230021654C5B05A26BD6
:102FA00000911A4204D1A26B1343A363012300933F
:102FB0008027604E7F0033683B4277D06968C0222B
:102FC00008002368920313401040834203D1A8688D
:102FD0000240934209D0C0230A009B021A409A4241
:102FE00003D1236801209B0371D4C022236D920278
:102FF000134000D06CE06968C0230A009B021A40AD
:103000009A4207D123684C480340C0208003014006
:103010000B432360236D1A43009B2265012B03D1D0
:10302000A36B464A1340A3632B68DA0706D5032037
:103030003F49CA6C8243E8680243CA649A0706D5CE
:103040000C203B49CA6C824328690243CA645A0770
:1030500006D537493A48CA6C024068690243CA64D7
:103060001A0706D532493748CA6C0240A86902439C
:10307000CA64DA0506D52E493348CA6C0240E869AD
:103080000243CA645A0606D529493048CA6C024030
:10309000686A0243CA6400201B0618D5244A2C49DA
:1030A000D36C0B40296A0B43D36410E033683B4375
:1030B0003360FFF797FA019033683B4200D07DE719
:1030C000FFF790FA019BC01A6428F5D90320FEBDD2
:1030D00011408B4202D02968890608D4A9680A40A9
:1030E000934200D187E72B681B0500D483E7802239
:1030F000216D206D120302432265226D124B15488B
:103100000B40024022652365CB0500D473E7FFF72F
:1031100069FA80270600BF00236D3B4200D06AE7B2
:10312000FFF760FA0C4B801B9842F5D9CEE7C046FA
:103130000010024000700040FFFFCFFFFFFFFFEFD5
:10314000FFF3FFFFFFCFFFFFFFFFFCFFFFFFFFFBD2
:10315000FFFFF3FFFFFFF7FF8813000080220368E3
:10316000D205904208D0154A904205D0144A9042A8
:1031700002D0144A904214D1702293434A681343F8
:103180008022D205904208D00C4A904205D00C4AC9
:10319000904202D00B4A904203D10B4A1340CA68B6
:1031A0001343802293430A69134303608B68C3620D
:1031B0000B688362012343617047C04600040040EE
:1031C0000008014000140140FFFCFFFF70B504003F
:1031D0000120002C14D0250039352B78DBB2002BD0
:1031E00005D1220038321370200000F079FD02234F
:1031F00020682B70211DFFF7B1FF012300202B70E9
:1032000070BD0100022339310B70036807209A68F2
:103210000240062A03D00122186802431A600123E3
:1032200000200B7070470000F0B504000222383413
:10323000257803001000012D17D01D0001271B6801
:10324000393527702A709A68454802409A600A68A2
:10325000402A00D16DE014D8102A0BD006D8002ADD
:1032600008D0012300202B702070F0BD202A01D04F
:10327000302AF6D170219868884369390A4302439D
:103280003DE0602A3DD017D8502AEAD14868CA6884
:10329000196A1E6A1201BE43F0271E629E69BE4370
:1032A00032430A26B14301439A61196270219A6838
:1032B0008A431100572221E0702A12D08020800119
:1032C0008242CED19A6827484E6810408A68C96801
:1032D000324309020A4302439A6080229968D2016C
:1032E0000CE09A681F484E6810408A68C9683243EB
:1032F00009020A4302439A60772299680A439A6056
:10330000AFE71026186A4A68B043C96818629E6918
:10331000154F09033E403143A026186A9961702178
:10332000B043120102431A629A688A43110067226D
:10333000E4E74868CA68196A1E6A1201BE43F027AA
:103340001E629E69BE4332430A26B14301439A611D
:10335000196270219A688A4311004722CEE7C0465D
:103360008800FFFFFF00FFFFFF0FFFFF70B50400A5
:103370003834227803000220012A13D01D00702661
:1033800039352870186842688368B2430E68496806
:1033900032438026B3430B43426083600123002005
:1033A0002B70207070BD0000F8B504002569A2687C
:1033B00003682A436569C1692A431868814D0A4335
:1033C000284002431A605A687F48804D0240E068F6
:1033D00002435A60A069AB4201D0226A10439A6846
:1033E0007B4E324002439A607A4A934213D10322C1
:1033F000794BDB6C1340794AD05C80231B029942E5
:1034000000D1D1E0082826D8FCF786FEC096992581
:10341000B4252525B700724A934205D10C226E4B84
:10342000DB6C13406F4AE7E76F4A934200D1A9E093
:103430006E4A934200D1A5E0AB4200D0ADE0C0217E
:103440008020654A0901D36CC0000B40834238D00C
:1034500003D8002B0AD001250DE080200001834213
:103460000ED08B42F7D1802000020DE0FFF76CFDFB
:103470000025A84208D10023280023666366F8BD12
:103480001368DB0620D55A48032263685A438242F8
:10349000E1D81A038242DED30027020E01025E0841
:1034A00089197A41080011001A003B00FCF7FCFF63
:1034B000504BC218504B9A42CDD823683D00D8607B
:1034C000D9E7FFF7C1F9D3E74C48DDE7FFF73CFD4B
:1034D000636840005B08C01861680BE0FFF744FDBB
:1034E000F6E710253C4B61681A684808154006D07D
:1034F000434BC018FCF724FE002583B204E0414B87
:10350000C018FCF71DFE83B219003F4810398142F4
:10351000A1D80F2118001B0788435B0F21680343C4
:10352000CB60A8E7FFF790F9D2E7636858088023DB
:103530005B02D0E70023E7E7FFF716FD28E0102540
:10354000254B61681A684808154006D0284BC018FA
:10355000FCF7F6FD002583B204E0284BC018FCF709
:10356000EFFD83B2190028481039814200D972E773
:103570002168D5E7FFF768F90AE0636858088023F7
:103580001B0207E080231B0299429FD0FFF7DCFC5F
:1035900063685B08C0186168DAE7802301251B02B5
:1035A0009942C7D00023DDE7082800D953E7FCF78C
:1035B000BDFD8DFF95FF98FF52FFB9FF52FF52FFEF
:1035C00052FFBCFFF369FFEFFFCFFFFF0048004051
:1035D000FFF4FFFF0038014000100240C060000807
:1035E00000440040C4600008004C0040005000400F
:1035F00000093D0000FDFFFFFFFC0F000024F40068
:1036000000127A000048E801EFFF0000436A30B57D
:10361000DA0706D50168284C4A682240846A2243AA
:103620004A609A0706D50168244C4A682240C46A59
:1036300022434A605A0706D50168214C4A68224055
:10364000046B22434A601A0706D501681D4C4A687C
:103650002240446B22434A60DA0606D501681A4CC0
:103660008A682240846B22438A609A0606D50168E4
:10367000164C8A682240C46B22438A605A0610D5D1
:103680000168134D4A68046C2A4022434A60802234
:103690005203944205D14A680E4C2240446C2243A6
:1036A0004A601B0606D502680B4953680B40816CC3
:1036B0000B43536030BDC046FFFFFDFFFFFFFEFF21
:1036C000FFFFFBFFFF7FFFFFFFEFFFFFFFDFFFFFBE
:1036D000FFFFEFFFFFFF9FFFFFFFF7FFF8B50400BD
:1036E0000E0015001F002268D36933409B1B59420E
:1036F0004B41AB4201D000201BE0069B0133F3D0CD
:10370000FEF770FF069BC01B834201D3002BEAD15A
:10371000236808491A6803200A401A609A68A3318E
:10372000FF318A439A6020236367A36700237034C4
:103730002370F8BD5FFEFFFFF0B587B00593436FC0
:1037400004000D0017000220202B49D10138002968
:1037500046D0002A44D08023A2685B019A4204D15B
:103760002369002B01D101423AD1230070331A782A
:103770000220012A34D0012200261A702123E66794
:103780006367FEF72FFF230050331F80023303933C
:103790001F808023A26804905B019A4204D12369B0
:1037A000B34201D12E001D00230052331A88059B1D
:1037B00092B20093049B002A0AD140212000FFF717
:1037C0008DFF00280BD1202370346360207007E048
:1037D000002280212000FFF781FF002802D0032073
:1037E00007B0F0BD2268002D0BD133880236DB050F
:1037F000DB0D9362039B039A1B88013B9BB21380F2
:10380000D2E72B7801359362F4E7000073B5002608
:103810000400C667FEF7E6FE236805001B681B0769
:1038200015D423681B685B070AD580210E4B002244
:103830000093C9032B002000FFF750FF002811D18F
:10384000202300206367A367703420700BE0802181
:10385000054B32000093890303002000FFF73EFF71
:103860000028DED0032076BDFFFFFF0110B5041E47
:1038700001D1012010BD436F002B04D10200703232
:10388000137000F03BFA2423012122686367136858
:1038900020008B431360FFF787FD0128E9D0636A9E
:1038A000002B02D02000FFF7B1FE236807495A68B9
:1038B00020000A402A215A609A688A439A600122AD
:1038C00019680A431A60FFF7A1FFD3E7FFB7FFFFAC
:1038D000802306491B0210B5A0200B600023C00501
:1038E0004B6001338B60FEF7DDFE10BD100200203F
:1038F000802307491B0210B50B600123A0204B60F9
:103900000023C0058B60CB60FEF7CCFE10BDC04627
:10391000100200200022034B1B685A625A6A82423E
:10392000FCD3704724020020F7B5802701900024C3
:10393000FFF7DEFF01263F02019D2541354013D0F0
:10394000FFF7D6FFA02000223900C005FEF76CFF6C
:103950003000FFF7DFFFFFF7BBFF3C20FFF7DAFF88
:103960000134082CE8D1F7BDFFF7C2FFA0202A00E0
:103970003900C005FEF758FF3C20FFF7CBFFFFF7EB
:10398000A7FFEDE7F8B500248025A026FFF7A0FFEC
:1039900027002D02F605FFF7ABFF290000223000BB
:1039A000FEF742FF0220FFF7B5FFFFF791FF290066
:1039B0003000FEF733FF002803D00120A04007436A
:1039C000FFB23C200134FFF7A5FF082CE3D13800FB
:1039D000F8BD10B5FFF78CFF8021A020002209025E
:1039E000C005FEF721FFF0204000FFF793FFFFF72F
:1039F0006FFF5020FFF78EFF8021A0200902C00535
:103A0000FEF70CFF0400C8204000002C03D1FFF794
:103A100081FF200010BDFFF77DFF0120FAE70000C5
:103A20000FB400B597B018AA02CA02A8019200F01C
:103A3000C7FE02A8FCF768FB012382B25B4202A921
:103A40000348FFF779FE17B008BC04B01847C0461A
:103A50006002002030B59FB03822002110A800F08D
:103A60001FFA1422002101A800F01AFA28220021CE
:103A700006A800F015FA80231649174C0A681B01A6
:103A8000224013430B60FEF7D5FE144A8025136DC8
:103A90006D022340136505230024109310A8FB3307
:103AA000129311951A94FEF70BFF0F232100019337
:103AB00001A80D3B0293039404940594FFF78CF93D
:103AC000232306A8069309940A940795FFF75CFA46
:103AD0001FB030BD00700040FFE7FFFF0010024044
:103AE00070B59EB03822002110A800F0D9F9142238
:103AF000002101A800F0D4F92822002106A800F036
:103B0000CFF91649164A0B6800241A4080231B017E
:103B100013430B60102314938023DB021C93802338
:103B200002250126DB0310A81D93109513961A9504
:103B30001B94FEF7C5FE0F233100019301A80C3B37
:103B40000293039404940594FFF746F906A806959A
:103B50000A94FFF719FA1EB070BDC046007000400D
:103B6000FFE7FFFF30B5012489B0FEF71FFD802578
:103B7000FFF770FFFFF7B4FF1422002103A800F045
:103B80008FF9A020444B2D02DA6A29002243DA6221
:103B9000DB6A002223400093C005009BFEF744FE31
:103BA000A0200494002403A9C0050395059406945D
:103BB000FEF778FD2100102203A800F071F9082219
:103BC000210001A800F06CF98023344DDB052B6047
:103BD0001F236B60324B2800AC60EB602C616C6182
:103BE000FFF7F4FA802303A95B0128000393FFF792
:103BF0001BFB01A9280001940294FFF7B7FB294899
:103C0000294B84600360E1235B0243600C23C460A2
:103C1000046143618461C46104624462FFF726FE6B
:103C20002800FFF7EEFACC34FFF75AFFFFF7D1FE7A
:103C30001E4B18702000FFF777FE4420FFF774FE3C
:103C4000C8208000FEF7D4FCFFF7C3FE2000FFF77A
:103C50006BFEBE20FFF768FEFFF794FE144D287040
:103C6000FFF790FE134B1870030228781843124B8D
:103C70001880FCF719FEF6218905FCF7F5FC0F4BBF
:103C80001860FEF7FFFB02000B000D48FFF7C8FEAF
:103C9000FFF7E0FEC8E7C046001002402402002003
:103CA000FEFF0000600200200044004000000020F1
:103CB000040200200C02002006020020080200205E
:103CC000D16000080122054B596B0A435A638022D8
:103CD000996B52050A439A637047C0460010024030
:103CE00080230268DB059A4204D10123024A916BCA
:103CF0000B4393637047C0460010024010B50400A8
:103D000086B01422002101A800F0CAF8104B2268E6
:103D10009A421AD180220F4B9202996BA0200A433B
:103D200001219A63DA6AC0050A43DA62DB6A0B4052
:103D30000093009B0C2301930A3B02935B180493AE
:103D40005B1801A90593FEF7ADFC06B010BDC04697
:103D500000440040001002407047FEE77047704783
:103D600010B5FEF737FC10BD0A4B10B519680200FC
:103D7000002901D1084919606946186882188A42E9
:103D800006D900F063F80C2303600120404210BD07
:103D90001A60FCE7F4010020E40200208022104BAE
:103DA000520019680A431A60DA680E490A40DA605C
:103DB0001A680D490A4001211A609A688A439A607C
:103DC0001A680A490A401A60DA6809490A40DA6042
:103DD00000221A618022074B12059A607047C04684
:103DE000001002400C40FF88F6FFF6FEFFFFFBFFCD
:103DF000FFFF02FF00ED00E00D488546002103E0D3
:103E00000C4B5B58435004310B480C4B42189A4200
:103E1000F6D30B4A02E0002313600432094B9A42A6
:103E2000F9D3FFF7BBFF00F017F8FFF79BFEFEE7A3
:103E3000005000206063000800000020D80100202E
:103E4000D8010020E4020020FEE70000014B1868C2
:103E50007047C0460800002070B500260C4D0D4C80
:103E6000641BA410A64209D1002602F0BBF80A4D3B
:103E70000A4C641BA410A64205D170BDB300EB58D8
:103E800098470136EEE7B300EB5898470136F2E762
:103E90005863000858630008586300085C63000812
:103EA00003008218934200D1704719700133F9E77B
:103EB000F0B58BB014001D1E129953DA802424062D
:103EC0001B191D0014002D230B702023149E0322A8
:103ED0009E43462E07D03300453B59424B41109933
:103EE000013ACB18109309AB049308AB0393139BCF
:103EF00000920293109B220001932B0000F0F0FC33
:103F00000700472E02D1119BDB0724D5109BFB181D
:103F10000793462E14D13B78302B0CD1002200237E
:103F200020002900FCF792FA002804D10123109AFE
:103F30009B1A139A1360139B079A1B68D318079355
:103F40000022002320002900FCF780FA30220028FC
:103F50000DD0079B09933800099B159ADB1B136052
:103F60000BB0F0BD0023AFE7591C09911A70099BF3
:103F700007999942F8D8EEE7F0B52B2385B00700F2
:103F80000C000270861C002901DA2D234C427B7044
:103F9000092C23DD02ABDD1D6B1E20000A210193DD
:103FA000FCF73EFA6B1E3031197020000A21FCF735
:103FB00051F9040009280ADC023D30342C7002ABB0
:103FC00007333000AB4204D8C01B05B0F0BD019DE3
:103FD000E2E72B78013533700136F0E73023E4183F
:103FE0003370B01C7470EFE7F0B595B00C000A9216
:103FF0000B931A9D099001F05BFA036818000D936A
:10400000FCF782F80023129323680E900C930C990E
:10401000277E2B680722C90547D59B1893431A00B2
:1040200008322A601A685B68A264E3640122E56CC6
:10403000A66C6B005B080F935242A74B30000F99A0
:10404000FEF752F9002800D006E20122A24B5242AC
:1040500030000F99FCF70AFA002800D0FCE100229A
:10406000002330002900FCF7F7F9002803D02300D3
:104070002D2243331A70994D472F00D8984D0323B2
:1040800000260C9A236101339A4322600B9B13AAEA
:10409000009321000A9B099800F0F2F9431C00D01C
:1040A0009CE00120404215B0F0BD0733B6E7802305
:1040B0006268DB00511C45D1073262600C9A002116
:1040C000134312AA059211AA039223222360069198
:1040D000019308A9636852180292009332002B00E2
:1040E00004970998FFF7E4FE20233A0005009A435D
:1040F000472A07D1119BDA1C02DB626893425BDD21
:10410000023FFFB21199652F3BD8200001393A00D8
:1041100050301191FFF730FF129A06008318236187
:10412000012A02DC2268D20701D50133236123234F
:1041300008AA9B181B78002BA8D023002D224333FC
:104140001A70A3E7672F01D0472FB7D1002A16D0E6
:104150000C9908A80B430021069112A9059111A9F9
:104160000391232109182360019300922B000497E7
:10417000029132000998FFF79BFE0500BAE7012281
:104180009BE7662F19D1636800290CDD2161002BA4
:1041900002D12268D20702D501335B182361119B3B
:1041A0000026A365C3E7002B03D101222168114239
:1041B00000D09A1C2261F2E76727119B1298834274
:1041C00005DB22682361D207E9D50133E6E7012246
:1041D000002B01DC9218D21A1218EBE72268530563
:1041E00008D423692A000A9909980B9DA847431C03
:1041F00029D156E7652F00D8DCE0A06CE16C0022E5
:104200000023FCF723F9002835D00123354A0A9909
:1042100009980B9DA847431C00D142E7119B129AB5
:10422000934202DB2368DB070DD50B9D0E9B0D9A95
:104230000A990998A8470025431C00D131E7129B31
:10424000013B9D420BDB236800259B0700D5FDE069
:10425000139BE068984200DB25E7180023E7220063
:1042600001231A320A9909980B9EB047431C00D1CA
:1042700017E70135E3E7119B002B35DC0123194AD1
:104280000A9909980B9EB047431C00D109E7119B7E
:10429000002B05D1129B002B02D12368DB07D2D55E
:1042A0000B9E0E9B0D9A0A990998B0470026431C55
:1042B00000D1F6E6119B5B429E4201DB129B91E727
:1042C000220001231A320A9909980B9FB847431C10
:1042D00000D1E6E60136EDE7FFFFEF7FFB60000867
:1042E000F760000807610008A36D129E9E4200DD82
:1042F0001E00002E35DC00230C93F343DB170F93D5
:104300000F9BA76D0C9A3340FB1A9A4232DB119B2C
:10431000129A93423CDB2368DB0739D4129E119A30
:10432000F31BB61A9E4200DD1E00002E39DCF74357
:104330000025FB170C93119A129B0C999B1A3200C3
:104340000A409B1A9D4200DB7DE7220001231A32BE
:104350000A9909980B9FB847431C00D1A1E6013583
:10436000E9E733002A000A9909980B9FB847431CD4
:10437000C1D196E6220001231A320A9909980B9FAF
:10438000B847431C00D18CE60C9B01330C93B7E774
:104390000E9B0D9A0A9909980B9EB047431CBDD1FC
:1043A0007FE6EA1933000A9909980B9DA847431C38
:1043B000BDD176E6129B012B02DC01231A4238D0D4
:1043C00001232A000A9909980B9FB847431C00D182
:1043D00067E60E9B0D9A0A9909980B9FB847431CF4
:1043E00000D15EE6A06CE16C00220023FCF72EF801
:1043F000002808D00025129B013B9D420DDB2200C6
:1044000033005032EFE6129B6A1C013B0A9909986F
:104410000B9DA847431CF2D143E6220001231A3228
:104420000A9909980B9FB847431C00D139E601351A
:10443000E1E72A00EAE72200012319320A990998E4
:104440000B9EB047431C00D12BE60135E368139A5D
:104450009B1A9D42EFDBFBE632002B003000290067
:10446000FDF742FF002800D121E6034D472F00D978
:1044700005E6024D03E6C04603610008FF60000840
:10448000F7B5150001938A680B6900900C00934200
:1044900000DA130022002B6043321278002A01D088
:1044A00001332B6023689B0602D52B6802332B60F7
:1044B000062723681F4027D0230043331B785A1E4A
:1044C00093412268920630D4220001994332009829
:1044D000089EB047431C25D0062320682A68E1685F
:1044E00003400025042B03D18D1AEB43DB171D403D
:1044F000A3682269934201DD9B1AED180027BD4293
:1045000020D1002010E00137E3682A689B1A9F42FF
:10451000D2DA22000123193201990098089EB0478F
:10452000431CF0D101204042FEBD3020E118433150
:10453000087021005A1C45310978A2184332023311
:104540001170C1E7220001231A3201990098089ED8
:10455000B047431CE6D00137D1E70000F0B58BB07F
:1045600006920A0043320793059004920A7E0C00DB
:10457000109B6E2A00D18FE017D8632A2CD008D860
:10458000002A00D199E0582A54D0260042363270D1
:1045900029E0642A01D0692AF7D121681A6808063F
:1045A00023D5111D1960156825E0732A00D188E014
:1045B00008D86F2A29D0702AE7D1202209680A4337
:1045C000226003E0752A20D0782ADED122007821EB
:1045D000453211706C4A30E00E001A684236111DE7
:1045E000196013683370012379E04906D9D5111D8C
:1045F00019600023D55E002D03DA2D23049A6D4245
:104600001370624B0A2703932FE020681968050690
:1046100003D5081D18600D6805E04006F9D50D6842
:10462000081D1860ADB2594B082703936F2A18D0A4
:104630000A2716E045310A70544A03921A68216825
:10464000101D18601568080622D5CB0702D5202357
:10465000194321601027002D03D1202322689A439B
:1046600022602300002243331A706368A360002B8A
:104670005CDB0422216891432160002D58D1049E07
:10468000002B64D02600039B42361B7833705EE01B
:104690004806DAD5ADB2D8E709681A68080605D524
:1046A000111D1960136862691A6006E04906F7D5A2
:1046B000111D19601368A28A1A800023049E2361C9
:1046C00054E01A68111D19601668002162683000F4
:1046D00000F004FF002801D0801B60606368236144
:1046E0000023049A137041E023693200069905986B
:1046F000079DA847431C43D0236800259B070FD480
:10470000099BE06898423DDA18003BE02200012353
:10471000193206990598079EB047431C30D00135E1
:10472000E368099A9B1A9D42F0DBE9E7002DA9D0C6
:10473000049E28003900FBF789FD039B013E5B5C6A
:10474000280033703900FBF7FBFC051EF1D1082F60
:1047500009D12368DB0706D563682269934202DC2E
:104760003023013E3370049B9B1B2361079B09AAE6
:1047700000932100069B0598FFF782FE431CB3D1EE
:10478000012040420BB0F0BD1A6100080961000829
:1047900030B59BB00091049108496D460291059196
:1047A000012182244942E981A4006946AC8101F0DB
:1047B000A3FA0023009A13701BB030BDFFFFFF7FE8
:1047C00010B513000A00010002480068FFF7E0FF7F
:1047D00010BDC04608000020F0B503690C6989B01F
:1047E0000700059100269C426DDC0B00013C143350
:1047F000A50003935B1904930300143302935D191E
:10480000049B28681B68591C0193FBF799FC0190D5
:10481000B0422DD0039B02989C460696624608CA79
:104820009446019A99B251431B0C534389190A0CBF
:104830009B18079302881E0C069B89B2D218036846
:10484000521A190C6B469B8BCB1A11145B18191456
:1048500092B21B041A43049B069104C06345DDD247
:104860002B68002B04D1029B043DAB422ED33C614C
:104870000599380001F057F8002823DB0025019B3B
:10488000029801330399019308C9028855199AB215
:10489000AA1A05681B0C2D0CEB1A15145B191D14B4
:1048A00092B21B04134308C0049B8B42ECD2029AC1
:1048B000A300D3181A68002A04D1029A043B9A4232
:1048C00009D33C61019E300009B0F0BD2B68002B7C
:1048D000CDD1013CC7E71A68002AF2D1013CECE7D0
:1048E000F0B516001F00446A9DB00490259D069601
:1048F0000797002C08D1102000F0E6FD049B5862B9
:10490000446084600460C460049B5B6A1968002989
:104910000BD05A68012393404A608B60049800F0E2
:1049200029FE0022049B5B6A1A60079B002B1FDA9A
:1049300001232B607B005B080793079CB74B220089
:1049400019931A409A4216D1B54B249A1360069BCC
:10495000002B03D1240301D100F091FDB14B269A25
:104960000A93B14B002A01D000F08FFD00F08FFDBB
:1049700000232B60E1E7069E079F00220023300002
:104980003900FBF763FD051E0ED00123249A136046
:10499000A64B269A0A93002A01D100F078FDA44A7A
:1049A00026990A6000F073FD1AAB01931BAB0093CC
:1049B00032003B00049801F033F8630005905B0D72
:1049C00000D17FE03A039B4C120B144321009A4A1A
:1049D000300018959E180022984BFDF76FF9984A01
:1049E000984BFCF7EBFE984A984BFBF7A3FF0400AB
:1049F00030000D00FDF7CCFC954A964BFCF7DEFE2F
:104A000002000B0020002900FBF794FF04000D00BA
:104A1000FDF78AFC00220390002320002900FBF709
:104A20001BFD00280ED00398FDF7B2FC0B0002001E
:104A300029002000FBF70AFD030058425841039B60
:104A40001B1A039301231693039B162B0FD882493D
:104A5000DB00C91808684968069A079BFBF710FD38
:104A600000284BD0039B013B0393002316931A9B12
:104A70009E1B00230B933300013B0C9304D50123B1
:104A80009B1B0B9300230C93039B002B38DB039A97
:104A90000C9B944663440C9300230F920893229B33
:104AA0000125092B00D991E0052B02DD0025043BEF
:104AB0002293229B981E032800D991E0FBF72CFB40
:104AC000828429761A9B1B9A9E18644BF218202A1E
:104AD0000FDD634B0698F318D84040239B1A9C4087
:104AE0002043FDF797FC01235E4C013E0919189302
:104AF00071E7202306989B1A9840F2E71690B6E7D4
:104B00000B9B039A9B1A0B935342089300230F931A
:104B1000C5E701230E93239B002B65DD1F000D933A
:104B2000049A546A002262600432110014319942DE
:104B30005FD96168049800F0E5FC049B20605B6A23
:104B40001B680A930E2F00D905E1002D00D102E168
:104B5000069B079C14931594039B002B00DC85E0B7
:104B60001A000F213C4B0A40D2009B185C681B685E
:104B700010931194039B02241D11EB060AD53A4BA6
:104B80000D401A6A5B6A14981599FCF7E3F90690D0
:104B900007910134344E002D30D1109A119B0698A4
:104BA0000799FCF7D7F9069007917AE00123239A39
:104BB0000E939446039B63445F1C0D933B1EAFDC36
:104BC0000123ADE70023A5E70023F0E700230E95BE
:104BD0002293013B00220D931F00133323929FE782
:104BE00001230E93023BF5E701230D931F001A00EA
:104BF000F4E7616852000131616096E701231D42CC
:104C000008D010981199E41832687368FCF7D6FD43
:104C1000109011916D100836BDE7C0460000F07F7E
:104C20000F270000346100083761000807610008A1
:104C3000086100080000F03F01FCFFFF0000F83FA2
:104C400061436F63A787D23FB3C8608B288AC63F92
:104C5000FB799F501344D33F606100083204000089
:104C600012040000000010FE38610008039B0224BB
:104C7000002B16D0149815995D420F23CA4A2B4079
:104C8000DB00D3181A685B68FCF798FD00230690D8
:104C90000791C64E2D11002D00D08CE0002B00D0C6
:104CA00081E7169B002B00D191E0069A079B10929A
:104CB0001193109811990022BD4BFBF7CDFB0028F2
:104CC00000D184E0002F00D181E00D9B002B3EDD60
:104CD00010981199039B00225E1EB64BFCF76EFDE7
:104CE000069007910D9D01342000FDF751FB069AB7
:104CF000079BFCF763FD0022AF4BFBF71BFE1290F6
:104D00001391129B139CAD4A10931194139B9C1802
:104D10001194002D5ED1069807990022A84BFCF74C
:104D2000CDFF109A230006900791FBF7A9FB0028FE
:104D300000D001E3A3481399844661440B00069810
:104D40000799109AFBF788FB002800D0E8E2149B33
:104D5000159C069307941B9B002B00DA57E1039ADE
:104D60000E2A00DD53E1904BD2009B185C681B6853
:104D700008930994239B002B00DBCEE0002F00DD7D
:104D8000CBE000D0CFE20898099900228C4BFCF7C9
:104D900015FD069A079BFBF77DFB3E000897002850
:104DA00000D0A4E20A9B0A9A5D1C31231370039B76
:104DB000013303939FE20122154205D0A418326803
:104DC0007368FCF7FBFC01236D10083663E7039E54
:104DD0003D0089E70A9A691E521917920E9A724B82
:104DE000C900002A4AD05B181A685B68002076491F
:104DF000FCF7B0F8109A119BFCF760FF0A9B10902B
:104E00001191129306980799FDF78EFA0400FDF7A9
:104E1000BFFA02000B0006980799FCF74FFF129BA0
:104E200030345D1C1C70109A119B06900791FBF7A3
:104E300013FB002865D1069A079B00205C49FCF70C
:104E40003DFF109A119BFBF707FB002800D0BEE046
:104E5000179B9D4200D17AE7109811990022554B7B
:104E6000FCF7ACFC00221090119106980799514B69
:104E7000FCF7A4FC129506900791C3E7591808683F
:104E80004968109A119BFCF799FC109011910A9CAB
:104E9000179D06980799FDF747FA1290FDF778FAE3
:104EA00002000B0006980799FCF708FF129B06907A
:104EB000079130332370179B01340022A34224D181
:104EC000414B10981199FBF735FD02000B00069835
:104ED0000799FBF7D5FA002800D078E0109A119BCB
:104EE00000203949FCF7EAFE02000B0006980799FA
:104EF000FBF7B2FA002800D129E76B1E1A78302A96
:104F000001D003963FE01D00F7E706980799294B6B
:104F1000FCF754FC06900791BBE70A9E089A099B90
:104F200006980799FCF716F8FDF7FEF90400FDF75F
:104F30002FFA089A099BFCF741FC0B000200069827
:104F40000799FCF7BBFE2300303333700A9B751CB6
:104F5000EB1A9F424CD102000B00FBF7EBFC060062
:104F60000F0002000B0008980999FBF775FA00285A
:104F70002CD10898099932003B00FBF767FA00280A
:104F800001D0E30722D40599049800F0F3FA002336
:104F90002B70039B249A01331360269B002B00D1B6
:104FA00075E21D6073E2C046606100083861000868
:104FB0000000F03F0000244000001C400000C0FC46
:104FC000000014400000C07C0000E03F039E6B1E08
:104FD0001A78392A06D10A9A9A4207D130231370D7
:104FE000130001361A7801321A708AE71D00EEE7C5
:104FF0000022CF4BFCF7E2FB002200230690079132
:105000002E00FBF723FA002800D187E7BBE70E9AB2
:10501000002A00D187E0229A012A6EDC189A002A21
:1050200067D0C44A9B18089D0B9C0B9A0121D2188B
:105030000B920C9A0498D3180C9300F039FB0600DD
:10504000002C0EDD0C9B002B0BDD0C9A23009442F0
:1050500000DD13000B9AE41AD21A0B920C9AD31AA1
:105060000C93089B002B1ED00E9B002B5FD0002DB5
:1050700011DD31002A00049800F0B2FB059A01000E
:105080000600049800F01DFB05991090049800F0AC
:1050900071FA109B0593089B5A1B04D0059904983C
:1050A00000F09EFB05900121049800F001FB0F9B8E
:1050B0000890002B3DDD1A000100049800F090FBE1
:1050C000229B08900025012B3BDC0025069BAB4270
:1050D00033D1079B1B03AB422FD1199B079A134275
:1050E0002BD00B9B013501330B930C9B01330C939D
:1050F00023E036231A9A9B1A95E7089B7D1EAB4244
:1051000006DB5D1B002F0BDA0B9BDC1B00238CE7FF
:10511000089B0895EA1A0F9B00259B180F93F1E74F
:105120000B9C3B0081E7089D0B9C0E9E88E7089A2C
:10513000B4E7229B0025012BC7DD0F9B0120002B2C
:105140000BD0089B089A1B690F9303339B00D3185D
:10515000586800F064FA2023181A0C9BC0181F230B
:10516000184000D1ABE001331B1A042B00DC9BE09C
:105170001C23181A0B9B24181B180B930C9B1B1831
:105180000C930B9B002B05DD1A000599049800F089
:1051900079FB05900C9B002B05DD1A0008990498FB
:1051A00000F070FB0890169B002B00D189E0089955
:1051B000059800F0B8FB002800DB82E0039B0A2280
:1051C000013B039305990023049800F0ECF90E9B32
:1051D0000590002B00D15DE1002331000A220498E4
:1051E00000F0E1F90D9B0600002B02DC229B022B54
:1051F0006DDC002C05DD31002200049800F042FB3C
:1052000006003000002D11D07168049800F07AF982
:105210003100040033690C319A1C92000C3000F00C
:1052200068F901222100049800F02CFB0D9F0A9BD5
:10523000013F0B93DB19370006000F93089905987F
:10524000FFF7CAFA39000D900400059800F06BFBD7
:1052500032000E900899049800F07EFB01230C9315
:10526000C36830340500002B04D10100059800F01C
:105270005AFB0C902900049800F07CF90C9B229AB0
:10528000134300D089E0069A0133134200D084E032
:10529000392C00D1A3E00E9B002B01DD0D9C313495
:1052A0000B9B5D1C1C7027E0042B00D169E70B9A57
:1052B0001C33D2180B920C9AE418D31860E7030041
:1052C000F5E7002F3CDC229B022B39DD0D970D9B6F
:1052D000002B0CD108990522049800F064F908907D
:1052E0000100059800F01FFB002800DD5AE5239B14
:1052F0000A9DDB43039300270899049800F03AF9CC
:10530000002E00D13FE6002F05D0B74203D0390070
:10531000049800F02FF93100049800F02BF932E6E0
:1053200008952E00E3E7002308931E00DFE7C04640
:105330000000244033040000039608952E0031E558
:105340000E9B0D97002B00D053E70A9D08990598F6
:10535000FFF742FA0A9B30300D9A2870013504009D
:10536000EB1A9A4278DC151E00DC012500270A9B07
:105370005D1905990122049800F084FA08990590B6
:1053800000F0D1FA00282FDC01D1E3072CD46B1EEA
:105390001A78302AB0D11D00F9E70E9B002B07DBED
:1053A0001D00229B1D4326D10123069A134222D1C0
:1053B0000C9B002B00DC73E705990122049800F098
:1053C00061FA0899059000F0AEFA002804DC00D0DC
:1053D00066E7E30700D463E7392C00D05EE70B9B58
:1053E0000B9A5D1C392313706B1E1A78392A3BD037
:1053F00001321A7080E70B9B01330D930C9B002B3D
:1054000005DD392CEBD00D9D01340B9B4AE70B9B3E
:105410000F9A0D9D1C709342ABD000230A22059970
:10542000049800F0C0F8002305900A22390004987F
:10543000B74206D100F0B7F8070006000D9B0B93AA
:10544000FCE600F0B0F83100070000230A220498BF
:1054500000F0A9F80600F1E700230A220599049854
:1054600000F0A1F8059071E70A9A9A4205D1039BD2
:1054700001330393312313703EE71D00B4E70A4B59
:10548000269A0A93094B002A01D0269A13600A989B
:105490001DB0F0BD0D9B002B00DD56E7229B022BBB
:1054A00000DC52E713E7C0462B61000833610008B7
:1054B000034B1B68186A002800D10248F03070477F
:1054C000080000206C00002010B5034B0100186894
:1054D00000F052FB10BDC04608000020C9B282187F
:1054E000904201D10020704703788B42FBD00130FD
:1054F000F6E7002310B59A4200D110BDCC5CC4542D
:105500000133F8E770B5466A04000D00002E07D19C
:105510001020FFF7D9FF6062466086600660C660B3
:10552000666AF368002B13D0636AAA00DB689B18D5
:105530001868002818D101210E00AE40721D92009B
:10554000200000F0C1FA00280CD0456086600DE014
:1055500021220421200000F0B7FA636AF060DB68C2
:10556000002BE1D1002070BD02681A6000230361A6
:10557000C360F8E770B5446A06000D00002C07D13F
:105580001020FFF7A1FF7062446084600460C46073
:10559000002D07D0736A6A68DB6892009B181A684E
:1055A0002A601D6070BDF7B51E0014239C460700DD
:1055B0000C0000200D698C44634619881B68514318
:1055C0001B0C534389190E0C9B1989B21E0C1B042A
:1055D0005B186146013008C18C468542ECDC002E28
:1055E0001BD0A3689D4212DB63683800591CFFF78B
:1055F00089FF2100236901909A1C92000C310C3024
:10560000FFF777FF21003800FFF7B4FF019C2B1D47
:105610009B00E31801355E6025612000FEBD03009C
:10562000020C0020824201D11B0410301A0E01D15D
:1056300008301B021A0F01D104301B019A0F01D14F
:1056400002309B00002B03DB01305B0000D42020E4
:1056500070470722036810B501001A400DD00124DD
:105660000020234205D10230034203D0E340200052
:105670000B6010BD9B080B60FBE79CB21000002C78
:1056800001D110201B0CDAB2002A01D108301B0A0C
:105690001A0701D104301B099A0701D102309B0877
:1056A000DA07E8D45B0801D00130E4E72020E0E726
:1056B00010B50C000121FFF725FF012344610361B0
:1056C00010BDF0B50B691500126989B00C0093424A
:1056D00001DA2C000D0027692E69A268BB196168E8
:1056E0000193934200DD0131FFF70CFF03001433F7
:1056F0000093009ABB1994469B009C44130000221F
:10570000049063451CD32A001434BF00E3191432FB
:10571000B6000593931902940693069B9A4211D3FF
:10572000019B002B06DD04235B429C4463461B68FF
:10573000002B51D0049B019A18001A6109B0F0BDEA
:1057400004C3DEE71488002C1ED00026009D029FB3
:1057500001CF079508CD039383B2634319006B46CD
:10576000000C9B896043CB1803999B19090C4118C5
:10577000180C09180E0C9BB209040B4307990B6017
:10578000059BBB42E4D82E6013681B0C03931ED00C
:105790000026009B029C1B68009807002188039D3F
:1057A0009BB2694320C82D0C49198E1931040B4353
:1057B0003B6008CC03991B0C4B437968360C89B2CB
:1057C0005B1805999B191E0CA142E6D80360009B4B
:1057D000043204330093A0E7019B013B01939FE750
:1057E0000323F7B5134005000E001400002B08D06A
:1057F0002249013B9A00525800233100FFF7D3FEA3
:105800000600A310019336D06C6A002C07D110203B
:10581000FFF75AFE6862446084600460C4606F6A87
:10582000BC68002C07D116492800FFF741FF002370
:105830000400B86003600122019B13420AD03100CA
:1058400022002800FFF73DFF070031002800FFF786
:1058500091FE3E00019B5B1001930CD02068002854
:1058600007D1220021002800FFF72BFF0023206032
:1058700003600400DFE73000FEBDC0462862000878
:1058800071020000F0B50D0017002B69541185B0AE
:10589000E3180293013301934968AB680390019ABE
:1058A000934234DB0398FFF72DFE0023020006002D
:1058B00019001432A3422DDBE343DB171C402B00FD
:1058C0001F21A40014192A69143392009A180F405A
:1058D00024D00131C91B8C4600211868B84001430F
:1058E0006046216002CB0434C1409A42F5D8216061
:1058F000002902D0029B02330193019B0398013BD4
:1059000033612900FFF736FE300005B0F0BD0131EC
:105910005B00C4E7980011500133CBE702CB02C40F
:105920009A42FBD8E9E70A69036930B59B1A0ED1A0
:1059300092001430143184188918043C0439226808
:105940000D68AA4205D0AA429241012313431800D0
:1059500030BDA042F1D3FAE7F0B50D0085B00700E5
:10596000110028001400FFF7DEFF061E08D1010019
:105970003800FFF7C7FD01234661036105B0F0BDA4
:1059800001230193002804DB23002C001D000023C9
:10599000019361683800FFF7B5FD2F000022019BDD
:1059A0002669C3601434B300E31802932B691437DB
:1059B0009B00FB18039303009446143320CC04CFC0
:1059C0000192AAB294446A46614692882D0C8A1AC2
:1059D0000199090C691A151449190D1492B2090498
:1059E0000A431A60039AAC460433BA42E6D80299D5
:1059F0001A008C4205D3043A1368002B0ED00661BE
:105A0000BCE704CC91B261440D14120C5219151468
:105A100089B212040A43AC4604C3E8E7013EEAE750
:105A2000F7B51D000121089F1400FFF76BFD2B0344
:105A30006D0006001B0B6D0D24D10193002C27D0A7
:105A400068460094FFF705FE009C00281ED0019BCD
:105A500020211A00091A8A40C3402243726101932F
:105A6000019CB461631E9C4101343461002D18D047
:105A7000124BED1835232D183D60181A099B18603C
:105A80003000FEBD802252031343D6E77461E7E77E
:105A900001A8FFF7DEFD0124019B34617361203012
:105AA000E4E7074BC018074B3860E3189B00F31876
:105AB0005869FFF7B4FD6401201ADFE7CDFBFFFF53
:105AC000CEFBFFFFFFFFFF3F4A4370B511001400FC
:105AD00000F052F8051E03D022000021FEF7E0F985
