:020000040800F2
:1000000000500020814A0008814900088349000807
:1000100000000000000000000000000000000000E0
:1000200000000000000000000000000085490008FA
:10003000000000000000000087490008894900080E
:10004000D14A0008D14A0008D14A0008D14A000824
:10005000D14A0008D14A0008D14A0008D14A000814
:10006000D14A0008D14A0008D14A0008D14A000804
:10007000D14A0008D14A0008D14A0008D14A0008F4
:10008000D14A0008D14A0008D14A00080000000007
:10009000D14A0008D14A0008D14A0008D14A0008D4
:1000A000D14A0008D14A0008D14A00089149000805
:1000B000D14A0008D14A0008D14A0008D14A0008B4
:1000C00010B5064C2378002B07D1054B002B02D02E
:1000D000044800E000BF0123237010BD840200200B
:1000E00000000000CC8C0008044B10B5002B03D09E
:1000F0000349044800E000BF10BDC04600000000F6
:1001000088020020CC8C00080023C25C0133002A46
:10011000FBD1581E7047000002B4714649084900DF
:10012000095C49008E4402BC7047C04603B4714666
:10013000490840004900095E49008E4403BC7047ED
:10014000002243088B4274D303098B425FD3030A16
:100150008B4244D3030B8B4228D3030C8B420DD329
:10016000FF22090212BA030C8B4202D312120902B7
:1001700065D0030B8B4219D300E0090AC30B8B42F5
:1001800001D3CB03C01A5241830B8B4201D38B03A3
:10019000C01A5241430B8B4201D34B03C01A524148
:1001A000030B8B4201D30B03C01A5241C30A8B428B
:1001B00001D3CB02C01A5241830A8B4201D38B0276
:1001C000C01A5241430A8B4201D34B02C01A52411A
:1001D000030A8B4201D30B02C01A5241CDD2C3098C
:1001E0008B4201D3CB01C01A524183098B4201D308
:1001F0008B01C01A524143098B4201D34B01C01AF3
:10020000524103098B4201D30B01C01A5241C3086A
:100210008B4201D3CB00C01A524183088B4201D3D9
:100220008B00C01A524143088B4201D34B00C01AC5
:100230005241411A00D20146524110467047FFE731
:1002400001B5002000F0F0F802BDC0460029F7D04B
:1002500076E7704703460B437FD4002243088B4266
:1002600074D303098B425FD3030A8B4244D3030B3D
:100270008B4228D3030C8B420DD3FF22090212BA02
:10028000030C8B4202D31212090265D0030B8B427E
:1002900019D300E0090AC30B8B4201D3CB03C01A68
:1002A0005241830B8B4201D38B03C01A5241430B43
:1002B0008B4201D34B03C01A5241030B8B4201D333
:1002C0000B03C01A5241C30A8B4201D3CB02C01A9E
:1002D0005241830A8B4201D38B02C01A5241430A16
:1002E0008B4201D34B02C01A5241030A8B4201D305
:1002F0000B02C01A5241CDD2C3098B4201D3CB01AC
:10030000C01A524183098B4201D38B01C01A52415A
:1003100043098B4201D34B01C01A524103098B425E
:1003200001D30B01C01A5241C3088B4201D3CB0049
:10033000C01A524183088B4201D38B00C01A52412C
:1003400043088B4201D34B00C01A5241411A00D2DC
:1003500001465241104670475DE0CA0F00D0494245
:10036000031000D34042534000229C4603098B42B5
:100370002DD3030A8B4212D3FC22890112BA030A3D
:100380008B420CD3890192118B4208D389019211BF
:100390008B4204D389013AD0921100E08909C30944
:1003A0008B4201D3CB01C01A524183098B4201D346
:1003B0008B01C01A524143098B4201D34B01C01A31
:1003C000524103098B4201D30B01C01A5241C308A9
:1003D0008B4201D3CB00C01A524183088B4201D318
:1003E0008B00C01A5241D9D243088B4201D34B0033
:1003F000C01A5241411A00D20146634652415B1075
:10040000104601D34042002B00D549427047634655
:100410005B1000D3404201B5002000F005F802BD9A
:100420000029F8D016E770477047C0468446101C74
:1004300062468C46191C634600E0C0461FB501F0B9
:10044000F3FD002801D40021C8421FBD10B501F002
:100450004DFD4042013010BD10B501F0E5FD002812
:1004600001DB002010BD012010BDC04610B501F019
:10047000DBFD002801DD002010BD012010BDC046BD
:1004800010B501F06DFD002801DC002010BD012039
:1004900010BDC04610B501F063FD002801DA002050
:1004A00010BD012010BDC0468446081C6146FFE710
:1004B0001FB500F089FC002801D40021C8421FBDEF
:1004C00010B500F01BFC4042013010BD10B500F02B
:1004D0007BFC002801DB002010BD012010BDC046C0
:1004E00010B500F071FC002801DD002010BD0120D6
:1004F00010BDC04610B500F027FC002801DC00202C
:1005000010BD012010BDC04610B500F01DFC002834
:1005100001DA002010BD012010BDC046002B11D112
:10052000002A0FD1002900D1002802D00021C943A0
:10053000081C07B4024802A14018029003BDC0463F
:10054000E9FEFFFF03B4684601B5029800F03CF8ED
:10055000019B9E4602B00CBC7047C0469E2110B560
:10056000C905041CFFF7D0FF002803D1201C00F0B0
:1005700009FE10BD9E21201CC90500F067FC00F09B
:1005800001FE80231B069C466044F2E770B5002202
:100590000C4B04000D00FFF77DFF002804D1200064
:1005A000290002F059FB70BD064B002220002900F3
:1005B00002F01CF802F050FB80231B069C466044AE
:1005C000F1E7C0460000E041F0B557464E464546CB
:1005D000DE46E0B5040083B00D00924699468B429A
:1005E0002FD82CD04946504602F0DEFC29000600E8
:1005F000200002F0D9FC331A9846203B9B4600D5D8
:1006000074E053465A4693401F0053464246934077
:100610001E00AF4229D826D05B46A41BBD41002B4B
:1006200000DA79E0002200230092019301235A4668
:1006300093400193012342469340009319E0824284
:10064000D0D900220023009201930C9B002B01D0F3
:100650001C605D600098019903B03CBC90469946CF
:10066000A246AB46F0BDA342D6D900220023009299
:1006700001934346002BE8D0FB0772081A43464615
:100680007B080EE0AB4201D1A2420CD8A41A9D41D6
:10069000012024196D410021013E24184D41002EF6
:1006A00006D0AB42EED9013E24196D41002EF8D19F
:1006B0005B460098019900196941002B22DB2B0051
:1006C0005A46D3402A004446E2401C005B461500CF
:1006D000002B2CDB26009E40330026004746BE4000
:1006E0003200801A994100900191AEE742462023E2
:1006F0009B1A5246DA40414613004A468A40170088
:100700001F4382E7424620239B1A2A0046469A400E
:100710002300F3401343D5E74246202300219B1AD0
:100720000022009101920122DA40019282E74246C2
:10073000202326009B1ADE402F00B44697406646D1
:100740003B003343C9E7C046F0B5C6464E024702F8
:10075000760A7B0A4400C50FF7004800984600B5AA
:10076000240E2A00DB00000EC90FBC468D4267D064
:10077000221A002A00DCA5E000283AD1002F00D17F
:1007800093E0511E002900D0BCE00124DB1B5A017C
:1007900046D59B019E09300002F0E8FB05388640F3
:1007A000844200DD9DE0041B320020200134E24041
:1007B000041BA64033005E1EB341002413435A07B6
:1007C00004D00F221A40042A00D004335A0129D53C
:1007D0000134FF2C00D181E02A009B015B0AE4B2C6
:1007E0005B02E405580AD2072043104304BC90463C
:1007F000F0BDFF2CE3D080213800C90408438446B3
:100800001B2A00DD82E020206146D140821A60462A
:1008100090400200501E82410A439B1A5A01B8D4EC
:100820005A07CED1DE082A00FF2C3AD1002E00D183
:10083000AEE08023DB0333435B025B0AFF24CFE798
:10084000211A002952DD002831D0FF2CB7D080209A
:100850003E00C0040643B4461B2900DDAAE0202662
:100860006046C840711A66468E4031004E1EB14146
:1008700001435B185901D3D50134FF2C00D187E027
:10088000012278491A405B080B40134397E7002C7C
:1008900000D0A7E0002B00D0B6E03B1E62D10026BE
:1008A000002273025B0AE4B29AE7140087E7002F84
:1008B0004DD0481E002857D1634401245A01AFD5BA
:1008C0000224DDE7002A24D1621CD2B2012ADEDD37
:1008D000DE1B720135D5FE1A0D005CE72A000023ED
:1008E0007EE73300604A241A134068E7002963D189
:1008F000611CC8B201284EDDFF2949D063445B0862
:100900000C005CE7FF2A41D00A0079E701229B1A1C
:1009100084E7002C1DD0FF2822D08024E40452421A
:1009200023431B2A00DD8AE01C002025D440AA1A9C
:1009300093405A1E9341234362460400D31A0D008C
:1009400025E7002E00D026E700220024A9E70C00AE
:1009500035E7002B4DD0D243002AEDD0FF28E0D15F
:100960006346FF240D002AE7FF290FD0010073E73B
:10097000002B61D0FF24002F00D120E780224146C8
:10098000D203114202D0164200D13B00FF2416E7E9
:10099000FF24002324E7002CEAD1002B58D0002F9D
:1009A00000D10CE763445A0100D439E72E4A0C0009
:1009B000134004E701215CE7002C1ED1002B40D03E
:1009C000C94300290BD0FF2836D01B2947DC1C0067
:1009D0002026CC40711A8B40591E8B41234363441F
:1009E000040047E7002B18D13B1E2DD00D00FF243B
:1009F000E5E63B0004000D00E1E6FF281CD0802462
:100A0000E40449422343E0E7002F00D1D7E6DE1B90
:100A100072011FD5FB1A0D00D1E6FF24002F00D173
:100A2000CDE680224046D2031042AFD01642ADD16F
:100A30003B000D00FF24C2E66346FF24BFE601230E
:100A40007AE73B000400BAE680260022F603F0E6CF
:100A50003B00B4E6331E00D0E2E6002221E701238A
:100A6000BDE7C046FFFFFF7DFFFFFFFBF0B5574628
:100A70004E46DE464546E0B544024300C60F83B00D
:100A80000F1C640A1B0EB24653D0FF2B27D08022C6
:100A9000E400D20414437F2252429046984400233B
:100AA00099469B467D027800FB0F6D0A000E00936D
:100AB00024D0FF2846D080230021ED00DB041D4315
:100AC0007F384746381A4F460F43BF00B9463300B8
:100AD000009A874F53404A46BA5801939746002CD4
:100AE0004ED108239946F7339846FD3B9B467D023D
:100AF0007800FB0F6D0A000E0093DAD1002D26D18D
:100B0000002001213300009A7A4F53404246101AC8
:100B10004A460A439200BA581D009746009B2C0093
:100B20009A468B465B46022B31D15346FF21002467
:100B300038E0002C17D1042399460023984601334E
:100B40009B46AFE7FF20002D0BD10221DAE72800FA
:100B500002F00CFA431F9D4076235B42181A0021D5
:100B6000AFE70321ADE7200002F000FA431F9C40ED
:100B700076235B421B1A9846002399469B4691E7D1
:100B80000C239946F3339846FC3B9B468AE7032B9C
:100B900000D1A5E05546012B00D081E001230021C2
:100BA00000242B406402C905600ADB070843184390
:100BB00003B03CBC90469946A246AB46F0BD8024AB
:100BC0000023E403FF21EDE7FF210024EAE70123EE
:100BD000591A1B2966DD019A134000210024E1E720
:100BE0008023DB031C4238D01D4251D01C436402D9
:100BF000640A3300FF21D5E763016C01A3423BD2B5
:100C00001B260021013801251F0049005B00002F31
:100C100001DB9C4201D81B1B2943013E002EF3D16E
:100C20001C00631E9C410C4301007F310029CEDD76
:100C3000630704D00F232340042B00D00434230186
:100C400003D501002C4B80311C40FE290DDD012312
:100C5000019AFF2113400024A4E78023DB031C43F7
:100C60006402640A3300FF219CE70123019AA40176
:100C7000640AC9B2134095E71B1B1A260121C2E77B
:100C8000009B8B469A4600244CE76302E5D500257D
:100C90008024E4032C436402640A009BFF2181E763
:100CA0000195C1E723002020CB40411A8C40611EF2
:100CB0008C411C43630704D00F232340042B00D036
:100CC0000434630105D50123019A01211340002456
:100CD00068E70123019AA401640A1340002161E737
:100CE0008023DB031C436402640A5346FF2159E757
:100CF000E88C0008288D0008FFFFFFF770B5420060
:100D000045024E024C00C30F6D0A120E760A240EE5
:100D1000C90F0120FF2A06D0FF2C03D0A24201D127
:100D2000B54206D070BD002DFCD1FF2CFAD1002EAB
:100D3000F8D18B4206D00120002AF3D12800451EAD
:100D4000A841EFE70020EDE7F0B5420045024C0274
:100D5000C30F48006D0A120E640A000EC90FFF2A65
:100D60001ED0FF2821D0002A0AD16E426E41F6B271
:100D700000280FD1002C0DD10020002D09D005E056
:100D8000002801D1002C01D08B4211D00121584202
:100D90000843F0BD002EF7D0012001390843F8E7E1
:100DA000002DDED002204042F3E7002CDBD0F9E733
:100DB0008242EBDC04DBA542E8D80020A542E8D261
:100DC0000121581E0843E4E7F0B542004D024C00F3
:100DD0004602760A120EC30F6D0A240EC90FFF2AAF
:100DE00016D0FF2C18D0002A0AD170427041C0B230
:100DF000002C15D0002805D0012001390843F0BD92
:100E0000002C13D0994214D001205B421843F6E71E
:100E10000220002EF3D1E4E70220002DEFD1E2E71B
:100E2000002DE7D10020002EE9D0EDE7002DE9D11B
:100E3000EAE7A24206DCDFDBAE4203D80020AE4286
:100E4000DAD3DCE7012049420843D8E7F0B54F4642
:100E5000D64646464400C0B5C20F47024802400A83
:100E6000844666467B0A4800C90F9A46240E150040
:100E7000DB00000E8946F600FF2800D18FE001213B
:100E80004F464F403900914266D0221A002A00DCBA
:100E90009DE000283DD1002E00D18BE0511E00299D
:100EA00000D0B5E001249B1B5A0144D59B019F094A
:100EB000380002F05BF805388740844200DD96E098
:100EC000041B3A0020200134E240041BA7403B00F1
:100ED0005F1EBB41002413435A0704D00F221A405F
:100EE000042A00D004335A0127D50134FF2C00D145
:100EF00079E001229B015B0AE4B22A405B02E4052F
:100F0000580AD207204310431CBC90469946A2467B
:100F1000F0BDFF2CE0D08021C9040E431B2A7BDCEE
:100F200031002020D140821A9640721E96410E4315
:100F30009B1B5A01BAD45A07D0D10122DF082A409C
:100F4000FF2C33D1002F00D1A8E08023DB033B43EB
:100F50005B025B0AFF24D1E7211A00294CDD00283F
:100F60002AD0FF2CB8D08020C00406431B2900DD06
:100F7000AFE030002027C840791A8E40711E8E41A4
:100F800006439B195901D6D50134FF2C00D185E0C9
:100F900001227A491A405B080B4013439CE7002E5C
:100FA00000D070E76BE73B1EC5D100227B025B0AD5
:100FB000E4B2A3E714008FE7002E4DD0481E0028AE
:100FC00057D19B1901245A01B5D50224E0E7002A24
:100FD00025D1621CD2B2012A72DD9F1B7A0135D560
:100FE000F71A0D0064E7012200232A4086E73B0040
:100FF000634A241A13406FE700296CD1611CC8B200
:1010000001284EDDFF2949D09B195B080C0063E7DE
:10101000FF2A41D00A0081E701269B1B89E7002CAB
:101020001CD0FF2821D08024E404524223431B2AF1
:1010300000DD96E01C002025D440AA1A93405A1ED9
:1010400093412343F31A04000D002DE7002F00D035
:101050002EE700220024A9E70C003DE7002B58D022
:10106000D243002AEED0FF28E1D13300FF240D0047
:1010700032E7FF2910D0010078E7002B6ED0FF2463
:10108000002E00D128E780225146D203114203D01E
:101090006146114200D13300FF241DE7FF240023E5
:1010A0002CE7002CE9D1002B63D0002E00D113E7F0
:1010B0009B195A0100D43EE7314A0C0013400BE75C
:1010C000002C1ED1002B2FD1002E4FD033000D004D
:1010D00002E7012655E7002C1FD1002B43D0C9435E
:1010E00000290BD0FF2839D01B2944DC1C00202705
:1010F000CC40791A8B40591E8B4123439B19040025
:1011000040E7002B1AD1002E24D180270022FF03B4
:101110001BE7330004000D00DEE6FF281ED080240C
:10112000E40449422343DFE7002E00D1D4E69F1BAD
:101130007A0100D437E7F31A0D00CDE6FF24002E24
:1011400000D1C9E680225046D2031042A4D06046A6
:101150001042A1D133000D00FF24BDE63300FF246F
:10116000BAE601236EE733000400B5E6002700224B
:101170001CE73300B0E60123C0E7C046FFFFFF7D58
:10118000FFFFFFFB41024300C20F490A1B0E002074
:101190007E2B0DDD9D2B0CDC802000040143952B64
:1011A0000ADC9620C31AD9404842002A00D1080020
:1011B0007047034BD018FBE7963B9940F4E7C046D5
:1011C000FFFFFF7F70B5002830D0C317C4185C4004
:1011D000C50F200001F0CAFE9E231B1A962B0DDCC2
:1011E0009622D21A94402A006402640ADBB2640296
:1011F000DB05600AD2071843104370BD992B19DC38
:101200009922D21A002A29DD94402200144C14405D
:10121000510704D00F210A40042A00D0043462018F
:1012200013D4A401640ADBB22A00E0E70022002301
:101230000024DCE705222100121AD140B922D21A7B
:101240009440621E94410C43DAE7054B2A001C408F
:101250009F23A4011B1A640ADBB2C8E72200D5E76A
:10126000FFFFFFFBF8B54546DE4657464E460C03EA
:10127000E0B54E00C90F88460D00610A440F0C43CB
:10128000C70019035800DB0F9B464B0A510F0B4355
:10129000760D400D1900D200D84500D1AEE0351AC8
:1012A000002D00DCF6E000280FD1134300D1DBE075
:1012B0006B1E002B00D037E1BA1A9742BF41641A67
:1012C0007F42E41B0126170024E0C64B9E424DD00E
:1012D00080231B041943382D00DD07E11F2D00DD9D
:1012E00038E12020431B9A460B0050468340994624
:1012F00013004846EB401843030050468240501EFE
:101300008241E9401A43BA1A611A9742A441170070
:1013100064420C1B230262D56402650A002D00D1D1
:10132000DFE0280001F022FE0300083B1F2B00DD58
:10133000D2E020223C00D21A9D40D4409F40254359
:101340009E4200DDC4E09E1B731C1F2B00DDF1E0FC
:10135000202238002900D21AD840914097402C0012
:101360000143781E8741DC4000260F437B0709D0EC
:101370000F233B40042B05D03B1DBB42BF417F42A6
:10138000E4191F0023022CD5964B01369E4200D152
:101390009AE04546944BFF081C40600776056402BE
:1013A0000743240B760D00212403230B0C0D8F4AD9
:1013B00024051C431440330523435B00ED075B0801
:1013C0002B43380019003CBC90469946A246AB46D8
:1013D000F8BD6446044300D111E2040067467B0770
:1013E000C6D145466007FF080743E4087D4B9E428F
:1013F00030D024037605240B760DD4E7331A9A46B1
:10140000002B78DD002831D076488642AED080208F
:10141000000401435346382B00DCE9E00A43511E27
:101420008A410021D219BA42BF4109197C421700F2
:101430000C192302D3D56B4B01369E4200D13AE101
:101440000120694B1C407B0807401F43E00707430E
:1014500064088BE723003B4300D1CBE180221203D9
:1014600014432403240B9EE72E007FE7080010435B
:1014700000D1B4E0581E002800D0DEE0BA18BA420D
:101480009B4164185B42E418170001262302A6D58D
:101490000226D5E7002D6ED1701C4005400D0128B5
:1014A00000DCF9E0B81A844687428041E51A4042E0
:1014B0002D1A280200D489E0D71BBA4292411C1B86
:1014C0005242A51AD84629E74546002400276AE774
:1014D000454CF61A2C4049E73D0028388540002746
:1014E0002EE7380001F042FD20301DE70A43511E6F
:1014F0008A41002107E7002B00D0F3E0701C430570
:101500005B0D012B00DCADE0364B984200D1D1E001
:10151000BA18BA42BF4164187F42E419E70752087B
:1015200017436408060021E72E48854200D193E066
:101530001D00D0E629001F3EF140202B00D18DE098
:101540004022D31A9D402F437D1EAF4100240F43FC
:10155000002644E72B000800203BD8400300202D44
:1015600000D17DE04020451BA9400A43511E8A411D
:1015700000211A43C7E6002E50D01A4EB04257D071
:1015800080266B429946360434434B46382B00DDA7
:10159000D6E01F2B00DD35E12026F51A2600AE40EF
:1015A000B2463E00DE40AC46350056462E43654608
:1015B000AF407D1EAF41DC403743D71BBA4292415A
:1015C0000C1B5242A41A0600D846A3E6644667469E
:1015D0002C4300D0A2E600250026002706E71E00C7
:1015E000C4E6C046FF070000FFFF7FFFFFFF0F803C
:1015F0001F2B63DC2020C31A080098409C468346BA
:1016000053461000D84003005846184363469A409A
:10161000531E9A4153460243D94003E726003E43F6
:1016200006D0EB439946002BC7D0944EB042ACD1C4
:101630000C0017000600D84698E6904B9A450BD050
:101640008246E7E6002800D09EE01800104300D153
:10165000E9E01C001700D846884E87E6002572E7AF
:10166000002182E723003B43002E00D0ABE0002B9B
:1016700000D1E7E00B00134300D177E6BA18BA4275
:10168000BF4164187F42E419230200D4F2E07C4B8E
:1016900017001C40060069E620003843002ED1D117
:1016A00000285BD11C00144300D1A8E01C001700E7
:1016B000D8465BE606000024002797E650460B005C
:1016C0002038C34099465346202B00D195E0402353
:1016D00050461B1A99400A43511E8A414B4600212D
:1016E0001A439FE6002E30D126003E4367D0DB43ED
:1016F0009A46002B1CD0614EB04260D05346382B26
:1017000000DD96E01F2B00DD9FE02026F31A260067
:101710009E409C46B34653463E00DE4033005E4644
:101720001E4363469F407B1E9F415346DC40374328
:10173000BF189742924164185242A418060078E6F6
:1017400027437C1EA741002437E74C4EB04236D0D9
:1017500080265B4236049A463443CFE71800104394
:1017600000D103E6B81A84466745AD41E01A6D42E0
:10177000401B050200D42CE6D71BBA4292411C1B29
:101780005242A41AD846F1E51800104300D163E78D
:10179000F808670707438020E4080003044208D0E4
:1017A000DD08054205D1D208590711430F002C006E
:1017B000D8467B0FE4001C43FF00304ED6E50C00FA
:1017C00017000600D2E5002B38D00B00134300D1E0
:1017D00042E7F808670707438020E4080003044253
:1017E000E7D0CB080342E4D1D208490711430F00E8
:1017F0001C00DEE700270024D5E500216BE700256B
:101800000027F3E54E462500203EF5404B462E00CE
:10181000202B2DD04025ED1AAC4027437C1EA7413C
:1018200000243743C9E6802400252403134E0027F3
:10183000DCE527437C1EA741002479E70C00170054
:101840000E4E93E50C00170090E556462300203E0F
:10185000F34099465346202B0ED0402356469B1BFF
:101860009C4027437C1EA7414B4600241F435FE753
:101870000024D2E71700B2E50024F2E7FF070000DA
:10188000FFFF7FFFF0B557464546DE464E46E0B5C2
:101890004C000E0387B0834692461D008046360BEF
:1018A000640DCF0F002C4FD06F4B9C4235D080235E
:1018B000420F1B04F600134333439946C300984676
:1018C0006A4B00269C460023644403932B031B0BA6
:1018D0009B466B00ED0F50465B0D01955ED0624A52
:1018E000934253D05A46D1008022400F1204024343
:1018F0000A4393465246D1005C4A94460022634410
:101900003800684084460290E41A16430F2E00D92E
:10191000B4E0574BB6009B599F46030033439946AA
:101920006CD100239846023308260393CEE7CB46BA
:101930004146039A0197022A65D1019B4A4C9C4675
:101940000023002298466BE00300334399464ED0B3
:10195000002E00D1BCE1300001F008FB03000B3B7E
:101960001C2B00DDACE11D22D31A5A460100DA40DF
:1019700008398E401300334399465B468B409846A6
:1019800000233C4C0026241A03939FE751465A46F5
:10199000114329D1002293460232B1E7594601434F
:1019A0001ED05B46002B00D19EE1584601F0DEFAC6
:1019B00003000B3B1C2B00DD8FE102005946083A67
:1019C00091408B461D21CB1A5146D9400B005946F8
:1019D0000B4351469B469140264B00221B1A8FE732
:1019E000002301229B468BE75146032288E7002310
:1019F0009846013304260024039367E70323B14686
:101A000003930C2662E7032A00D15CE2019B012AC2
:101A100000D0E4E113409C460023002400229846B5
:101A200000211203130B0A0D12051A432305124C51
:101A300040462240134362465B00D2075B081343D3
:101A4000190007B03CBC90469946A246AB46F0BD93
:101A5000002380229C4612039846034CE0E70023B3
:101A6000014C00229846DBE7FF07000001FCFFFF66
:101A7000688D00080DFCFFFFFFFF0F80D94500D9DE
:101A800039E100D134E1002346464D469A46013CF7
:101A90005B460A0E1B021A430B02170C0393130436
:101AA0001B0C3900280090460193FEF749FB020009
:101AB000019B83465A43280039009146FEF7C6FB36
:101AC000350C09040D43A9450DD95B464544013B3E
:101AD000A84500D93AE1A94500D837E102235B4285
:101AE0009C464544E3444B46EB1A390018000493E6
:101AF000FEF726FB019B05004343390004989946F5
:101B0000FEF7A4FB330409041B0C0B43994509D9C8
:101B100043446A1E984500D91AE1994500D817E157
:101B2000023D43444A469B1A5A4612042A430399EB
:101B30009346100C0A0C914609045A46090C4E466D
:101B40000D001204120C454305915143724370433A
:101B500052190E0CB218954203D980256D02AC467D
:101B60006044150C09041204090C28185218834209
:101B700000D2CEE000D1C8E01D1A53469E1AB245ED
:101B800092415242AB1A9A46984500D117E139006A
:101B90001800FEF7D5FA019B050043433900504673
:101BA0000493FEF753FB04980B04310C194388424D
:101BB00009D941446B1E884500D907E1884200D805
:101BC00004E1023D4144049BCB1A18003900049300
:101BD000FEF7B6FA019B824643433900049801930D
:101BE000FEF734FB01980B043104090C19438842B9
:101BF0000DD953464144013B884500D9E8E088426D
:101C000000D8E5E002235B429C464144E244019B4C
:101C10002D04CE1A51462943059D4F462A000B0438
:101C2000080C1B0C5A4345437B4378435B19170C44
:101C3000FB189D4203D980256D02AC4660441D0C03
:101C400012041B04120C28189B18864200D293E041
:101C500000D18EE001231943A04BE318002B00DCD8
:101C600099E04A0700D09EE05A46D20106D55A466E
:101C70009B4B1A4080239346DB00E318994A93421A
:101C800068DD0123029A984C1A4000239446984636
:101C90000022C5E680224B46120313420AD05B465F
:101CA000134206D11A431203120BAC4688468E4CDF
:101CB000B6E64B461A431203120BBC468A4CAFE6FB
:101CC00003005A46283B9A4000239146984657E61F
:101CD000584601F04BF9203040E603005246283BBD
:101CE0009A400021934677E601F040F920305FE604
:101CF000884500D2C7E64B46DE075D0843465B08D1
:101D00001E434346DB079A46C2E60025924500D3B0
:101D100033E7039E5946B446E244B245AD416D42B5
:101D20004544EB180139984507D2984200D97FE025
:101D300000D1BCE01D1A8B461FE79845FAD1039DE0
:101D40005545F2D943468B461D1A16E79B46CAE60F
:101D50001500E7E65A46C90852070A435B05904654
:101D60005C0D5A460123029952021940120B8C460F
:101D700056E6002B00D16FE746444A1EB04529D9EC
:101D80001100864200D065E7039A934200D061E7D4
:101D900062E7012149420120C21A382A21DD029B53
:101DA00003409C4638E60F220A40042A00D15BE734
:101DB0000A00111D914292415242934454E7474B0D
:101DC000E318002BE5DD01225242F2E71D00FAE69E
:101DD0009A461CE7B04239D86ED011003AE7029318
:101DE0003AE71F2A3CDC20239B1A0C0058469940F6
:101DF00098404B1E99415B46D440D3402043084352
:101E00001A00430709D00F230340042B05D001001B
:101E1000081D88429B415B42D21813023AD5012328
:101E2000029A01241A400023944698460022F7E5BE
:101E3000022149428C46039DE344AC46E244AA4554
:101E4000AD416D424544ED182D1A96E68A1E039960
:101E50004D008D42894149424144761803958FE7F0
:101E60001F204042C31A5846D8400300202A28D0D9
:101E700040205D46821A954029434A1E91411943EC
:101E8000072300220B4009D00F2300220B4008003B
:101E9000042BBDD1010053075202120BC90819438C
:101EA000012388460299002419408C46B8E5524522
:101EB000BED88B46002560E6039D9D42C6D3110027
:101EC00062E70025D8E780225B4612031A43019B94
:101ED0001203120B9C468846034CA1E5FF03000049
:101EE000FFFFFFFEFE070000FF070000F0B54F46B2
:101EF0004646D6465C00C0B51F03DB0F9A46174B1B
:101F00000E034D0084468046360B6D0DC90F914679
:101F10003F0B640D01209D4208D09C4201D0A54298
:101F20000BD01CBC90469946A246F0BD6346334395
:101F3000F7D1AC42F5D13A43F3D10120BE42F0D102
:101F4000C845EED1514507D0002DEAD163461E4366
:101F50003000461EB041E4E70020E2E7FF07000042
:101F6000F0B54546DE4657464E46E0B51F033D0BED
:101F70002C4F0E034C00AB465D008446360B640DBF
:101F8000C90F90466D0DDB0FBC422AD0254FBD42D4
:101F90002DD0002C0FD13043070081467842784184
:101FA000C0B2002D17D15F463A4314D14B460020F2
:101FB000002B0AD006E0002D02D15846024301D082
:101FC000994218D04842012108433CBC90469946AA
:101FD000A246AB46F0BD0028F2D00120013B1843D9
:101FE000F3E737000743D1D002204042EDE75F46D8
:101FF0001743CED0F8E7AC42E4DC03DA481E0121F7
:102000000843E2E75E45DDD806D000205E45DCD21D
:102010000123481E1843D8E7C445D3D80020C4453F
:10202000F6D3D2E7FF070000F0B54E464546DE4640
:1020300057465C00E0B51F03DB0F99462A4B0E03A1
:102040004D00C90F8446360B6D0D8B4690463F0BF5
:10205000640D9D4220D0244B9C4222D0002D12D1F1
:10206000304343424341DBB2002C1FD0002B0CD045
:102070004B460120013B034318003CBC9046994667
:10208000A246AB46F0BD002C16D0CB4517D05B4620
:10209000594201230B43EFE7310002230143EBD107
:1020A000D9E7390002231143E6D1D7E73A43DDD11E
:1020B00000230028E0D0EAE73A43E6D1E7E7A5426B
:1020C000E5DC05DBBE42E2D807D00023BE42D3D216
:1020D0005946012301390B43CEE7C445D7D8002325
:1020E000C445F5D3C8E7C046FF070000F0B5574622
:1020F0004546DE464E46E0B50C0398464E00230B9F
:1021000087B0070092469B46760DCD0F002E6BD010
:102110006D4B9E4235D080245B46420F2404DB0089
:1021200014431C43C3009946684BA3469C460023B6
:1021300000276644029343461C035A00DB0F5046B7
:10214000240B520D984600D176E05F4B9A426DD039
:102150008023410F1B040B435C49E4008C461C4365
:10216000C300002062444146B6186940721C0191C8
:10217000944607430F2F00D9B0E0554ABF00D2590B
:1021800097465B460343994600D087E000239B4671
:10219000023308270293CEE742460192022867D015
:1021A000032800D10EE2012800D062E100230024C0
:1021B0000022994601990140CDB2002112030B0D76
:1021C000120B1B051343434A240513401C436400B0
:1021D000ED0764082C434846210007B03CBC9046FC
:1021E0009946A246AB46F0BD034399464FD05B46A5
:1021F000002B00D189E1584600F0B8FE03000B3BEC
:102200001C2B00DD7AE11D22D31A3A0001005C4646
:10221000DA4008398C4013008F4023439B46B9466F
:1022200000232D4E0027361A029384E7534623439A
:102230002AD10024022096E75346234320D0002CC5
:1022400000D157E1200000F091FE03000B3B1C2B56
:1022500000DD49E11D21CB1A51460200D940534609
:10226000083A944093400C431B4A121A00207AE724
:102270000125019B144C1D400023002299469CE738
:102280000024002201206EE7534603206BE7002361
:102290009B4601330427002602934CE70323814623
:1022A0000C27029347E7802200230025120399465A
:1022B000054C82E75C464B4602986FE75C464B460E
:1022C000019502986AE7C046FF07000001FCFFFF86
:1022D000A88D0008FFFF0F800DFCFFFF4A4649460E
:1022E000170C1A0C1B041B0C08041900000C4143AA
:1022F0001500884619007D437943039589462900D6
:10230000150045434D44029545462D0CAA46029DB5
:102310005544A94506D98A46802149028946CA44BE
:1023200051460391290C0491414609042D04090CDE
:1023300088462900250C24044144240C05912100E1
:1023400041438846210079438A46684341465044C8
:102350008146080C48446F43824503D980214902D5
:1023600089464F44010C894639004944029141464F
:102370000F0404993F0C88460004C019804441466C
:10238000049159460F0C0904090C884659438A46A2
:1023900039005143894641464A435146090C8B4610
:1023A0007B43D2185A44934203D980235B029B4655
:1023B000D94451460904090C8A46414661437C438D
:1023C000130C12044B445244A1468A463C00414639
:1023D0006C434D4351464D440F0C7D19A94503D91B
:1023E0008021490288464444049F0399B8464144E9
:1023F0008B468345804141428846514608042F045C
:10240000000C3F1858460299101889469042924194
:102410004F44BA46524299469346C244D144CB44B3
:102420008F42BF41C245894199459B4193459241A5
:102430007F4249422D0C52420F435B4213437F19A6
:10244000FF185B463C19DB0D059A64021C434302EE
:1024500013435D1EAB415A46C00D03435202134362
:10246000E20156D501205A0803401343E207134303
:1024700064085A48604400284DDD5A0709D00F22ED
:102480001A40042A05D01A1D9A429B415B42E41867
:102490001300E20104D58020514AC000144060447A
:1024A000504A904200DDE3E60125DB0862071A434B
:1024B0006402019B9146220B4405640D1D407CE69D
:1024C000802259461203114208D0144206D12243F9
:1024D0001203120B45469946434C6EE65B461A437F
:1024E0001203120B404C68E603005446283B9C4004
:1024F0000023B9E600F03AFD2030A6E60300283BB1
:102500009F400023BB4699468AE600F02FFD20300D
:1025100074E6B446ADE701252A1A382A06DD019B88
:1025200000241D4000230022994646E61F2A21DC94
:1025300020252000AD1A1E00AB40A840D6405D1EED
:10254000AB4130431843D440430709D00F23034025
:10255000042B05D00300181D98429B415B42E418F0
:10256000230221D50125019B01241D4000230022C7
:10257000994622E61F2521006D42281AC140080015
:10258000202A1DD05F35AA1A944023435C1EA34124
:10259000072503431D400022002D09D00F220024EF
:1025A0001A401800042AD6D1030065076402220BE2
:1025B000DB082B4301259946019B00241D40FCE5C7
:1025C0000024E2E78022012512032243019912032D
:1025D000120B0D409946044CEFE5C046FF03000086
:1025E000FFFFFFFEFE070000FF070000F0B54646B4
:1025F000D6464F460C03C0B5CD0F4E00610A440FBE
:102600000C43C1005800400D84468A460F00190350
:10261000500F490A0143C648760DA846DB0FD20089
:10262000844500D1D8E001204340AB4200D1A6E070
:102630006046351A002D00DC05E1002810D10B00A2
:10264000134300D1D7E06B1E002B00D04BE1534663
:102650009F1ABA458041641A4042241A01261EE09E
:10266000B34B9E4248D080231B041943382D00DD14
:1026700019E11F2D00DD4CE120230F005B1B100032
:102680009A409F40E840531E9A41E9400743174350
:102690005346DF1B611ABA45A44164420C1B230256
:1026A00000D4C5E06402650A002D00D1F6E02800E0
:1026B00000F05CFC0300083B1F2B00DDE9E020225A
:1026C0003C00D21A9D40D4409F4025439E4200DDED
:1026D000DBE09E1B731C1F2B00DD0AE1202238006B
:1026E000D21A290097402C009140D8407A1E974179
:1026F000DC40002601430F437B0709D00F233B40FA
:10270000042B05D03B1DBB42BF417F42E4191F0093
:10271000230225D5864B01369E4200D1AFE0854B82
:1027200001251C4043466207FF08640276051743F3
:10273000240B760D1D4000212403230B0C0D7E4A33
:1027400024051C431440330523435B00ED075B085D
:102750002B43380019001CBC90469946A246F0BD98
:10276000012543466207FF081743E4081D40704BEC
:102770009E4236D024037605240B760DDBE76346B4
:10278000F31A002B00DC94E06046002835D068483E
:102790008642B1D080273F043943382B00DCFDE06E
:1027A0000A43170000217A1E97415744574580413C
:1027B000091944420C1923023AD55D4B01369E4259
:1027C00000D14BE101225B4B1C407B0817401F43AB
:1027D000E207174364088FE70800104300D024E79E
:1027E00021E723003B4300D1B9E1802212031443C7
:1027F0002403240B9FE72E007EE70800104300D13E
:10280000CAE0581E8446002800D0E7E052445245F2
:10281000804164184042241817000126230207D57E
:102820000226CFE764462C4300D1B3E12C00674673
:102830007B0700D062E76307FF081F43012543467B
:10284000E4081D4093E7002D78D1751C6D056D0DD2
:10285000012D00DCF2E05046801A8245BF41651A26
:102860007F42ED1B8446280200D48CE05046171AA4
:10287000BA4292410C1B5542651B984614E701254C
:10288000434600241D40002755E72A4CF61A2C40E9
:1028900032E73D0028388540002717E7380000F070
:1028A00065FB203006E70A43170000217A1E974196
:1028B000EEE6002B00D0E5E0731C9C465B055B0D4B
:1028C000012B00DC9FE01A4B9C4500D1C5E052442F
:1028D00052458041641840422418E70752081743C4
:1028E0006408664608E71248854200D185E01D006D
:1028F000BCE629001F3EF140202B00D17FE04022A2
:10290000D31A9D402F437D1EAF4100240F43002664
:102910008EE72B000F00203BDF40202D71D040239D
:102920005D1BA9400A43511E8A4100211743AFE6AF
:10293000FF070000FFFF7FFFFFFF0F80002E3ED04C
:10294000B34EB44545D0802636046D423443382D0D
:1029500000DDA8E01F2D00DD1FE1202627005046E6
:10296000761BB740E84007435046B040461EB04192
:10297000EC403843171ABA4292410C1B5242A41A37
:10298000664698468BE6644667462C4300D08BE645
:10299000002500260027EAE61E00ADE61F2B60DCBE
:1029A0002027F81A0F00844687401000D8400743BC
:1029B00060468240501E8241D9401743F5E626000A
:1029C0005046064305D0ED43002DD3D0904EB4457C
:1029D000BDD10C001700664698468DE68C488342B0
:1029E0000BD06346D9E6002D00D096E008001043D6
:1029F00000D1E2E00C0017009846854E7CE60025E9
:102A000080E700218EE7230050460343002E00D0CC
:102A1000A8E0002B00D1DEE00B00134300D16BE6F1
:102A20005244524580416418404224181700230242
:102A300000D4FDE6774B66461C405DE62500504617
:102A40000543002ECFD1002D4FD10C00144300D1EF
:102A5000A0E00C00170098464EE6664600240027CA
:102A600085E61F000800203FF8400700202B00D11A
:102A70008EE04020C31A99400A43511E8A4100212A
:102A8000174392E6002E14D126005046064362D02A
:102A9000DB43002B5CD18718974292416418524265
:102AA000A418664687E650462043441EA0410024F1
:102AB00060E7574EB4454ED0802636045B4234431F
:102AC000382B00DD7FE01F2B00DD8BE02026270068
:102AD0005046F61AB740D84007435046B040461E0D
:102AE000B0410743DC40BF18D6E70D00154300D1C5
:102AF00002E65046801A8245BF41651A7F42ED1BAF
:102B00008446280200D48DE65046171ABA429241F4
:102B10000C1B5242A41A9846EEE50D00154300D155
:102B20006BE750466707C00807438020E4080003AE
:102B3000044207D0CD08054204D12C009846D7089E
:102B400049070F437B0FE4001C43FF00304ED3E5E1
:102B50002F4EB445B4D10C0017006646CCE50027D3
:102B60000024E8E5002B39D00B00134300D144E7E3
:102B7000C008670707438020E40800030442E1D04F
:102B8000CB080342DED1D70849070F431C00D9E721
:102B9000002171E700250027E9E52E002700203EEF
:102BA000F740202D2FD04026751BAC4050462043C7
:102BB000441EA04100243843DCE680240025240381
:102BC000134E0027D3E5504620430700781E874167
:102BD0000024BF1860E70C0017008DE50C001700FB
:102BE0000B4E89E51E002700203EF740202B0CD01D
:102BF0004026F31A9C4050462043441EA041074300
:102C00000024BF1848E70024D0E70024F3E7C046BB
:102C1000FF070000FFFF7FFF70B50E4E0D031C0382
:102C200049005B002D0B490D240B5B0DB14204D014
:102C3000084900208B4208D070BD05430120002DBB
:102C4000FAD1044900208B42F6D114432000441EDF
:102C5000A041F1E7FF07000030B5134D0A034B0018
:102C6000120B5B0DC90F0024AB4210DD0F4CA342C9
:102C70000FDC80240E4D64032243ED1A1F2D0BDD63
:102C80000C48C31ADA405442002900D11400200035
:102C900030BD094BCC18FAE7084CE840A446634421
:102CA0009A400243EFE7C046FE0300001D04000007
:102CB0003304000013040000FFFFFF7FEDFBFFFF64
:102CC00070B5002830D0C317C4185C40C50F200071
:102CD00000F04CF9174B184A1B1AD21A1F2A18DD9C
:102CE000164AD21A9440002224035B05240B5B0D84
:102CF0000021100024030A0D240B12052243104C5E
:102D00001B05224013435B00ED075B082B431900B2
:102D100070BD210091400A000B21081AC4405B05D8
:102D20002403240B5B0DE3E700250023002400228D
:102D3000DEE7C0461E040000330400001304000058
:102D4000FFFF0F8010B5041E28D000F00FF9154BBF
:102D5000154A1B1AD21A1F2A15DD144AD21A94409A
:102D6000002224035B05240B5B0D002110002403CB
:102D70000A0D240B120522430D4C1B052240134360
:102D80005B00590810BD210091400A000B21081A70
:102D9000C4405B052403240B5B0DE6E700230024FD
:102DA0000022E2E71E0400003304000013040000C8
:102DB000FFFF0F804100090E4B1C70B5DBB24602CD
:102DC000750AC40F012B14DDE0239B006D07360B41
:102DD000CB1800210A0D280012051C4D32435B055B
:102DE0002A405B0813435B00E4075B082343190098
:102DF00070BD002914D1002D1ED0280000F0B6F8B7
:102E00000A281CDC0B232A001B1ADA4003001533A6
:102E10009D400F4B12031B1A5B05160B5B0DD8E789
:102E2000002D06D0320B802636036D071643094B62
:102E3000CFE7084B0026CCE700230026C9E70300B4
:102E40002A000B3B9A400025E3E7C046FFFF0F80B6
:102E500089030000FF070000F0B54C00640D0B0370
:102E6000621C450F5B0A52052B43C90FC500520D6A
:102E7000012A28DD3A4AA618FE2E1BDC002E3EDD74
:102E800080010200501E82416D0F2A43DB00134374
:102E90005A0704D00F221A40042A00D0043380229B
:102EA000D2041A405AD00136FF2E03D09B015B0A90
:102EB000F4B201E0FF2400235802E405400AC907E8
:102EC00020430843F0BD002C07D01D43F2D08020E2
:102ED000DB0080040343FF26DAE72B4303D00523FE
:102EE000DB08FF2C03D05B025B0AE4B2E4E7002BB3
:102EF00032D08020C00303435B025B0ADCE7320070
:102F0000173214DB80221E2712041343BF1B1F2F0E
:102F10000FDC144A944664442A00A5402E00A340C6
:102F2000751EAE41FA40334313430026B0E7002438
:102F3000D5E702225242961B1A00F240202F09D0F8
:102F4000094884466444A3402B435D1EAB410026E0
:102F500013439DE70023F7E70023ADE73400BFE705
:102F600080FCFFFF82FCFFFFA2FCFFFF1C2101236E
:102F70001B04984201D3000C10391B0A984201D35C
:102F8000000A08391B09984201D30009043902A23A
:102F9000105C40187047C0460403020201010101A1
:102FA000000000000000000010B5002903D1FFF769
:102FB000DDFF203002E0081CFFF7D8FF10BDC0463F
:102FC000FA210A4B70B5890005001868FDF7B8F8BA
:102FD00000F06AF804000120002C05D1023822001C
:102FE000290000F027F8200070BDC046B000002086
:102FF0004023084A10B5116800200B431360FFF707
:10300000DFFF041E03D101F055FC200010BD012498
:10301000FBE7C04600200240024A136801331360F8
:103020007047C046B0020020014B18687047C04688
:10303000B002002070B58901002814DA0F23C0B255
:103040000340083B114A9B089B009B180322104039
:103050009040FC321500114085408140DC69AC4352
:103060002143D96170BD032583082840A840FC3561
:103070002E00074A9B009B18C022864029408140B1
:1030800092009C58B44321439950EBE700ED00E0D7
:1030900000E100E01F2318401E3B8340014A1360FB
:1030A0007047C04600E100E0094A431E01209342F8
:1030B0000DD8C021074A08485360036A09061B025D
:1030C0001B0A0B43036200200723906013607047C4
:1030D000FFFFFF0010E000E000ED00E070B5841D90
:1030E000E37F022B04D00423C363033B180070BDAD
:1030F0000E210368456C1A688A431A600122196818
:10310000914319601C232B4015009D40016C431D09
:103110004D60E2770024826BDC771300A242E5D099
:1031200090472300E2E70000F0B5554A0B6882188B
:10313000541EA24185B00193002305320392019AE7
:10314000DA4001D105B0F0BD01259D40019A2A4029
:10315000009200D191E04A6894461022644694435C
:103160002200013C022A1FD107240F271C40A40083
:10317000A740DA0892008218166ABE430F69A7407A
:103180003E43166203245E00B4408268A243CC68CA
:10319000B440224382606246D206D20F9A4044680D
:1031A000AC432243426001E0012CEBD903263400FA
:1031B0005D00AC406246E4433240AA4007682740C5
:1031C0003A430260C26814408A68AA4014436246C7
:1031D000C460D20051D501252A4C0F27626B2A43C7
:1031E0001D003540AD00AF406263274A9C08A40033
:1031F000A418A268BA43A0270292FF050022B84291
:1032000010D0224F0132B8420CD0214F0132B842C7
:1032100008D0204F3200B84204D01F4E0132B042D5
:1032200000D0039AAA406746029D2A43A2601B4A27
:10323000009C1668009DE4433543FF0301D435002C
:103240002540674615605668009D3543BF0301D48D
:1032500035002540674655609668009D3543FF025E
:1032600001D43500254067469560D568009E2E4301
:10327000BF0201D425402E00D66001335FE7C0466F
:1032800000E4FFAF001002400000014000040050C5
:1032900000080050000C00500010005000040140D5
:1032A0000C22184B10B5D9680A40082A26D00C2ADF
:1032B00006D0042A1AD11B68DB0621D4124810BD9F
:1032C0008A021248120F825C0902D868890F013104
:1032D000C00304D50E485043FCF732FFEFE71B68EC
:1032E000DB0601D50B48F6E70748F4E780205B686A
:1032F00000021B045B0F01339840E0E70448DEE75F
:103300000448DCE7001002400024F400A38E00080B
:1033100000127A0000093D00F0B5050087B00028D2
:1033200002D1012007B0F0BD0C23C24CE668E26870
:103330001E4080235B021A4001920268D20741D4EA
:103340002B689B0700D587E02B68DB0628D5002E6D
:1033500000D0E1E023689B0502D5EB69002BE0D0AB
:103360006268B5496B6A0A401A43626061682A6AFA
:103370000902090A12060A43626080225B0B0133CC
:1033800012029A401300E16800200A06AB49120FAE
:103390008A5CD340AA4A1360FFF712FE0028C1D10D
:1033A0002B681B0700D5EEE02B685B0700D510E10A
:1033B0002B689B0600D595E1AB6A002B00D0C4E1D9
:1033C0000020AFE7082E04D00C2E09D1019A002A64
:1033D00006D023689B03B3D56B68002BB0D1A0E760
:1033E0006A689A4211D1226813432360FFF71CFEDA
:1033F00007008022236892021342A1D1FFF714FE36
:10340000C01B6428F5D903208CE7A021C9028A4299
:1034100005D180222168D2020A432260E3E72168B5
:1034200088480140216021680B400593059B86492F
:1034300023680B402360002AD8D1FFF7F5FD070071
:10344000802223689202134200D179E7FFF7ECFD56
:10345000C01B6428F4D9D6E72022EB68134203D0BE
:103460002168934311432160042E04D00C2E25D1F2
:10347000019A002A22D12268520702D5002B00D1DE
:103480004FE761682A697148120201400A43092125
:10349000626022688A4313432360FFF701FFE368F9
:1034A000664A1B061B0FD35CD840654B1860002092
:1034B000FFF786FD002800D146E733E7002B19D03F
:1034C000092122688A4313432360FFF7ADFD0700FB
:1034D00004222368134207D062682B695B491B02F0
:1034E0000A40134363602FE7FFF79EFDC01B0228CD
:1034F000EED988E70122236893432360FFF794FD08
:10350000070004222368134200D11DE7FFF78CFD5A
:10351000C01B0228F5D976E7EB69002B20D0802369
:1035200022685B0013432360FFF77EFD07008022C3
:103530002368920013420DD063683F4A13406A6AC1
:103540001343636062682B6A12021B06120A13435C
:10355000636025E7FFF768FDC01B0228E7D952E743
:1035600023683B4A13402360FFF75EFD070080227B
:1035700023689200134200D112E7FFF755FDC01BEC
:103580000228F4D93FE76A690123002A10D0226D8E
:1035900013432365FFF748FD07000222236D134202
:1035A00000D001E7FFF740FDC01B0228F5D92AE74C
:1035B000226D9A432265FFF737FD07000222236D33
:1035C000134200D1F0E6FFF72FFDC01B0228F5D90A
:1035D00019E780230021A26B5B0501911A4204D1F7
:1035E000A26B1343A363012301938022194F52005E
:1035F0003B68134208D08022AB68520093422BD123
:10360000226D134323654CE080223B685200134334
:103610003B60FFF709FD80235B00029003933B684A
:10362000039A1342E7D1FFF7FFFC029BC01A6428FC
:10363000F5D9E8E600100240FF1FFFFF8B8E00085F
:10364000B0000020FFFFFEFFFFFFFBFFFFE0FFFFDA
:10365000FFFEFFFF00700040002B16D1236D6C4A67
:1036600013402365236D6B4A13402365FFF7DCFC91
:1036700007008022236D920013422AD0FFF7D4FC6A
:10368000654BC01B9842F4D9BDE6A021C9008B420E
:103690000BD18023216DDB000B432365236D1A437F
:1036A0002265FFF7C1FC07000EE0236D584A134066
:1036B0002365236D574A1340A4E7FFF7B5FC564B2B
:1036C000C01B984200D99EE68022236D92001342CF
:1036D000F3D0019B012B00D06AE6A36B4F4A134045
:1036E000A36365E6A96901234D4A002918D0A168A2
:1036F0001943A160616B0B4363638023116A9B01D3
:103700000B431362FFF790FC07000222A3681342E9
:1037100000D051E6FFF788FCC01B0228F5D972E6FD
:10372000A1689943A160136A3E490B401362FFF7F9
:103730007BFC07000222A368134200D13CE6FFF79E
:1037400073FCC01B0228F5D95DE60C2E43D0364A27
:10375000022B2ED12368802613402360FFF764FCE0
:103760000700B604236833421DD1296BEB6AE26877
:103770000B432E490A4013436A6B80251343E360D1
:10378000802322685B0413432360FFF74DFC06008F
:10379000AD0423682B4200D012E6FFF745FC801BE6
:1037A0000228F6D92FE6FFF73FFCC01B0228D9D923
:1037B00029E62368802513402360FFF735FC0600C7
:1037C000AD0423682B4200D1FAE5FFF72DFC801BE6
:1037D0000228F6D917E61800012B00D1A2E58022B5
:1037E000E368E96A52021A4001208A4200D099E552
:1037F000F022296B92031A408A4200D092E5C02041
:1038000000040340686B181A431E9841C0B289E552
:10381000FFFEFFFFFFFBFFFF88130000FFFFFFEF2E
:1038200000000140FFDFFFFFFFFFFFFEFFFF02FF81
:10383000F7B5061E019101D10120FEBD0122514CB8
:103840000199236813408B4227D3326893072FD402
:10385000D30735D40123226801991A40914200D23E
:1038600081E03268484C530700D584E0130706D541
:10387000E26833694549DB000A401343E360FFF720
:103880000FFDE368424A1B061B0FD35CD840414B37
:1038900018600020FFF794FBCFE72368019993435A
:1038A0000B43236023681340019A9A42C4D1CCE7AA
:1038B000F0203549CB688343B0680343CB60C7E74A
:1038C000314D72682B68022A19D19B03B4D50321AC
:1038D000EB688B431343EB60FFF7A6FB73680700AD
:1038E000022B19D10C22EB681340082BB2D0FFF742
:1038F0009BFB294BC01B9842F4D903209DE7032A68
:1039000002D19B01E3D497E7012A02D15B07DED401
:1039100092E79B05DBD48FE7032B0BD10C22EB68DE
:103920001340934296D0FFF77FFB1B4BC01B98427E
:10393000F4D9E2E7012B10D00C22EB68134289D0B6
:10394000FFF772FB144BC01B9842F5D9D5E7FFF780
:103950006BFB114BC01B9842CFD80C22EB68134075
:10396000042BF4D176E722689A43226022681A4237
:1039700000D061E775E7E36808490B40F1680B4345
:10398000E36073E70020024000100240FFC7FFFF22
:103990008B8E0008B000002088130000FFF8FFFFA6
:1039A000044B054ADB685B055B0FD35C034A106878
:1039B000D8407047001002409B8E0008B0000020E5
:1039C000044B054ADB689B045B0FD35C034A106819
:1039D000D8407047001002409B8E0008B0000020C5
:1039E0008223F7B502681B0105001A4248D08023E4
:1039F0000021654C5B05A26B00911A4204D1A26BB9
:103A00001343A363012300938027604E7F00336834
:103A10003B4277D06968C0220800236892031340B4
:103A20001040834203D1A8680240934209D0C023CA
:103A30000A009B021A409A4203D1236801209B038B
:103A400071D4C022236D9202134000D06CE06968EB
:103A5000C0230A009B021A409A4207D123684C48AF
:103A60000340C020800301400B432360236D1A43B1
:103A7000009B2265012B03D1A36B464A1340A3632D
:103A80002B68DA0706D503203F49CA6C8243E868F1
:103A90000243CA649A0706D50C203B49CA6C82438C
:103AA00028690243CA645A0706D537493A48CA6C9E
:103AB000024068690243CA641A0706D5324937488A
:103AC000CA6C0240A8690243CA64DA0506D52E49C9
:103AD0003348CA6C0240E8690243CA645A0606D5F4
:103AE00029493048CA6C0240686A0243CA6400200F
:103AF0001B0618D5244A2C49D36C0B40296A0B436A
:103B0000D36410E033683B433360FFF78DFA0190D4
:103B100033683B4200D07DE7FFF786FA019BC01A6D
:103B20006428F5D90320FEBD11408B4202D02968DC
:103B3000890608D4A9680A40934200D187E72B6818
:103B40001B0500D483E78022216D206D1203024300
:103B50002265226D124B15480B40024022652365F9
:103B6000CB0500D473E7FFF75FFA80270600BF009C
:103B7000236D3B4200D06AE7FFF756FA0C4B801BDF
:103B80009842F5D9CEE7C0460010024000700040D0
:103B9000FFFFCFFFFFFFFFEFFFF3FFFFFFCFFFFFB1
:103BA000FFFFFCFFFFFFFFFBFFFFF3FFFFFFF7FF40
:103BB00088130000036807491A680A401A609A6867
:103BC0002331FF318A439A602023836700230366F1
:103BD0007047C046DFFEFFFF70B5846F0300022010
:103BE000202C41D1013800293ED0002A3CD080252C
:103BF0009C686D01AC4204D11D69002D01D10142C8
:103C000032D11D0070352E780220012E2CD00138C3
:103C100028705965190058310A804A808020002197
:103C20001A00196640015C32844220D119690029CA
:103C30001BD11849118000220121DA6722329A67CC
:103C40001A68906801439160802149018C421ED11D
:103C5000196900291BD110491966902300201168A9
:103C60005B000B432870136070BDFF21E2E7002C5E
:103C700004D119690029F8D07F21DBE780204005B5
:103C80008442D7D119690029F6D03F21D2E70349F0
:103C9000E2E7C046FF010000053D0008A53C000822
:103CA00070470000826F10B50368222A23D10200FA
:103CB0005C325B6A12881340426D13700200436DE0
:103CC0005A32013343651388013B9BB2138013883A
:103CD0009BB2002B0ED10268094C11682140116083
:103CE00091682334FF34A1439160202203668267E8
:103CF00000F0D8FD10BD082299690A439A61F9E7DE
:103D0000DFFEFFFF826F10B50368222A21D1040075
:103D10005C34596A2488426D2140118001000232CE
:103D200042655A310A88013A92B20A800A8892B2F0
:103D3000002A0DD11968094C214019609968233473
:103D4000FF34A143996020230266836700F0AAFD37
:103D500010BD082299690A439A61F9E7DFFEFFFF67
:103D600070470000F8B503680400DA6918689E68B7
:103D700011070AD120210A4200D16AE0084268D026
:103D8000236E2000002B5AD15AE0012135000D404E
:103D900003D190277F0038425BD00A4205D0C60588
:103DA00003D51962E66F3143E16702210A4206D06A
:103DB000002D04D01962E66F49183143E1670421F0
:103DC0000A4206D0002D04D01962E66F0239314351
:103DD000E167110708D5810601D4002D04D0082120
:103DE0001962E36F1943E167E36F002B28D02023AA
:103DF0001A4206D0184204D0236E002B01D02000B6
:103E000098472368E56F9B6820005B0602D408236F
:103E10001D401AD0FFF7CEFE402123689A680A425F
:103E20000FD09A68E06E8A439A60002809D01A4B36
:103E30008363FFF753F9002802D0E06E836B984745
:103E4000F8BD2000FFF78CFFFAE7FFF789FFE56771
:103E5000F6E7802149030A4206D0750204D51962AB
:103E6000200000F0BBFAEBE780210A4203D00842B1
:103E700001D0636E85E740210A42E1D00842DFD0DD
:103E80001A6820008A431A60202363670023636650
:103E9000FFF706FFD4E7C0469D3E0008806A002376
:103EA000020010B55A321380083A1380FFF758FF0A
:103EB00010BD0000F8B504002569A26803682A4314
:103EC0006569C1692A431868814D0A432840024345
:103ED0001A605A687F48804D0240E06802435A6089
:103EE000A069AB4201D0226A10439A687B4E3240EF
:103EF00002439A607A4A934213D10322794BDB6CD6
:103F00001340794AD05C80231B02994200D1D1E052
:103F1000082826D8FCF700F9C0969925B425252550
:103F2000B700724A934205D10C226E4BDB6C1340F2
:103F30006F4AE7E76F4A934200D1A9E06E4A934285
:103F400000D1A5E0AB4200D0ADE0C0218020654AA1
:103F50000901D36CC0000B40834238D003D8002B3A
:103F60000AD001250DE08020000183420ED08B4253
:103F7000F7D1802000020DE0FFF712FD0025A842D6
:103F800008D10023280023666366F8BD1368DB06AA
:103F900020D55A48032263685A438242E1D81A0363
:103FA0008242DED30027020E01025E0889197A419F
:103FB000080011001A003B00FCF7B0FA504BC21881
:103FC000504B9A42CDD823683D00D860D9E7FFF71F
:103FD00067F9D3E74C48DDE7FFF7E2FC6368400090
:103FE0005B08C01861680BE0FFF7EAFCF6E71025F4
:103FF0003C4B61681A684808154006D0434BC0180E
:10400000FCF79EF8002583B204E0414BC018FCF792
:1040100097F883B219003F4810398142A1D80F2187
:1040200018001B0788435B0F21680343CB60A8E798
:10403000FFF736F9D2E76368580880235B02D0E7C0
:104040000023E7E7FFF7BCFC28E01025254B61685B
:104050001A684808154006D0284BC018FCF770F8BD
:10406000002583B204E0284BC018FCF769F883B23E
:10407000190028481039814200D972E72168D5E734
:10408000FFF70EF90AE06368580880231B0207E077
:1040900080231B0299429FD0FFF782FC63685B0874
:1040A000C0186168DAE7802301251B029942C7D056
:1040B0000023DDE7082800D953E7FCF737F88DFF28
:1040C00095FF98FF52FFB9FF52FF52FF52FFBCFF0E
:1040D000F369FFEFFFCFFFFF00480040FFF4FFFF51
:1040E0000038014000100240E88D00080044004004
:1040F000EC8D0008004C00400050004000093D00DD
:1041000000FDFFFFFFFC0F000024F40000127A0006
:104110000048E801EFFF0000436A30B5DA0706D532
:104120000168284C4A682240846A22434A609A0700
:1041300006D50168244C4A682240C46A22434A607A
:104140005A0706D50168214C4A682240046B224375
:104150004A601A0706D501681D4C4A682240446B24
:1041600022434A60DA0606D501681A4C8A68224062
:10417000846B22438A609A0606D50168164C8A68C9
:104180002240C46B22438A605A0610D50168134D41
:104190004A68046C2A4022434A60802252039442B7
:1041A00005D14A680E4C2240446C22434A601B06EB
:1041B00006D502680B4953680B40816C0B43536072
:1041C00030BDC046FFFFFDFFFFFFFEFFFFFFFBFF0F
:1041D000FF7FFFFFFFEFFFFFFFDFFFFFFFFFEFFFAF
:1041E000FFFF9FFFFFFFF7FFF8B504000E0015006B
:1041F0001F002268D36933409B1B59424B41AB429D
:1042000001D000201BE0069B0133F3D0FEF70CFF2A
:10421000069BC01B834201D3002BEAD123680849C7
:104220001A6803200A401A609A68A331FF318A4352
:104230009A6020236367A367002370342370F8BD5E
:104240005FFEFFFFF0B587B00593436F04000D00DC
:1042500017000220202B49D10138002946D0002A1E
:1042600044D08023A2685B019A4204D12369002BC9
:1042700001D101423AD1230070331A780220012A79
:1042800034D0012200261A702123E6676367FEF707
:10429000CBFE230050331F80023303931F80802303
:1042A000A26804905B019A4204D12369B34201D110
:1042B0002E001D00230052331A88059B92B20093F2
:1042C000049B002A0AD140212000FFF78DFF00281F
:1042D0000BD1202370346360207007E0002280211E
:1042E0002000FFF781FF002802D0032007B0F0BDB7
:1042F0002268002D0BD133880236DB05DB0D93627B
:10430000039B039A1B88013B9BB21380D2E72B7857
:1043100001359362F4E7000073B500260400C66718
:10432000FEF782FE236805001B681B0715D423686F
:104330001B685B070AD580210E4B00220093C9033E
:104340002B002000FFF750FF002811D12023002070
:104350006367A367703420700BE08021054B320047
:104360000093890303002000FFF73EFF0028DED002
:10437000032076BDFFFFFF0110B5041E01D101200F
:1043800010BD436F002B04D102007032137000F097
:104390009FFA2423012122686367136820008B435E
:1043A0001360FFF787FD0128E9D0636A002B02D074
:1043B0002000FFF7B1FE236807495A6820000A4031
:1043C0002A215A609A688A439A60012219680A432E
:1043D0001A60FFF7A1FFD3E7FFB7FFFF70470000A8
:1043E0000FB400B597B018AA02CA02A8019201F052
:1043F0003FFF02A8FBF788FE012382B25B4202A9BD
:104400000348FFF71FFF17B008BC04B01847C046A9
:1044100074030020F0B5040085B08148FFF7E0FF89
:1044200021008048FFF7DCFF2C21200001F018F864
:10443000441C200000F04DFBFEF70EFD7A4B186087
:10444000FCF78CF8794B7A4918600700FBF778FE87
:10445000784B0500187076493800FBF7F7FE080026
:104460006421FBF76DFE744B060018706421380060
:10447000FBF7ECFE714A0B0011707148E9B2320093
:10448000FFF7AEFF20002C2100F0EAFF4378040084
:10449000451C2C2B33D06B4E29000222300000F03B
:1044A000EDFF00233000B37000F018FB664F01AE43
:1044B0000822E11C3860300000F0E0FF00233000EB
:1044C000337200F006FBFEF7C7FC604B0B3418603C
:1044D0002500041C3868FCF775FE5D49061C201C8D
:1044E000FCF7C4FA011C301CFCF72EF9594B18607C
:1044F000FEF760FC02000B005748FFF771FF2C210C
:10450000280000F0ADFF4378441C2C2B0AD0534AFE
:104510001360417852484E2902D0532902D15148A4
:10452000FFF75EFF20002C2100F09AFF4378040083
:10453000451C2C2B33D0434E29000322300000F0C1
:104540009DFF00233000F37000F0C8FA464F01AE23
:104550000822211D3860300000F090FF0023300059
:10456000337200F0B6FAFEF777FC404B0A3418605D
:104570002500041C3868FCF725FE3549061C201C64
:10458000FCF774FA011C301CFCF7DEF8384B18609D
:10459000FEF710FC02000B003648FFF721FF2C212C
:1045A000280000F05DFF4378441C2C2B0AD02B4AD6
:1045B000136041783048452902D0572902D12F484D
:1045C000FFF70EFF2C21200000F04AFF2C210130C4
:1045D00000F046FF2C21013000F042FF2C21013079
:1045E00000F03EFF43782C2B17D001AC0522411C74
:1045F000200000F043FF2100214800F017FF0023B6
:104600002000637100F065FAFEF726FCFEF7D2FB8E
:1046100002000B001B48FFF7E3FE05B0F0BDC046EB
:10462000F98D0008738E00086003002054030020F9
:104630001027000044030020BC0200205C0300207F
:104640000B8E00084D040020400400204C03002085
:104650000000704264030020298E0008A0020020A0
:10466000398E0008438E00084404002058040020BE
:10467000500300204D8E00085C8E0008658E0008F7
:104680006E8E0008798E000870B5FA252E4CAD00AC
:104690002B000C222D492000FFF7D4FD2B000E2209
:1046A0002B492000FFF7CEFD2B00102229492000C6
:1046B000FFF7C8FD2B000B2227492000FFF7C2FDA2
:1046C0002B000B2225492000FFF7BCFD2B000B22FD
:1046D00023492000FFF7B6FD2B000B2221492000C3
:1046E000FFF7B0FD2B000B221F492000FFF7AAFDAA
:1046F0002B000B221D492000FFF7A4FD2B000B22ED
:104700001B492000FFF79EFD2B000B2219492000BA
:10471000FFF798FD2B000B2217492000FFF792FDB1
:104720002B000B2215492000FFF78CFD2B000B22DC
:1047300013492000FFF786FD2B000B2211492000B2
:10474000FFF780FD70BDC046C002002000000020C1
:10475000A000002022000020480000205E00002071
:10476000690000208A000020950000200C00002035
:1047700017000020320000203D00002053000020E0
:10478000740000207F00002070B59EB03822002108
:1047900010A800F0D3F91422002101A800F0CEF9EE
:1047A0002822002106A800F0C9F91549154A0B680E
:1047B00000241A4080231B0113430B6080235B02FB
:1047C000119301230326139310A80F33149302258A
:1047D00010961A94FEF7A0FD0F23210001A8019363
:1047E0000295039404940594FFF722F8082306A881
:1047F000069609950A93FFF7F3F81EB070BDC04600
:1048000000700040FFE7FFFF73B5FEF7F1FBFFF715
:10481000BBFF80201D4B1E4DD96A00240143D96285
:104820000121DA6A0C2602400092009ADA6A280016
:104830000A43DA62DB6AAC600B400193019B154BC3
:10484000EC602B6096239B016B602C616E61AC6108
:10485000EC612C626C62FFF78FFD0F480F4B846098
:104860000360E1235B024360C460046146618461CC
:10487000C46104624462FFF77FFDFFF705FF4C222D
:1048800007492800FFF7A8F9F9E7C04600100240E1
:10489000C0020020003801407403002000440040A2
:1048A000F403002010B50248FFF7B4FD10BDC04668
:1048B000F40300200122054B596B0A435A638022FE
:1048C000996B52050A439A637047C0460010024034
:1048D00010B5040088B01422002103A800F02EF9BE
:1048E0002368244A934225D18022234BD201596B5D
:1048F000A0200A4301215A63DA6AC0050A43DA623A
:10490000DB6A0B400193019BC023DB00039302236E
:1049100004935B1806935B1803A90793FEF704FC46
:1049200000221B201100FEF785FB1B20FEF7B2FBC7
:1049300008B010BD114A9342FAD180220E4B920268
:10494000996BA0200A4301219A63DA6AC0050A43E1
:10495000DA62DB6A0B400293029B0C2303930A3B4F
:1049600004935B1806935B1803A90793FEF7DCFB1F
:10497000DEE7C0460038014000100240004400401D
:104980007047FEE77047704710B5FEF745FB10BD56
:1049900010B50248FFF7E6F910BDC046C00200207E
:1049A00070B50E0015000C00A31B9D4201DC280011
:1049B00070BD00E000BF20700134F5E770B50E0057
:1049C00015000C00A31B9D4201DC280070BD20785F
:1049D00000E000BF0134F5E70A4B10B5196802008A
:1049E000002901D1084919606946186882188A426D
:1049F00006D900F079F80C2303600120404210BD75
:104A00001A60FCE7A402002060040020012040425C
:104A1000704780239B0100204B6070470120704746
:104A2000002070478022104B520019680A431A6018
:104A3000DA680E490A40DA601A680D490A40012115
:104A40001A609A688A439A601A680A490A401A608A
:104A5000DA6809490A40DA6000221A618022074BAD
:104A600012059A607047C046001002400C40FF8853
:104A7000F6FFF6FEFFFFFBFFFFFF02FF00ED00E089
:104A80000D488546002103E00C4B5B584350043130
:104A90000B480C4B42189A42F6D30B4A02E0002313
:104AA00013600432094B9A42F9D3FFF7BBFF00F0C1
:104AB00021F8FFF7A9FEFEE700500020D89100087A
:104AC00000000020840200208402002060040020F6
:104AD000FEE710B5002101F007FB10BD10B50A225A
:104AE000002101F099FB10BD014B18687047C046CA
:104AF000B400002070B500260C4D0D4C641BA410B2
:104B0000A64209D1002604F0E1F80A4D0A4C641BC4
:104B1000A410A64205D170BDB300EB5898470136EA
:104B2000EEE7B300EB5898470136F2E7D091000862
:104B3000D0910008D0910008D49100080300821899
:104B4000934200D1704719700133F9E7F0B58BB08B
:104B500014001D1E129953DA802424061B191D000F
:104B600014002D230B702023149E03229E43462EF7
:104B700007D03300453B59424B411099013ACB18BD
:104B8000109309AB049308AB0393139B0092029319
:104B9000109B220001932B0001F0FAFB0700472E27
:104BA00002D1119BDB0724D5109BFB180793462EDF
:104BB00014D13B78302B0CD1002200232000290097
:104BC000FBF744FC002804D10123109A9B1A139A86
:104BD0001360139B079A1B68D318079300220023C6
:104BE00020002900FBF732FC302200280DD0079B63
:104BF00009933800099B159ADB1B13600BB0F0BDBD
:104C00000023AFE7591C09911A70099B0799994233
:104C1000F8D8EEE7F0B52B2385B007000C00027042
:104C2000861C002901DA2D234C427B70092C23DDE0
:104C300002ABDD1D6B1E20000A210193FBF7F0FB88
:104C40006B1E3031197020000A21FBF703FB0400B2
:104C500009280ADC023D30342C7002AB07333000E7
:104C6000AB4204D8C01B05B0F0BD019DE2E72B7834
:104C7000013533700136F0E73023E4183370B01C8F
:104C80007470EFE7F0B595B00C000A920B931A9D83
:104C9000099002F06DFD036818000D93FBF734FADC
:104CA0000023129323680E900C930C99277E2B6897
:104CB0000722C90547D59B1893431A0008322A607A
:104CC0001A685B68A264E3640122E56CA66C6B0061
:104CD0005B080F935242A74B30000F99FDF79CFFE2
:104CE000002800D006E20122A24B524230000F9968
:104CF000FBF7BCFB002800D0FCE1002200233000C1
:104D00002900FBF7A9FB002803D023002D22433301
:104D10001A70994D472F00D8984D032300260C9AFE
:104D2000236101339A4322600B9B13AA0093210055
:104D30000A9B099800F0F2F9431C00D09CE0012086
:104D4000404215B0F0BD0733B6E780236268DB0050
:104D5000511C45D1073262600C9A0021134312AAFC
:104D6000059211AA0392232223600691019308A9B8
:104D7000636852180292009332002B00049709983E
:104D8000FFF7E4FE20233A0005009A43472A07D1A3
:104D9000119BDA1C02DB626893425BDD023FFFB2CB
:104DA0001199652F3BD8200001393A0050301191FC
:104DB000FFF730FF129A060083182361012A02DCF4
:104DC0002268D20701D501332361232308AA9B1847
:104DD0001B78002BA8D023002D2243331A70A3E7A1
:104DE000672F01D0472FB7D1002A16D00C9908A8F9
:104DF0000B430021069112A9059111A903912321CA
:104E000009182360019300922B000497029132004D
:104E10000998FFF79BFE0500BAE701229BE7662F82
:104E200019D1636800290CDD2161002B02D12268B1
:104E3000D20702D501335B182361119B0026A365BD
:104E4000C3E7002B03D101222168114200D09A1C34
:104E50002261F2E76727119B1298834205DB2268E3
:104E60002361D207E9D50133E6E70122002B01DCFB
:104E70009218D21A1218EBE72268530508D4236956
:104E80002A000A9909980B9DA847431C29D156E787
:104E9000652F00D8DCE0A06CE16C00220023FBF75A
:104EA000D5FA002835D00123354A0A9909980B9D77
:104EB000A847431C00D142E7119B129A934202DBA0
:104EC0002368DB070DD50B9D0E9B0D9A0A99099857
:104ED000A8470025431C00D131E7129B013B9D42AE
:104EE0000BDB236800259B0700D5FDE0139BE068E2
:104EF000984200DB25E7180023E7220001231A323D
:104F00000A9909980B9EB047431C00D117E7013559
:104F1000E3E7119B002B35DC0123194A0A99099814
:104F20000B9EB047431C00D109E7119B002B05D114
:104F3000129B002B02D12368DB07D2D50B9E0E9B60
:104F40000D9A0A990998B0470026431C00D1F6E64D
:104F5000119B5B429E4201DB129B91E722000123E1
:104F60001A320A9909980B9FB847431C00D1E6E60C
:104F70000136EDE7FFFFEF7FB48E0008B08E00082A
:104F8000C08E0008A36D129E9E4200DD1E00002E02
:104F900035DC00230C93F343DB170F930F9BA76DB6
:104FA0000C9A3340FB1A9A4232DB119B129A9342BD
:104FB0003CDB2368DB0739D4129E119AF31BB61A27
:104FC0009E4200DD1E00002E39DCF7430025FB1752
:104FD0000C93119A129B0C999B1A32000A409B1A4F
:104FE0009D4200DB7DE7220001231A320A990998CD
:104FF0000B9FB847431C00D1A1E60135E9E7330018
:105000002A000A9909980B9FB847431CC1D196E61C
:10501000220001231A320A9909980B9FB847431CB2
:1050200000D18CE60C9B01330C93B7E70E9B0D9AD5
:105030000A9909980B9EB047431CBDD17FE6EA1937
:1050400033000A9909980B9DA847431CBDD176E609
:10505000129B012B02DC01231A4238D001232A00C3
:105060000A9909980B9FB847431C00D167E60E9B2D
:105070000D9A0A9909980B9FB847431C00D15EE628
:10508000A06CE16C00220023FBF7E0F9002808D0B7
:105090000025129B013B9D420DDB22003300503264
:1050A000EFE6129B6A1C013B0A9909980B9DA847E1
:1050B000431CF2D143E6220001231A320A990998CF
:1050C0000B9FB847431C00D139E60135E1E72A00C0
:1050D000EAE72200012319320A9909980B9EB0478A
:1050E000431C00D12BE60135E368139A9B1A9D42BD
:1050F000EFDBFBE632002B0030002900FDF78CFDD2
:10510000002800D121E6034D472F00D905E6024DC6
:1051100003E6C046BC8E0008B88E0008F7B515003F
:1051200001938A680B6900900C00934200DA130027
:1051300022002B6043321278002A01D001332B6009
:1051400023689B0602D52B6802332B600627236851
:105150001F4027D0230043331B785A1E93412268F7
:10516000920630D42200019943320098089EB0473D
:10517000431C25D0062320682A68E16803400025E7
:10518000042B03D18D1AEB43DB171D40A368226962
:10519000934201DD9B1AED180027BD4220D100206B
:1051A00010E00137E3682A689B1A9F42D2DA220096
:1051B0000123193201990098089EB047431CF0D191
:1051C00001204042FEBD3020E1184331087021002B
:1051D0005A1C45310978A218433202331170C1E7D5
:1051E000220001231A3201990098089EB047431CFF
:1051F000E6D00137D1E70000F0B58BB006920A0087
:1052000043320793059004920A7E0C00109B6E2A8D
:1052100000D18FE017D8632A2CD008D8002A00D1FB
:1052200099E0582A54D026004236327029E0642A88
:1052300001D0692AF7D121681A68080623D5111D03
:105240001960156825E0732A00D188E008D86F2A14
:1052500029D0702AE7D1202209680A43226003E09E
:10526000752A20D0782ADED12200782145321170AB
:105270006C4A30E00E001A684236111D196013683E
:105280003370012379E04906D9D5111D1960002337
:10529000D55E002D03DA2D23049A6D421370624B04
:1052A0000A2703932FE020681968050603D5081D17
:1052B00018600D6805E04006F9D50D68081D1860F6
:1052C000ADB2594B082703936F2A18D00A2716E06E
:1052D00045310A70544A03921A682168101D1860FB
:1052E0001568080622D5CB0702D520231943216073
:1052F0001027002D03D1202322689A432260230027
:10530000002243331A706368A360002B5CDB042225
:10531000216891432160002D58D1049E002B64D058
:105320002600039B42361B7833705EE04806DAD5D0
:10533000ADB2D8E709681A68080605D5111D1960CD
:10534000136862691A6006E04906F7D5111D1960F5
:105350001368A28A1A800023049E236154E01A680D
:10536000111D1960166800216268300002F028FAE9
:10537000002801D0801B6060636823610023049AC9
:10538000137041E02369320006990598079DA847EC
:10539000431C43D0236800259B070FD4099BE0687A
:1053A00098423DDA18003BE02200012319320699A9
:1053B0000598079EB047431C30D00135E368099A31
:1053C0009B1A9D42F0DBE9E7002DA9D0049E28003E
:1053D0003900FAF73BFF039B013E5B5C280033700A
:1053E0003900FAF7ADFE051EF1D1082F09D1236867
:1053F000DB0706D563682269934202DC3023013E55
:105400003370049B9B1B2361079B09AA0093210017
:10541000069B0598FFF782FE431CB3D10120404252
:105420000BB0F0BDD38E0008C28E00080FB40B4B3A
:1054300013B51C68002C05D0A369002B02D12000F5
:1054400001F0D0FD05AB049AA1682000019303F0A0
:1054500003F816BC08BC04B01847C046B4000020CE
:10546000C9B20378002B04D0994200D170470130B3
:10547000F7E74B42594149420840F7E770B504004D
:10548000002A00D170BD0D78561E631C25700131B5
:10549000002D05D1A4189C42F4D01D700133FAE709
:1054A0001C003200ECE7000070B516000D0002F0A1
:1054B00069FC002E0DD06B236A00520D9B1A002B45
:1054C00007DD0024034A1B059D182B002200FCF772
:1054D0000DFE70BD0000F03FF0B5A5B007930023AE
:1054E00004900798209306911A9202F03EF9050065
:1054F0000068FAF709FE00260027069B05901F9317
:105500001F9B1A780D2A39D8092A3DD2002A44D087
:105510000023129300221F9C0C922378302B00D082
:105520007EE06378582B02D0782B00D06EE0079B8A
:10553000B74A0293129B1FA9019320AB00930498D2
:1055400021AB01F02BFE07250590054005D0062D67
:105550002FD1002301341F9412931A9B002B02D0E9
:105560001A9B1F9A1A60129B002B1DD080233200B9
:105570001B06FB181000190025B0F0BD2B2A05D022
:105580002D2A14D0202AC3D10133B8E70022129269
:105590005A1C1F925B78002BBCD1069B1F930023E3
:1055A00012931A9B002BDBD132003B00E2E7012271
:1055B000EDE7209A002A07D0352122A802F0CFFC7F
:1055C0002099049802F048F9681E042806D8FAF7D2
:1055D000A3FD0C0317190C00229E239F059B1B079C
:1055E000BBD580231B061F43B7E7239B894A8A4903
:1055F0001A40219B229E5B181B051A431700EDE7FA
:10560000864FEBE70126864F7642E7E71F9B5A1C41
:105610001F925B78302BF9D0002B9ED001230C9386
:105620001F9B0A22139300230B930A9308931F983E
:1056300004782300303BD9B2092926D9059A296874
:1056400003F084F8002832D0002023008446089A12
:10565000079005922022190091430A000021452A53
:1056600000D0A8E0059B0C9A034313438B4294D0CF
:105670001F9B069301331F93069B5B782B2B72D0E5
:105680000C002D2B75D101246EE00899082909DC46
:105690000A9951435B180A93089B01300133089320
:1056A0001F90C4E70B9951435B180B93F4E71F9AC3
:1056B000059B9446089A63441F931B78002A49D19E
:1056C0001000302B28D01A00313A082A46D88446D8
:1056D00000201F9A05901392303B421C002B0FD0E4
:1056E0000A219444059A101882421BD1511C05913D
:1056F000082A25DC0A220A994A439B1800220A93A9
:1057000010001F9B591C1F915B781A00303A092A20
:10571000E2D9012207929DE71F9B01305A1C1F927C
:105720005B78CEE70132541E082C03DC0A9C4C4304
:105730000A94D9E7102AD7DC0B9C4C430B94D3E78F
:10574000059900221029DBDC0A210B9841435B18E4
:105750000B93D5E7089A84460592D6E70022944633
:1057600005920132D6E70C00069B02331F93069B7D
:105770009B781A00303A092A61D8302B42D01A009F
:10578000313A0021082A16D8303B1F9D0E931F9BEB
:10579000591C1F915B781A00303A092A48D94A1BD4
:1057A000204D2900082A03DC0E99A94200DD2900BA
:1057B000002C00D04942059A002A63D10C9A10436C
:1057C00000D0CAE6079A002A00D0E6E64E2B3FD06A
:1057D00039DC492B00D0E0E613491FA801F017FF80
:1057E000002800D1D9E61F9B1049013B1FA81F9339
:1057F00001F00DFF002802D11F9B01331F93074FBB
:105800000026AAE61F9B5A1C1F925B78B5E7C0468C
:10581000E48E0008FFFFEFFF330400000000F07F7C
:10582000FFFFFF7F1F4E0000B58E00083B8F000872
:105830000A220E994A43D218303A0E92A7E7069AE6
:1058400000211F92B7E7692BC6D06E2B00D0A4E6CB
:105850008B491FA801F0DBFE002800D19DE61F9BAD
:105860001B78282B0CD122AA86491FA801F0E3FE41
:10587000052805D1239B844A229E1A4317006CE613
:10588000824FBDE76346CB1A0793089B002B01D1DB
:10589000059B0893059C102C00DD10240A98FDF749
:1058A00051FA06000F00092C15DD2200784B093A49
:1058B000D2009B181A685B68FCF718FC06000B986E
:1058C0000F00FDF73FFA02000B0030003900FBF734
:1058D000C9FC06000F00059B0F2B39DC079B002B32
:1058E00000D13AE626DD162B0BDC6949DB00C9182E
:1058F0003200086849683B00FCF7F8FB06000F001F
:105900002BE62523059A9B1A079A9A4220DC0F243E
:10591000059B5F4DE41AE100691832000868496888
:105920003B00FCF7E3FB079B1C1BE4002C192268DF
:105930006368E1E7079B16330ADB079B3000DA0058
:10594000534B39009B1A1A685B68FBF79BFFD5E73E
:10595000059B1C1B079BE418002C6EDD0F232340C6
:105960000AD04B49DB00C9183200086849683B007F
:10597000FCF7BCFB06000F000F239C4348D02633E6
:10598000FF339C4221DD002405940A9407942223CE
:105990000026049A3C4F13600A9BB34200D1DCE519
:1059A0002099049801F058FF0799049801F054FFDA
:1059B0000599049801F050FF0A99049801F04CFFF2
:1059C0002100049801F048FFC7E5002330003900AA
:1059D0001D002411012C1EDC002B01D006000F003D
:1059E0002C4BED00FF182C4B32005D1928686968BC
:1059F0003B00FCF77BFB244B0F000B4027490600C4
:105A00008B42C0D826498B4213D90126254F7642B6
:105A10000023069374E00122144207D01E4AEB00D3
:105A20009B181A685B68FCF761FB01230135641061
:105A3000D0E7D4239B04FF18EAE7002CE8D00F231B
:105A4000644223400AD0124ADB00D31830001A689F
:105A50005B683900FBF716FF06000F002411D7D052
:105A60001F2C21DD002405940A9407942223049A14
:105A7000002613600A9B0027002B91D16DE5C046DC
:105A8000BD8E0008F88E00080000F07F0000F8FFCF
:105A9000E08F00080000B0FCB88F00080000A07C78
:105AA0000000907CFFFFEF7F10232340069301D07E
:105AB0006A230693300039000023CA4D002C00DD14
:105AC00003E1002B01D006000F00069B002B0FD036
:105AD0006B237900490D3A005B1A002B08DD1F2B60
